:020000040800F2
:10000000500F002441030008335E0008AF5300087E
:10001000315E0008510A0008498D00080000000008
:1000200000000000000000000000000097650008CC
:10003000530A000800000000355E000899650008BA
:100040005B0300085B0300085B0300085B03000818
:100050005B0300085B0300085B0300085B03000808
:100060005B0300085B0300085B0300085B030008F8
:100070005B0300085B0300085B0300085B030008E8
:100080005B0300085B0300085B0300085B030008D8
:100090005B0300085B0300085B0300085B030008C8
:1000A0005B0300085B0300085B0300085B030008B8
:1000B0009D7500085B0300085B0300085B030008F4
:1000C0005B0300085B0300085B0300085B03000898
:1000D0005B030008258D00085B0300085B03000834
:1000E0005B0300085B030008000000005B030008DE
:1000F000D98100085B0300085B0300085B0300086C
:100100005B0300085B0300085B0300085B03000857
:100110005B030008698600085B0300085B030008B6
:100120005B0300085B0300085B0300085B03000837
:100130005B0300085B0300085B0300085B03000827
:1001400000000000000000000000000000000000AF
:100150005B0300085B0300085B0300085B03000807
:100160005B0300085B0300085B0300085B030008F7
:100170005B0300085B0300085B030008000000004D
:100180005B0300085B0300085B0300085B030008D7
:100190005B0300085B0300085B030008D9600008EC
:1001A0005B0300085B0300085B030008156100089F
:1001B0005B0300085B0300085B0300085B030008A7
:1001C0005B0300085B0300085B0300085B03000897
:1001D0005B0300085B0300085B0300085B03000887
:1001E0005B0300085B0300085B0300085B03000877
:1001F0005B0300085B0300085B0300085B03000867
:100200005B0300085B0300083D6100085B03000816
:100210005B0300085B0300085B0300085B03000846
:100220005B0300085B0300085B030008000000009C
:100230005B0300085B030008000000005B0300088C
:100240005B0300085B0300085B0300085B03000816
:100250005B0300085B0300085B0300085B03000806
:100260005B0300085B0300085B0300085B030008F6
:100270005B0300085B0300085B030008000000004C
:100280005B0300085B0300085B030008000000003C
:10029000000000005B03000800F002F800F041F8E5
:1002A0000AA090E8000C82448344AAF10107DA45D1
:1002B00001D100F036F8AFF2090EBAE80F0013F0E2
:1002C000010F18BFFB1A43F001031847C8A700002D
:1002D000E8A70000103A24BF78C878C1FAD85207BE
:1002E00024BF30C830C144BF04680C6070470000B0
:1002F0000023002400250026103A28BF78C1FBD82F
:10030000520728BF30C148BF0B607047752900F005
:10031000EB80002070471FB509F048F81FBD10B5ED
:1003200010BD00F082FA1146FFF7F5FF08F08EFDD0
:1003300000F0A0FA03B4FFF7F2FF03BC00F0A8FA44
:100340000948804709480047FEE7FEE7FEE7FEE769
:10035000FEE7FEE7FEE7FEE7FEE7FEE704480549A5
:10036000054A064B704700008166000899020008A4
:1003700050090024500F0024500B0024500B00247F
:1003800053EA020C00F069802DE9F04B4FF00006B3
:10039000002B1FBFB3FA83F503FA05F424FA05F620
:1003A0005E4012BF1643B2FA82F502FA05F4C5F1B7
:1003B00020051EBF22FA05FC44EA0C04203556EA4B
:1003C000044C4FEA144418BF641C4FF000084FF06F
:1003D0000009904271EB030C39D3002919BFB1FA1F
:1003E00081F701FA07F6B0FA80F700FA07F6C7F1CD
:1003F00020071EBF20FA07FC46EA0C062037B6FB92
:10040000F4FCA7EB0507103F07F01F0BCBF120060C
:100410000CFA0BFB2CFA06F644BFB3460026202F3D
:10042000A4BF5E464FF0000B5BEA060C08BF4FF01E
:10043000010B19EB0B09ABFB027C48EB0608C01B58
:1004400006FB02CC0BFB03CC71EB0C01C1E70B46A6
:10045000024641464846BDE8F08B13B54FF0000018
:100460004FF00001AFF30080BDE81C407047000072
:100470000FB41CB5074B06AA7B446946009005984B
:1004800000F0BBF90020694600F0CAF91CBC5DF819
:1004900014FB0000A503000070B5044685690068E0
:1004A000C10601D5302600E02026C00707D070BD68
:1004B000D4E9012130469047206A401C20626D1E1D
:1004C000F6D570BD70B5044685690078C00707D1C0
:1004D00070BDD4E9012120209047206A401C206291
:1004E0006D1EF6D570BD00002DE9F04106460024D2
:1004F00010687529314616A510D0AFF3008000288A
:1005000002DA404213A507E031688A0701D512A537
:1005100002E0490704D511A5012401E0AFF30080F2
:1005200000210A2206F1240709E0B0FBF2FCB0FB2F
:10053000F2F302FB1C00303078541846491C0028A6
:10054000F3D123462A463046BDE8F04100F0F6B824
:10055000000000002D0000002B0000002000000023
:100560002DE9F05F894604464FF0000ADFF874B1C8
:10057000FB44C0F820A02046E1688847002874D0DA
:10058000252806D0D4E901219047206A401C20622A
:10059000F1E700265F462046E168884720280546A7
:1005A00007DB312D05D2781910F8200C08B106436D
:1005B000F1E7B00701D526F00406C4F81CA0002717
:1005C000C4F818A02A2D09D0284608F038FC38B302
:1005D00004EB8708303DC8F8185019E059F8041B9F
:1005E000204604EB87029161E1688847012F0546A8
:1005F00018D1E069002820DA26F020061DE0D8F89E
:10060000180000EB800005EB40003038C8F81800F7
:100610002046E1688847054608F011FC0028EED125
:10062000012F0AD02E2D08D12046E16888477F1C73
:100630000546022F46F02006C4DBA069002803DA35
:10064000404246F00106A061F00701D026F01006F6
:100650006C2D0BD0682D09D04C2D39D06A2D35D09A
:10066000742D35D07A2D33D016E038E0E1682F466E
:1006700020468847B842054609D16C2F26D04FF452
:100680008060E168064320468847054604E06C2FF9
:100690001AD04FF4807006430DB3A5F1410019281C
:1006A00002D8203546F400664A4629462046266090
:1006B0004E46FFF72BFE80B101280BD0F61D26F029
:1006C000070000F1080956E74020E4E78020D8E75A
:1006D0000020D6E706F104094DE7284652E7206AD4
:1006E000BDE8F09F0EA500004FF0000200B51346D4
:1006F00094469646203922BFA0E80C50A0E80C5042
:10070000B1F12001BFF4F7AF090728BFA0E80C50F2
:1007100048BF0CC05DF804EB890028BF40F8042BEB
:1007200008BF704748BF20F8022B11F0804F18BF58
:1007300000F8012B70477047704770472DE9F0476C
:100740000D4699469246044600F124080168880641
:1007500004D5E06921F01001216000E00120A842E9
:1007600001DD471B00E00027A1697A1902EB0900AF
:10077000081AA0612078C00602D42046FFF78CFE3C
:10078000002608E0D4E901211AF806009047206A03
:10079000401C761C20624E45F4DB2078C0060AD54A
:1007A0002046FFF779FE06E0D4E90121302090478A
:1007B000206A401C2062381EA7F10107F4DC07E024
:1007C000D4E9012118F805009047206A401C2062F6
:1007D000281EA5F10105F3DC2046FFF773FE207803
:1007E000000602D50220BDE8F0870120FBE70000EB
:1007F00001694A1C02610878704700B58FB0CDE9E5
:1008000001310021059105497944CDE903101146D4
:100810006846FFF7A5FE0FB000BD0000E5FFFFFF33
:100820000A6802F8010B0A607047754600F02CF860
:10083000AE4605006946534620F00700854618B0CD
:1008400020B5FFF78BFDBDE820404FF000064FF0CC
:1008500000074FF000084FF0000B21F00701AC46F5
:10086000ACE8C009ACE8C009ACE8C009ACE8C00914
:100870008D46704710B50446AFF300802046BDE8B2
:100880001040FFF757BD000000487047F0080024F3
:1008900001491820ABBEFEE72600020070470000A9
:1008A00070B53A4905460068884202D0384A9042FD
:1008B00002D1D1F8080302E03648D0F8080310F45A
:1008C000403F11D002F0AAFB04466868B0F5803FB3
:1008D00006D0B0F5003F03D0B0F5403F27D101E08E
:1008E000000C18E0A40822E000214FF4002001F0E1
:1008F0002DFC044668688103890B18D181140C29EA
:1009000015D2DFE801F0140606060606060B0D0FE9
:100910001113800C4000B4FBF0F408E0240906E059
:10092000640904E0A40902E0E40900E0240A01F0FB
:1009300025F941F20301884208D817488442286803
:10094000816813D821F48071816070BD13496008FB
:10095000884204D82868816821F44071F4E710497E
:10096000884206D82868816821F4407141F480717A
:10097000EAE70C4988422868816804D821F440716C
:1009800041F40071E0E741F44071DDE700200240EE
:100990000021024000600258002D3101105E5F000E
:1009A00020BCBE0040787D0170B5044600688168B7
:1009B00011F0010F40D18168204A11422DD1816888
:1009C000D5432940491C816001F0DEF81C490646E8
:1009D00020681C4B884201D0984201D11A4A00E09D
:1009E0001A4A9268984202F01F0200D001468142E2
:1009F0001DD0E2B120E0816811F0010F03D18168C0
:100A00002940491C816001F0BFF8801B02280ED9E3
:100A100020680068C043C00709D0606D40F0100036
:100A20006065A06D40F00100A065012070BD2068E8
:100A30000168C943C907DED1002070BD3F000080B6
:100A400000200240002102400023024000630258BF
:100A5000FEE7704772B6FEE72DE9F0470F4690F8C3
:100A600050109AB0044601294FF0000915D0002615
:100A7000DFF8F880012084F850001596169621685A
:100A800041450ED13A4D0095284604F049FD824675
:100A9000206804F045FD60B10EE002201AB0BDE808
:100AA000F087606D84F8506040F0200060650120A0
:100AB000F4E7BAF1000F09D0616D4FF0010941F080
:100AC00020006065484684F85060E7E720684146AA
:100AD000884201D0A84201D1264800E0264840F6CD
:100AE0001F72D7F800C0254BBCF1000F23D0D0F8FF
:100AF00008C0D7F804802CF4404C4CEA080CC0F82D
:100B000008C0D4F800C08C4501D0AC4507D1896835
:100B1000AB6801F0010103F00103194302E0996899
:100B200001F001010029CDD1BD68396883682943EE
:100B30009343194317E0876827F440478760276885
:100B40008F4201D0AF4207D18968AB6801F0010143
:100B500003F00103194302E0996801F00101002943
:100B6000B0D1816891438160ACE700000020024071
:100B70000021024000230240006302580060025836
:100B80002DE9F84F4FF0000B0446E54E0D46CDF829
:100B900000B05F4690F85000DFF888A3012808D025
:100BA0004FF0010984F85090206804F0B5FC18B1AA
:100BB00069E10220BDE8F88F21682868CA6903034B
:100BC00028D090FAA0F0B0FA80F000BF00F01F0328
:100BD00009FA03F00243CA61D5E900124FF00C0C88
:100BE00020681F23C1F384610CEA921C02F01F02EB
:100BF000604493409140026B9A430A430263206829
:100C000004F08AFC8046206804F082FC58EA000068
:100C100003D07FE0C0F38460D8E72068AA68296821
:100C200004F082FCC0490968B9EB117F06D1216844
:100C30006869C968C1F38201490008E02068C16899
:100C4000C906C1686869F5D501F0100149088840F6
:100C5000296904292ED022682B6802EB810103F058
:100C6000F8420B6E024303F0004010430866697EB1
:100C700022682869012917D05FF0000102EB80008B
:100C8000026E22F000420A430266287E21682A6929
:100C900001280CD000200B6902F01F02904023F4C1
:100CA000F04202430A6135E04FF00041E6E74FF4BD
:100CB0000060F0E720682978026E02F0F842B2EB9B
:100CC000816F03D1016E21F000410166206829780F
:100CD000426E02F0F842B2EB816F03D1416E21F017
:100CE0000041416620682978826E02F0F842B2EB3A
:100CF000816F03D1816E21F00041816620682978DF
:100D0000C26E02F0F842B2EB816F03D1C16E21F0E6
:100D10000041C1662068816811F0010F76D150F85A
:100D2000C02F95F80CC0814B29680CF0180C23FAE1
:100D30000CF3C1F313080B4022EA08021A430260C5
:100D40007B48E968814277D1286801031BD090FA7B
:100D5000A0F1B1FA81F1491C01F01F0109294FEA04
:100D6000003131D8002911D090FAA0F1B1FA81F107
:100D700001F1010101F01F0109FA01F209D100BFDF
:100D8000C0F3846109E0C0F38461E4E7C0F38461E7
:100D9000EEE790FAA0F1B1FA81F101F1010101F061
:100DA0001F0142EA816102D1C0F3846003E090FA3E
:100DB000A0F0B0FA80F000F1010000F01F0000EB9D
:100DC000400041EA005133E000290ED090FAA0F132
:100DD000B1FA81F101F1010101F01F0109FA01F2FB
:100DE00006D100BFC0F3846106E0C0F38461F1E77F
:100DF00090FAA0F1B1FA81F101F1010101F01F01B6
:100E000042EA816103D1C0F3846004E040E090FADB
:100E1000A0F0B0FA80F0474A00F1010000F01F0096
:100E200000EB400002EB005041EA000141F000718C
:100E3000AA68206804F078FBD5F800C0BCF1000F68
:100E400026DA3D4B20683D49DFF8F490984201D006
:100E5000B04201D10A4600E04A469268984202F048
:100E6000E07201D0B04209D19D68D6F8088005F043
:100E7000010508F0010845EA080503E0DAF8085022
:100E800005F0010545B1606D012740F02000606567
:100E9000384684F850B08DE62A4DAC451CD1150279
:100EA0001AD45045F4D1984202D0B04200D04946FD
:100EB0008B6842F4000023F0E07202438A60234909
:100EC00021480968B1FBF0F04000801C00E0401EA2
:100ED00000900028FBD1DBE71D4DAC450CD1D501BE
:100EE0000AD45045D4D1984202D0B04200D04946ED
:100EF0008B6842F080700EE0164DAC45C8D15502AB
:100F0000C6D45045C4D1984202D0B04200D0494620
:100F10008B6842F4800023F0E07202438A60B7E7F6
:100F200000210240006002580010005CFFFF0F002B
:100F30000000FF47000020FE002002400023024086
:100F400000630258000084CB400D0300F40000242D
:100F5000000052C70000B8CF0068006C7047000066
:100F6000F8B54FF0000604003546009602D0606DDB
:100F700010B107E00120F8BD204600F005F9A66594
:100F800084F8506020688168C1F3407119B18168AC
:100F9000704A1140816020688168C1F3007181B995
:100FA00081686D4A114041F0805181606C496B4805
:100FB0000968B1FBF0F0401C00E0401E00900028E2
:100FC000FBD120688168C1F3007141B9616D0125D1
:100FD00041F010016165A16D41F00101A16504F0CE
:100FE0009BFA616DC90600D420B1606D012540F007
:100FF000100093E0606D20F4807040F002006065A6
:101000002068816811F0010F1FD1564A564B90425B
:1010100001D0984207D191689E6801F0010106F065
:101020000106314303E05149896801F0010161B9CA
:10103000904201D0984201D14D4800E04D4882686D
:10104000616822F47C120A43826000F097FD41F24D
:101050000301884202D9A06810280CD0617D227F4C
:10106000A368206B490341EA024118430843217FEA
:1010700001290CD010E0607D227F216B400340EA03
:10108000024241F01000104340F00C00EFE7218CC9
:10109000394A02EB41410843616A29B1A26A01F46D
:1010A0007871014342EA01002168344BCA681A4052
:1010B0000243CA60206804F02FFA0646206804F054
:1010C00027FA30431DD1216844F20303267DE26AEA
:1010D000C86842EA863298431043C86094F83800E2
:1010E00001281ED02068016921F0010101612068FA
:1010F000626B016921F07041114301612046FFF7E5
:10110000CFFBE068012820681CD0016B21F00F01A3
:101110000163606D20F0020040F001006065284628
:10112000F8BD2068A28F164FD4E9101C154E07EBAE
:101130000247A36C026941EA0C013B433240194368
:101140001143D3E7A269016B521E21F00F01114335
:10115000DEE70000C0FFFF5FC0FFFF7F400D030020
:10116000F4000024002002400021024000600258E8
:1011700000230240006302580000FEFF03C0F0FF9E
:101180000100FFFF1EF800FCF0B587B004461421F3
:101190006846FFF7A9FA234A002527680326204C52
:1011A000DFF884C0116808341D4B67451F4801F102
:1011B000010114D10129116007D1196841F0200102
:1011C0001960196801F020010591216841F00101C1
:1011D0002160216801F001010591202117E0DFF86D
:1011E00050C0674519D10129116007D1196841F034
:1011F00020011960196801F020010591216841F072
:1012000001012160216801F0010105911021029581
:10121000CDE90016694600F095FB07B0F0BD00006F
:10122000D8440258D8000024002002400000025890
:10123000002102402DE9F0413B4D044600683B4F40
:10124000A84201D0B84201D1394900E03949896842
:1012500001F01F0604F060F918B102210846BDE84C
:10126000F08194F8500001280CD0012084F850003F
:101270002046FFF799FB01004FF0000204D084F8EC
:101280005020EBE70220EAE7636D40F6016C20682E
:1012900023EA0C03B84243F48073636501D12B4603
:1012A00000E00346834200D01EB9636D23F480132F
:1012B0006365636DDB0404D5A36D23F00603A365AA
:1012C00000E0A2651C23036084F850202068B84227
:1012D00001D12A4600E00246824215D0A6B1052E71
:1012E00012D0092E10D0626DB84242F480126265AD
:1012F00000D00546E8688001B0D5606D20F400504C
:1013000040F480506065A9E7C268920105D5626D1E
:1013100022F4005242F4805262658268064B1A4001
:10132000121D82609AE70000002002400021024066
:101330000023024000630258C0FFFF7F2DE9F84FF1
:10134000044600F021FC00903CB194F835000228DE
:1013500006D0802161650020E4E00120BDE8F88F1F
:10136000C74DC74EC649183520683036DFF814839C
:10137000DFF814938842DFF814A3DFF814B32ED0FB
:10138000A8422CD0B0422AD0404528D0484526D08B
:10139000504524D0584522D0BD4A183290421ED024
:1013A000BC4A90421BD0BB4A1832904217D0B94A6F
:1013B0003032904213D0B74A483290420FD0B54AEB
:1013C000603290420BD0B34A7832904207D0B14A93
:1013D0009032904203D0AF4AA832904209D10268BD
:1013E00022F01E0202602068426922F080024261FF
:1013F00003E0026822F00E02026027688F4238463E
:101400004DD0A8424BD0B04249D0404547D0484586
:1014100045D0504543D0584541D09D4A183290425E
:101420003DD09C4A90423AD09A4A1832904236D0E7
:10143000984A3032904232D0964A483290422ED06A
:10144000944A603290422AD0924A7832904226D012
:10145000904A9032904222D08E4AA83290421ED0BA
:101460008D4A90421BD08C4A1432904217D08A4A3F
:101470002832904213D0884A3C3290420FD0864A9C
:10148000503290420BD0844A6432904207D0824A54
:101490007832904203D0804A8C32974204D1206E39
:1014A000026822F48072026075492068884228D060
:1014B000A84226D0B04224D0404522D0484520D072
:1014C00050451ED058451CD071491831884218D05B
:1014D0007049884215D06F491831884211D06D4942
:1014E000303188420DD06B494831884209D0694972
:1014F0006031884205D067497831884201D065491A
:101500009031016821F0010101600EE000F03CFB28
:101510000099401A052808D920226265032100207D
:1015200084F8351084F8340017E73868C007EDD127
:10153000534A0121206890422ED0A8422CD0B042BC
:101540002AD0404528D0484526D0504524D058457B
:1015500022D04F4B183398421ED04E4B98421BD08E
:101560004C4B1833984217D04A4B3033984213D023
:10157000484B483398420FD0464B603398420BD0CB
:10158000444B7833984207D0424B9033984203D073
:10159000404BA833984208D194F85C703F23A06D6B
:1015A00007F01F07BB40836007E094F85C30A06D34
:1015B00003F01F0301FA03F34360206890424DD00B
:1015C000A8424BD0B04249D0404547D0484545D0CD
:1015D000504543D0584541D02D4A183290423DD015
:1015E0002C4A90423AD02B4A1832904236D0294A9F
:1015F0003032904232D0274A483290422ED0254A8B
:10160000603290422AD0234A7832904226D0214A32
:101610009032904222D01F4AA83290421ED01E4AD9
:1016200090421BD01C4A1432904217D01A4A2832DA
:10163000904213D0184A3C3290420FD0164A503292
:1016400090420BD0144A6432904207D0124A78324A
:10165000904203D0104A8C3290420BD1D4E9190247
:101660004260E06E30B1026822F480720260D4E918
:101670001C024260002084F8351084F834006DE6C6
:1016800010000240580002407000024088000240F2
:10169000A000024010040240085402582DE9F05FF7
:1016A00028B190F83510022904D08021416501202D
:1016B000BDE8F09F904C904B0168183C18338E4A5F
:1016C000DFF83C92A1428D4CDFF838E28E4FDFF814
:1016D0003CB2DFF83CA28F4D8F4E31D091422FD0DB
:1016E00099422DD0A1422BD0494529D0714527D010
:1016F000B94225D0DFF810C20CF1180C61451FD09B
:10170000DFF808C2ACF1600C614519D0DFF8FCC10C
:10171000ACF1480C614513D0DFF8F0C1ACF1300CEE
:1017200061450DD0DFF8E4C1ACF1180C614507D07C
:10173000594505D0514503D0A94201D0B1422CD121
:10174000DFF8B4C14FF0040880F83580ACF1180C14
:1017500061451DD091421BD0994219D0A14217D0AA
:10176000494515D0714513D0B94211D0664818309B
:1017700081420DD065486038814209D063484838BD
:10178000814205D061483038814201D05F48183825
:10179000086820F001000860ABE0D1F800C02CF030
:1017A0000E08DFF854C1C1F80080ACF1180C0168D4
:1017B000614527D0914225D0994223D0A14221D022
:1017C00049451FD071451DD0B9421BD0DFF838C143
:1017D0000CF1180C614515D0DFF830C1ACF1600C8C
:1017E00061450FD0DFF824C1ACF1480C614509D048
:1017F000DFF818C1ACF1300C614503D0DFF80CC143
:10180000ACF1180CD1F800C02CF0010CC1F800C0EC
:10181000DFF8E4804FF0010C0168A8F11808414599
:1018200046D0914244D0994242D0A14240D049454D
:101830003ED071453CD0B9423AD0334A1832914239
:1018400036D0324A603A914232D0304A483A9142D8
:101850002ED02E4A303A91422AD02C4A183A914240
:1018600026D0594524D0514522D0A94220D0B1429A
:101870001ED02A4A91421BD0284A1432914217D0D6
:10188000264A2832914213D0244A3C3291420FD04A
:10189000224A503291420BD0204A6432914207D002
:1018A0001E4A7832914203D01C4A8C32914218D1A0
:1018B000016E0A6822F480720A6090F85C20816DE3
:1018C00002F01F020CFA02F24A60D0E919124A60D3
:1018D000C16E31B10A6822F480720A60D0E91C122C
:1018E0004A600022016D80F835C080F8342001B1D3
:1018F00088470020DCE60000280002405800024033
:101900007000024088000240A000024070040240C3
:1019100088040240A0040240B8040240085402585F
:1019200070B5044600F030F90546601C02D004484A
:101930000078044400F028F9401BA042FAD370BD9F
:10194000E80000242DE9F84F03247D4D00234FF0DB
:1019500001094FF0B04B4FF00F0AE9E009FA03F725
:101960003A4076D00E7906F00306012E01D0022E01
:1019700018D1D0F808C04FEA430ECE6804FA0EF82A
:101980002CEA080C06FA0EF646EA0C068660D0F839
:1019900004C00E792CEA070CC6F300169E4046EAF6
:1019A0000C0646600E79F643B6070BD0C6684FEAC0
:1019B00043088F6804FA08FC26EA0C0607FA08F7C1
:1019C0003743C7600E7906F00306022E12D1DE08F7
:1019D0000F694FEA437C00EB8606B646366A4FEA4B
:1019E000DC6C0AFA0CF807FA0CF726EA080637430B
:1019F000CEF820700F7906684FEA430807F0030716
:101A000004FA08FC07FA08F726EA0C0637430760D1
:101A10004E6816F4403F1CD04A4E376847F0020724
:101A2000376036689F0706F00206009623F003062B
:101A300006F1B046B6463F0FD6F80864DFF80881D5
:101A40000AFA07FC404526EA0C0603D14FF0000CC9
:101A500041E06CE0DFF8F4C0604502D14FF0010CCA
:101A600039E0DFF8ECC0604502D14FF0020C32E003
:101A7000DFF8E0C0604502D14FF0030C2BE0DFF847
:101A8000D8C0604502D14FF0040C24E0DFF8CCC090
:101A9000604502D14FF0050C1DE0DFF8C4C0604581
:101AA00002D14FF0060C16E0DFF8B8C0604502D155
:101AB0004FF0070C0FE0DFF8B0C0604502D14FF0E7
:101AC000080C08E0DFF8A4C0604502D14FF0090C13
:101AD00001E04FF00A0C0CFA07FC4CEA060CCEF8B9
:101AE00008C44F68DBF80060FF0226EA020600D552
:101AF00016435F46CBF80060D1F804C0DBF8046001
:101B00005FEA8C2C26EA020600D516437E606E68DA
:101B10004F6826EA0206BF0300D516436E602E68A2
:101B20004F6826EA0206FF0300D516432E605B1CB1
:101B30000A6832FA03F67FF411AFBDE8F88F0000AF
:101B400080000058F4440258000002580004025873
:101B500000080258000C02580010025800140258E5
:101B600000180258001C0258002002580024025895
:101B70000AB1816170470904FBE700000148006871
:101B8000000C70470010005C01488068704700003E
:101B9000E8000024074908B50A6842F002020A601A
:101BA000096801F00201009103490A6802430A60D2
:101BB00008BD0000F444025804040058024881683B
:101BC0000278114481607047E8000024032010B5BA
:101BD00000F086F801F068FA0F4A1049146813689B
:101BE000C4F3032203F00F038A5CC95C02F01F02F6
:101BF00001F01F01D0400A4A20FA01F111600949A1
:101C000008600F2000F010F808B1012010BD00F0AE
:101C10002BF8002010BD00001844025872AA0008DA
:101C2000F8000024F400002470B50D4D0446287817
:101C3000A0B14FF47A71B1FBF0F00A490968B1FB29
:101C4000F0F002F0FCFB48B9102C07D2002221462C
:101C5000501E00F025F800206C6070BD012070BDA2
:101C6000E8000024F4000024054808B5016841F0AC
:101C700002010160006800F00200009008BD000051
:101C8000F4440258002809DB410900F01F028900D2
:101C9000012001F1E0219040C1F8000170470000EF
:101CA0000E4BF0B41B680D46C3F30223C3F10706C5
:101CB000042E00D90426191D072901D2002300E0B3
:101CC000DB1E012404FA06F19C40491E2940641ED3
:101CD000994014402143F0BC07F0A0B80CED00E09F
:101CE000064900F0070210B54FF6FF040868044BE0
:101CF000204040EA02201843086010BD0CED00E0CF
:101D00000000FA05134970B50A68D243520705D599
:101D1000096801F00701814213D118E00A6822F036
:101D2000070202430A60FFF72FFF0A4D4FF47A764D
:101D30000446083D07E000BFFFF726FF001BB04246
:101D400001D9012070BD2868C0438004F4D400206C
:101D500070BD00000C48025810B501F05FF905494C
:101D60000968054AC1F30211515C01F01F01C84026
:101D700010BD00002044025872AA00084A4930B53C
:101D8000494C0B1D0A680C3409681D68246802F070
:101D9000030305F00102C1F30511C4F3CC040029CB
:101DA00014FB02F200EE102AF8EE400A76D0414A07
:101DB0009FED3E1ADFED3E1AB7EE000A23B1012B6C
:101DC0005AD0022B18D15CE0374C283C23689B0684
:101DD00012D5394B246801EE901A1168C4F3C1047E
:101DE000F8EE612AE34001EE903AC1F30801F8EE03
:101DF000611A81EEA22A07E002EE101A1168F8EECD
:101E0000422A81EEA22A45E001EE901A1168F8EE0E
:101E1000611A40EE811A71EE800A62EE200AC1F367
:101E2000462101EE101AB8EE411A31EE001AC0EE4A
:101E3000811ABCEEE11A80ED001A1168C1F3064167
:101E400001EE101AB8EE411A31EE001AC0EE811AF6
:101E5000BCEEE11A80ED011A1168C1F3066101EED2
:101E6000101AB8EE411A31EE000A80EE801ABCEE6C
:101E7000C10A80ED020A30BD01EE901ADFED0F2A93
:101E800003E001EE901ADFED0E2A1168F8EE611AF8
:101E900082EEA12AC1F30801B6E7FFE70021016045
:101EA0004160816030BD00002844025800000039C4
:101EB0000024744C304402580090D0030024744A2B
:101EC00020BCBE4B494930B5484C0B1D0A68143440
:101ED00009681D68246802F00303C5F30012C1F30A
:101EE0000531C4F3CC04002914FB02F200EE102AE1
:101EF000F8EE400A75D03F4A9FED3D1AB7EE000A52
:101F00006BB1DFED3D1A012B01D0022B64D002EE44
:101F1000101A1168F8EE422A81EEA22A21E0334C11
:101F2000283C23689B0612D5344B246801EE901A96
:101F30001168C4F3C104F8EE612AE34001EE903A5F
:101F4000C1F30801F8EE611A81EEA22A0BE001EE5E
:101F5000901ADFED2B2A00BFF8EE611A116882EEAD
:101F6000A12AC1F3080101EE901A1168F8EE611A76
:101F700040EE811A71EE800A62EE200AC1F346211A
:101F800001EE101AB8EE411A31EE001AC0EE811AB5
:101F9000BCEEE11A80ED001A1168C1F3064101EEB2
:101FA000101AB8EE411A31EE001AC0EE811ABCEEDA
:101FB000E11A80ED011A1168C1F3066101EE101AF1
:101FC000B8EE411A31EE000A80EE801ABCEEC10A6A
:101FD00080ED020A30BD04E001EE901ADFED092A1F
:101FE000BAE70021016041608160F3E728440258AC
:101FF00000000039384402580024744A0090D0038D
:102000000024744C20BCBE4B494930B5484C0B1DD4
:102010000A681C3409681D68246802F00303C5F3CC
:102020000022C1F30551C4F3CC04002914FB02F2D1
:1020300000EE102AF8EE400A75D03F4A9FED3D1A97
:10204000B7EE000A6BB1DFED3D1A012B01D0022B78
:1020500064D002EE101A1168F8EE422A81EEA22A2C
:1020600021E0334C283C23689B0612D5344B24686E
:1020700001EE901A1168C4F3C104F8EE612AE3403E
:1020800001EE903AC1F30801F8EE611A81EEA22A3E
:102090000BE001EE901ADFED2B2A00BFF8EE611A7B
:1020A000116882EEA12AC1F3080101EE901A1168AD
:1020B000F8EE611A40EE811A71EE800A62EE200A93
:1020C000C1F3462101EE101AB8EE411A31EE001AA2
:1020D000C0EE811ABCEEE11A80ED001A1168C1F35E
:1020E000064101EE101AB8EE411A31EE001AC0EEA8
:1020F000811ABCEEE11A80ED011A1168C1F3066184
:1021000001EE101AB8EE411A31EE000A80EE801A84
:10211000BCEEC10A80ED020A30BD04E001EE901A67
:10212000DFED092ABAE70021016041608160F3E731
:102130002844025800000039404402580024744AE0
:102140000090D0030024744C20BCBE4B2DE9F04F0E
:10215000AC4A0546DFF8A8A280F48070DFF8AC92A4
:1021600089B01311AA4C0843A748AAF104064FF0FE
:10217000805C4FF000582CD085F400770F4357D087
:10218000DFF87CB285F480670F430BF1080B61D058
:1021900085F400670F4374D085F480570F436ED0E9
:1021A00085F400570F434FF480394FF4003E67D059
:1021B00085F400270F4371D085F480370F436ED02C
:1021C00085F480460E436BD085F400420A4368D004
:1021D0002AE0DAF8001001F00701052924D2DFE82F
:1021E00001F075BC7D25B10006A8FFF7C7FD079873
:1021F00009B0BDE8F08F6846FFF764FE0098F7E786
:1022000003A8FFF701FF0398F2E72068C0F3C100BD
:1022100022FA00F0ECE72268D20571D561456FD152
:102220001846E5E74145E3D00020E1E74846DFE70F
:10223000DAF8001001F4E07180294FD004DC0029A5
:1022400044D04029F0D188E0C029EFD0B1F5807F9B
:10225000EAD177E0DBF8001001F46001B1F5800FFE
:102260003CD004DC91B3B1F5001FDDD175E0B1F5D0
:10227000C00FDBD0B1F5000FD6D163E001E018E06C
:1022800030E0DBF8001001F0E061B1F1007F25D013
:1022900008DCD9B1B1F1807FC6D15EE049E06CE0E5
:1022A00079E09CE0B1F1407FC0D0B1F1806FBBD14B
:1022B00048E0DAF8001001F4E041B1F5005F0DD01C
:1022C00005DC19B1B1F5805FAED146E094E0B1F51F
:1022D000405FABD0B1F5804FA6D133E020688000DD
:1022E000A2D58DE7DAF8001001F4E021B1F5403F06
:1022F0006CD006DC61B149457AD0714594D157E084
:1023000037E0B1F5802F65D0B1F5A02F8CD10CE06E
:1023100000F0A6FE6CE76846FFF7D4FD019867E77A
:1023200003A8FFF771FE049862E721688903F1D4DE
:102330007AE7DBF8001011F440310ED0494510D097
:102340007145F5D13168256801F040516D077FF581
:1023500062AF00297FF45FAF57E720680001E7D53F
:1023600049E720688000E3D503A8FFF74DFE0598F4
:102370003EE722689203DBD554E7306810F48030E2
:102380003AD04845D4D120680001D1D56846FFF73E
:1023900099FD02982CE7DBF8001001F0E041B1F163
:1023A000405F13D008DC71B1614521D04145BFD1F8
:1023B00020688000B4D437E7B1F1804F0AD0B1F182
:1023C000A04FB2D030E7FFF7C7FC11E72068400705
:1023D000AED51AE72068C005AAD521E708E0DAF8EB
:1023E000001011F04051A0D0614505D041459FD16A
:1023F000206800018FD417E72068800198D5F3E6A4
:10240000504402580090D00340787D010080BB000A
:10241000004402582DE9FE4F0546DFF8E48350F8EA
:10242000081B0024F64FC943019005F128002646F9
:1024300008F12408009008011DD4A86E50B1B0F531
:10244000801F0CD0B0F5001F0ED0B0F5401F1ED07D
:1024500001240FE0386840F40030386017E001983C
:10246000022103F019FD03E00098022103F0A4FD0E
:1024700004000CD026462888C043C00523D4A86D8C
:1024800005281ED2DFE800F00C11161B1B00AA6EF7
:10249000D8F8001021F440111143C8F80010EAE701
:1024A000386840F40030386009E00198002103F0FA
:1024B000F3FC03E00098002103F07EFD044674B1B4
:1024C00000E0012426462888C043800528D4E86D12
:1024D00080281ED00CDC90B140280ED114E0AA6DEB
:1024E000D8F8001021F007011143C8F80010EAE7FE
:1024F000C02813D0B0F5807F10D001240FE03868D9
:1025000040F40030386009E00198002103F0C4FC79
:1025100003E00098002103F04FFD04469CB12646DD
:102520002888DFF8DC92C04309F12C0940052CD43F
:10253000D5F8A800B0F5800F20D00DDCA0B1B0F523
:10254000001F0FD115E0EA6DD8F8001021F4E071FA
:102550001143C8F80010E3E7B0F5C00F13D0B0F591
:10256000000F10D001240FE0386840F400303860CC
:1025700009E00198002103F08FFC03E0009800219E
:1025800003F01AFD04467CB126462888C0430005A6
:102590002DD4D5F8AC00B0F1007F21D00EDCA8B16D
:1025A000B0F1807F10D116E0D5F8A820D9F800103E
:1025B00021F460011143C9F80010E6E7B0F1407F53
:1025C00013D0B0F1806F10D001240FE0386840F4D0
:1025D0000030386009E00198002103F05DFC03E061
:1025E0000098002103F0E8FC044674B126462868F0
:1025F000C04380011FD4E86CD8B110280FD0202828
:1026000012D0302815D0012414E0D5F8AC20D9F828
:10261000001021F0E0611143C9F80010E7E73868C5
:1026200040F40030386004E00198022103F034FCEB
:10263000044674B126462888C043C0042BD4286EB3
:10264000B0F5005F20D00DDCA0B1B0F5805F0FD1F8
:1026500015E06B48EA6C2030016821F0300111432D
:102660000160E8E7B0F5405F13D0B0F5804F10D0BF
:1026700001240FE0386840F40030386009E0019828
:10268000002103F009FC03E00098002103F094FC12
:1026900004468CB126462888C043800429D4686E3D
:1026A000B0F5403F23D010DC08B3B0F5803F14D024
:1026B000B0F5003F0FD115E02A6ED8F8001021F4D4
:1026C000E0411143C8F80010E5E7B0F5802F0ED0C7
:1026D000B0F5A02F0BD001240AE00198012103F0EE
:1026E000DBFB03E00098012103F066FC044694B193
:1026F00026462888C04340042AD4D5F8B000B0F15B
:10270000405F23D010DC08B3B0F1805F14D0B0F18B
:10271000005F0FD115E06A6ED8F8001021F4E021B7
:102720001143C8F80010E4E7B0F1804F0ED0B0F1CB
:10273000A04F0BD001240AE00198012103F0ACFB6B
:1027400003E00098012103F037FC044674B12646EB
:102750002888C04300041FD4286FD8B1B0F1805F2F
:102760000ED0B0F1005F10D0012414E0D5F8B020F5
:10277000D9F8001021F0E0411143C9F80010E7E753
:10278000386840F40030386004E00198012103F01B
:1027900083FB044674B126462868C043C0011ED49A
:1027A000A86CD0B101280ED0022811D0032814D073
:1027B000012413E02A6FD8F8001021F04051114392
:1027C000C8F80010E8E7386840F40030386004E0EA
:1027D0000198022103F060FB0446ACB1264628684C
:1027E000DFF81CB0C043ABF11C0B400252D40548CB
:1027F000016841F480710160FFF7C6F9824611E07B
:102800002C44025800480258FA48AA6C016821F08A
:10281000030111430160E2E7FFF7B6F9A0EB0A00FC
:10282000642835D8F4480068C005F5D58CBBDFF8BE
:10283000C4A3B5F8B4100AF1240ADAF8000001F4D0
:10284000407100F44070884211D0DAF80010DAF8D4
:10285000002021F4407142F48032CAF80020DAF8F6
:10286000002022F48032CAF80020CAF80010D5F8FF
:10287000B400B0F5807F1AD1FFF786F9029012E01C
:10288000FFF782F90299411A41F2883081420AD950
:10289000032426462878DFF85CA3C0430AF1080A1F
:1028A000C00721D03CE0DAF800008007E8D5D5F871
:1028B000B410C1F30120032858460DD0016821F45B
:1028C0007C510160B5F8B420DAF80010C2F30B02B5
:1028D0001143CAF80010DDE7C84A036802EA111282
:1028E00023F47C511143ECE7E86F182816D005DC7F
:1028F000A0B1082808D0102804D10AE020280DD063
:1029000028280BD001240AE00198012103F0C4FA21
:1029100003E00098012103F04FFB044664B1264612
:102920002878C04380071ED4A86F062819D2DFE894
:1029300000F0160C11161616EA6FDAF8001021F0E6
:1029400038011143CAF80010EAE70198012103F0A9
:10295000A3FA03E00098012103F02EFB04467CB1AA
:1029600000E0012426462878C04340071FD4D5F84C
:102970009400062819D2DFE800F0160C111616167E
:10298000AA6FDAF8001021F007011143CAF800100D
:10299000E9E70198012103F07FFA03E000980121A3
:1029A00003F00AFB0446A4B100E00124264628787F
:1029B000C04380062BD4D5F89000B0F1405F24D0FE
:1029C00011DC10B3B0F1805F15D0B0F1005F10D111
:1029D00016E0D5F89420D9F8001021F00701114332
:1029E000C9F80010E3E7B0F1804F0ED0B0F1A04F6E
:1029F0000BD001240AE00198002103F04DFA03E016
:102A00000098022103F0D8FA044694B126462878AB
:102A1000C04340062BD4D5F89C00B0F5406F24D0BD
:102A200011DC10B3B0F5806F15D0B0F5006F10D188
:102A300016E0D5F89020DAF8001021F0E0411143BB
:102A4000CAF80010E3E7B0F5805F0ED0B0F5A05FE4
:102A50000BD001240AE00198002103F01DFA03E0E5
:102A60000098022103F0A8FA044694B1264628787B
:102A7000C04300062BD4D5F8A000B0F5C04F24D039
:102A800011DC10B3B0F5005F15D0B0F5804F10D158
:102A900016E0D5F89C20D9F8001021F4E05111433C
:102AA000C9F80010E3E7B0F5004F0ED0B0F5204FA5
:102AB0000BD001240AE00198002103F0EDF903E0B6
:102AC0000098022103F078FA044654B1264628788B
:102AD000C04300071ED4D5F88400B0F5805F0AD04B
:102AE0000FE0D5F8A020D9F8001021F4604111437F
:102AF000C9F80010EBE70098022103F05DFA00B17D
:102B00000126D5F88420DAF8001021F44051114351
:102B1000CAF800102878C043C00613D4D5F898002E
:102B2000B0F5807F05D10098022103F045FA00B18D
:102B30000126D5F89820D9F8001021F440711143EE
:102B4000C9F800102868C043000316D4D5F8A400C3
:102B500038B1B0F5803F09D0B0F5003F0BD001246B
:102B60000AE00198002103F097F903E000980221A0
:102B700003F022FA04468CB126462868C04340037D
:102B800022D4D5F88800B0F5801F11D0B0F5001F11
:102B900013D0B0F5401F15D0012414E0D5F8A420BF
:102BA000D9F8001021F440311143C9F80010E4E7CE
:102BB000386840F40030386004E00098012103F0E8
:102BC000FBF904465CB126462868C043C00323D401
:102BD000286DA8B1B0F5803F17D001241BE0D5F8CF
:102BE0008820DAF8001021F440111143CAF80010CF
:102BF000EAE700004C44025800480258CFFFFF00AB
:102C0000386840F40030386004E00198022103F095
:102C100043F90446E4B126462868C043800005D441
:102C20000098022103F0C8F900B101262868C043CA
:102C300080031BD4D5F88000B0B1B0F5807F0FD0F1
:102C4000B0F5007F10D0B0F5407F0DD001240CE02E
:102C50005A482A6D016821F4803111430160DBE795
:102C6000386840F400303860ECB326462868C0432A
:102C7000C00207D46A6FD8F8001021F00041114358
:102C8000C8F800102868C043C00008D4D5F8B820A0
:102C9000DBF8001021F480411143CBF800102868C4
:102CA000C043800207D4EA6ED8F8001021F080718A
:102CB0001143C8F800102868C04340000CD4DBF86A
:102CC000001021F40041CBF80010DBF80010D5F81B
:102CD000BC201143CBF800102868C04308D4374803
:102CE0006A6D016800E018E021F040511143016075
:102CF0002868C043000208D4D5F88C20DAF8001008
:102D000021F440011143CAF8001028790024C0437F
:102D100000F0010020430AD00FE0D5F88020DAF857
:102D2000001021F440711143CAF800109EE7019889
:102D3000002103F0B1F800B106462879C04300F045
:102D40000200204305D10198012103F0A5F800B14C
:102D500006462879C04300F00400204305D10198BD
:102D6000022103F099F800B106462879C04300F02B
:102D70000800204305D10098002103F01DF900B19F
:102D800006462879C04300F01000204305D1009882
:102D9000012103F011F900B106462879C04300F083
:102DA0002000044304D10098022103F005F900B982
:102DB00016B10120BDE8FE8F0020FBE74C4402580D
:102DC0002DE9F05F04000F467ED0DFF83882D8F896
:102DD000000000F00F00B8420CD2D8F8001021F02B
:102DE0000F013943C8F80010D8F8000000F00F00B8
:102DF000B84269D12078844D40070AD520692968F6
:102E000001F07001884204D9296821F07001014362
:102E1000296020787C4E361D00070AD5606931682C
:102E200001F07001884204D9316821F0700101433A
:102E300031602078C0060AD5A069316801F4E061EC
:102E4000884204D9316821F4E0610143316020787F
:102E5000DFF8B4B180060BF1080B0CD5E1695846D8
:102E6000DBF8002002F07002914204D9026822F0DF
:102E700070020A430260207880070AD5E06829685A
:102E800001F00F01884204D9296821F00F010143A4
:102E900029602078C0073ED05B49A26828681839AD
:102EA00020F47060104328606068022818D003285E
:102EB00019D00968012819D0490700294ADADFF832
:102EC00048A1AAF1080A00E044E0DAF8002022F064
:102ED00007020243CAF80020FEF756FE814612E0C0
:102EE00009688903E9E709688901E6E7C905E4E7B4
:102EF000FEF74AFEA0EB090141F28830814202D977
:102F00000320BDE8F09F6168DAF8000000F03800A7
:102F1000B0EBC10FECD1207880070AD5E0682968B2
:102F200001F00F01884204D2296821F00F0101430A
:102F30002960D8F80010404601F00F01B9420BD9C2
:102F4000016821F00F0139430160006800F00F00B3
:102F5000B84201D00120D4E7207840070AD5206983
:102F6000296801F07001884204D2296821F07001BB
:102F700001432960207800070AD56069316801F0B3
:102F80007001884204D2316821F070010143316040
:102F90002078C0060AD5A069316801F4E061884252
:102FA00004D2316821F4E061014331602078800669
:102FB0000CD5E1695846DBF8002002F0700291421E
:102FC00004D2026822F070020A43026000F06CF83A
:102FD0000E492A682B68C2F3032203F00F038A5CB0
:102FE000C95C02F01F0201F01F01D040084A20FA1C
:102FF00001F111600749086007480068BDE8F05F0B
:10300000FEF712BE002000521844025872AA0008AF
:10301000F8000024F4000024EC00002430B500F097
:1030200043F80B4A0B490C4B15681468C5F303228F
:1030300004F00F048A5C095D02F01F0201F01F0119
:10304000D040064A20FA01F119601060084630BDF0
:103050001844025872AA0008F8000024F400002462
:1030600000B5FFF7DBFF05490968054AC1F3021106
:10307000515C01F01F01C84000BD00001C44025813
:1030800072AA000800B5FFF7C9FF05490968054A9B
:10309000C1F30221515C01F01F01C84000BD0000D6
:1030A0001C44025872AA0008454970B54548096891
:1030B000434B103B11F0380208D00111082A03D00D
:1030C000102A0BD0182A0BD0084670BD1968890643
:1030D000FBD51968C1F3C101C84070BD3A4870BD45
:1030E0003749374D18310C1D24350A6809682668A0
:1030F0002D6802F0030406F00102C1F30511C5F3C7
:10310000CC0515FB02F200EE102AB8EE400AE9B336
:103110002F4ADFED2E0AB7EE001A6CB1DFED2D1A43
:10312000012C01D0022C43D002EE101A1068F8EEE8
:10313000422A81EEA22A1EE01C68A40611D51B6853
:1031400001EE901A1168C3F3C103F8EE612AD8406A
:1031500001EE900AC1F30800F8EE611A81EEA22A8E
:103160000BE001EE901ADFED1C2A00BFF8EE611AA9
:10317000106882EEA12AC0F3080001EE900AF8EE72
:10318000611A40EE201A31EE810A00E015E022EECD
:10319000000A1068C0F34620401C00EE900AF8EECA
:1031A000600A80EE201ABCEEC10A10EE100A70BD53
:1031B00001EE901ADFED092AD8E7002070BD00006B
:1031C000104402580090D00340787D01000000397F
:1031D000304402580024744A0024744C20BCBE4B76
:1031E0002DE9F05F04007DD0FF4F2078FE4D1837A9
:1031F000DFF8F493103DC00748D0D9F800003968D3
:1032000000F03800102815D0182803D101F0030071
:1032100002280FD06068B0F5803F12D010B1B0F531
:10322000A02F18D0286820F480302860286820F467
:10323000802009E02868800328D560680028D2D063
:1032400024E0286840F480302860606888B1FEF788
:103250009BFC064609E0286840F480202860F0E7DF
:10326000FEF792FC801B64286FD828688003F7D58E
:103270000CE0FEF789FC064605E000BFFEF784FC83
:10328000801B6428F0D828688003F7D4207841F2A6
:103290000308D54E0C3E800769D5D9F8000039687F
:1032A00010F038000ED0182801D188070AD0E06845
:1032B00090B3296821F0190101432960FEF764FCED
:1032C000824631E02868400702D5E06800288AD0AD
:1032D000E168286820F0190008432860FEF754FCD4
:1032E000824607E0DFE000BFFEF74EFCA0EB0A00DD
:1032F0000228B9D828684007F6D500BFFEF73EFC83
:1033000040451BD82069402812D0316821F47C3117
:1033100041EA003030602AE018E000BFFEF734FCDC
:10332000A0EB0A0002289FD828684007F6D5E5E7F9
:10333000306820F47C3040F40030EBE7207C3168CA
:1033400021F0FE4141EA0060E4E70DE1286820F049
:1033500001002860FEF718FC824605E0FEF714FC29
:10336000A0EB0A0002288DD828684007F6D4207800
:10337000C0065DD5D9F80000DFF86CB2396800F0FE
:103380003800ABF1040B082810D0182803D101F045
:10339000030001280AD0E0690028286838D040F0EE
:1033A00080002860FEF7F0FB824623E02868C00515
:1033B00023D5E069802876D11FE0206A202821D01B
:1033C000316821F0F84141EA8060306030E000BFB0
:1033D00094F82010DBF8002022F07C5242EA0161D0
:1033E000CBF8001024E000BFFEF7CEFBA0EB0A00F4
:1033F000022898D82868C005F6D5FEF7BFFB4045DF
:10340000E6D8DAE7306820F0F84040F08040DCE7AA
:1034100020F080002860FEF7B7FB064605E000BFFD
:10342000FEF7B2FB801B02289DD82868C005F7D4A0
:103430002078000729D56C486169643000298046EE
:10344000016811D041F001010160FEF79DFB0646C5
:1034500005E000BFFEF798FB801B0228C9D8D8F80A
:1034600000008007F6D510E021F001010160FEF7B1
:103470008BFB064605E000BFFEF786FB801B02289B
:1034800072D8D8F800008007F6D42078800623D5BB
:10349000A0690028286810D040F480502860FEF70A
:1034A00073FB064605E036E1FEF76EFB801B022843
:1034B0005AD828688004F7D50EE020F480502860A0
:1034C000FEF762FB064604E0FEF75EFB801B022867
:1034D0004AD828688004F7D4207840074FD5DFF811
:1034E0000C81D8F8001041F48071C8F80010FEF784
:1034F0004BFB064605E000BFFEF746FB801B642839
:1035000032D8D8F80000C005F6D5374EA06860362E
:1035100001280AD008B1052813D0306820F0010036
:103520003060306820F0040002E0306840F00100B4
:103530003060A06841F2883A90B1FEF725FB8046E2
:103540000AE0306840F004003060EEE7FEF71CFB54
:10355000A0EB0801514507D830688007F6D50EE08A
:10356000FEF712FB804607E084E000BFFEF70CFB8D
:10357000A0EB080151457DD830688007F6D4606A19
:10358000B0B3DFF86480D9F8001008F120084FF6D6
:10359000F87B08F10409C1F3C2010329A8F1040A68
:1035A00069D00228286820F08070286003D0FEF7D8
:1035B000EBFA044684E0FEF7E7FA064605E000BFB2
:1035C000FEF7E2FA801B022877D828688001F7D43A
:1035D000E26A40F2F331386854F8283F884340EA01
:1035E00002101843386004E01044025800480258A2
:1035F000B5E0217B434622894FF4FE0C208A4FF030
:10360000FE474902267D521E401EA1F50071C2F3FD
:1036100008088AB2761E0CEA004042EA0802024319
:10362000504607EA06610A431A60DAF8002022F0E1
:103630000102CAF80020D9F80020266A22EA0B020B
:1036400042EAC602C9F80020DAF80010A26921F0A7
:103650000C011143CAF800100168E26921F002016F
:1036600011430160016841F480310160016841F457
:10367000003101E021E027E00160016841F4802190
:103680000160016841F001010160286840F080702C
:103690002860FEF779FA044605E000BFFEF774FAE9
:1036A000001B022809D828688001F7D557E000BF21
:1036B000FEF76AFA001B022802D90320BDE8F09F3A
:1036C00028688001F4D44AE039680128D8F800005D
:1036D00021D0A26A01F0030393421CD1E26AC1F334
:1036E00005118A4217D1216BC0F30802491E8A4294
:1036F00011D1616BC0F34622491E91420BD1A16BDF
:10370000C0F30642491E914205D1E16BC0F3066049
:10371000491E814201D00120D0E7A16C4E46D9F864
:103720000000C0F3CC00814219D0DAF80000554601
:1037300020F00100CAF80000FEF726FA4FEA000761
:10374000FEF722FAB842FBD0A26C306820EA0B00E8
:1037500040EAC2003060286840F001002860002084
:10376000ACE72DE9F041044690F8900000250128CF
:103770000FD0012684F8906020680168890333D552
:10378000016821F40031016094F89100122803D0FF
:1037900014E00220BDE8F081D4F8800070B1FDF79C
:1037A000CDFD58B1D4F88000406D802806D0D4F803
:1037B0009400012540F08000C4F8940094F8910032
:1037C000222811D1D4F8840070B1FDF7B7FD58B1AB
:1037D000D4F88400406D802806D0D4F894000125E8
:1037E00040F08000C4F8940021680027781E0F6123
:1037F00021688861204602F0DDFC00B101252068C7
:10380000416841F00801416084F89160284684F8DD
:103810009070BFE7704700002DE9F041044690F832
:103820009100002874D02068426901690368150777
:1038300007D50D0705D5D4F88C102046BDE8F0411A
:103840000847D5074FF0010610D0CD070ED086618E
:1038500094F89100222807D05FF00200D4F8941069
:103860000143C4F8941079E00120F7E795070AD5E1
:103870008D0708D502218161D4F88800002870D016
:10388000BDE8F0410047384D970631D58F062FD55A
:10389000202181619A03D4F89400002A40F00400AA
:1038A00032E000BFD4F8800070B10565D4F8800024
:1038B000FDF7F4FE40B1D4F8940040F08000C4F865
:1038C00094002046FFF7A6FFD4F88400002848D0D3
:1038D0000565D4F88400FDF7E1FE002841D0D4F856
:1038E000940040F0800037E02046FFF73AFF35E0D3
:1038F00057060ED54F060CD5402181619A03D4F8A6
:103900009400002A40F00800C4F89400ECDAC9E7FB
:1039100027E0570716D54F0714D5042181619A0374
:10392000D4F8940040F02000C4F89400BAD422687F
:103930000020411E10612268916184F89160A4F812
:103940007E000BE0D2060CD5C9060AD51021816194
:10395000D4F8940040F01000C4F894002046FFF71B
:1039600059FFBDE8F0810000716100082DE9F05FAA
:10397000040049D0FEF702F994F83800CF49DFF887
:1039800040A3012809D12068884201D050453BD18D
:103990006068012838D1606CB0BBDFF820838B46AB
:1039A000206808F12008584501D0404502D1C3489D
:1039B000001F1BE0C349884203D0C249203188421E
:1039C00002D1C048001F11E0BF49884203D0BE4960
:1039D0002031884202D1BC48001F07E0504503D087
:1039E000B749203188420FD1B548001F814694F86D
:1039F000910028B9002084F89000204600F06CF96E
:103A0000204602F0D7FB10B10120BDE8F09FE0682E
:103A1000022184F8911020B101280CD002280CD08A
:103A20000020A1684FF40066062908D2DFE801F003
:103A300007090C6A6D701020F3E72020F1E70025DC
:103A400003E04FF4806500E03546C9F80000206AC5
:103A50004FF40077E8B321680020594501D0414573
:103A600004D100214FF48070FEF770FB954A216865
:103A7000914203D0934A2032914203D1002138462B
:103A8000FEF764FB904A2168914203D08E4A2032AF
:103A9000914203D100213846FEF758FB2268524577
:103AA00004D100214FF48060FEF750FB8449226866
:103AB00020318A4203D100213046FEF747FBA1693D
:103AC000B1F5002F27D0A16AB1F1806F37D0012165
:103AD00000E038E0226A00EB800040004A43110217
:103AE000B0FBF1F00A22B0FBF2F3B0FBF2F161623D
:103AF00002FB1300082801D9491C6162606C04288C
:103B00001FD020E040F001009EE740F002009BE75C
:103B100040F0030098E7616C04290BD008290BD012
:103B2000D4F8541000EB8000226A4A434000B0FBF6
:103B3000F2F0D7E74021F5E74FF48071F2E7022178
:103B4000C6E748086062606878B302282ED0206D0E
:103B5000012800D00027FEF711F8B0F5005F2068BB
:103B600028D35A4A016811400160D4E911316068D4
:103B7000D4F84CC0184341EA0C01B4F824C00843FF
:103B800021683843D4E90536D4E90A8228432569F7
:103B90008E46096810431843304340EA0C5040EA0F
:103BA000080028430843714621E0FFE7206D012803
:103BB000D0D0D0E7464A016811400160D4E91162D3
:103BC0006068E16C3043B4F824800A431043D4E9C0
:103BD000056CD4E90A232168384328430D6818434B
:103BE000304340EA0C0040EA085010432843086084
:103BF00020686FF0FF01374A4EF20F064FF22007A0
:103C00004568B54345602068D4F81CC0266B4568FC
:103C100045EA0C05D4F834C046EA0C063543456045
:103C20002068856815408560D4E91850D4E916C22B
:103C3000666D10432268761E35432843956801EB74
:103C40000C2630432843906054F8680BC2683A4011
:103C5000C26094E8C100A58954F8682D01EB0721E2
:103C600041EA05413043D56808432843D0602068C5
:103C7000584501D0504518D1D9F8440020F0010131
:103C8000C9F8441094F8380001280ED1D4E90F1077
:103C90006FF00F0202EB01110843C9F84400D9F894
:103CA000440040F00101C9F844100020C4F8940019
:103CB000012184F8911084F89000A6E60458014090
:103CC00004540058045C01400460014010C005F039
:103CD00010C005F80080F8FF2DE9F0474E4907466F
:103CE000006800264D4D86B04D4C88424FF00208CA
:103CF0004FF006091ED1206878B9286840F480008A
:103D0000286028680022114600F4800005905720A2
:103D1000FDF7C6FF5720FDF7B5FF206874236946FD
:103D2000401C20600093CDE901863E48CDE903693F
:103D3000FDF708FE3C483968DFF8F0A0814220D149
:103D4000606878B9286840F400002860286800227C
:103D5000012100F4000005905B20FDF7A1FF5B202E
:103D6000FDF790FF60680A234FF400626946401C2B
:103D7000606000925046CDE90186CDE90363FDF70E
:103D8000E1FD2B49386888421ED1A06878B92868BF
:103D900040F08070286028680022022100F08070C6
:103DA00005907220FDF77CFF7220FDF76BFFA16884
:103DB0005046491CA160CDF800806946CDE90186D6
:103DC000CDE90369FDF7BEFD19483968203081420D
:103DD0001FD1A06878B9286840F0807028602868F2
:103DE0000022022100F0807005907220FDF758FF3C
:103DF0007220FDF747FFA1684FF400735046491C3D
:103E0000A16000936946CDE90186CDE90369FDF71C
:103E100099FD06B0BDE8F08704580140F04402580F
:103E2000DC00002400100258045C0140000C025821
:103E30000460014070B5044629B122B194F89100A4
:103E4000012802D036E0012070BD94F890000128CE
:103E500030D0A4F87C200025A4F87E200122A06C9C
:103E6000A167222184F89020C4F8945084F891101E
:103E7000402803D0802806D80F4805E0206B002892
:103E8000FAD10E4800E00E480121C4F88C0020460B
:103E900002F0F0F921680A6910430861206801689E
:103EA000C90303D4016841F480310160002084F823
:103EB000905070BD022070BDA76200085B630008CF
:103EC000F76200087047000070B5044629B122B1BE
:103ED00094F89100012802D039E0012070BD94F8D7
:103EE0009000012833D0A4F87C200025A4F87E207F
:103EF0000122A06CA167122184F89020C4F894508C
:103F000084F89110402803D0802806D8114805E095
:103F1000206B0028FAD1104800E01048C4F88C004B
:103F2000204602F067F90121204602F0A3F921683A
:103F30000A691043086120680168C90303D4016855
:103F400041F480310160002084F8905070BD02205F
:103F500070BD0000A16300084F640008EF63000813
:103F6000704700002DE9F047040029D0594A4FF06E
:103F700000092068584B594D9042C4F8289006D04B
:103F8000984204D0A84202D0E1680F2918D8E1680D
:103F90004FF0010AE76B0831C9080AEB5716714365
:103FA000904205D0984203D0A84201D0082907D8F2
:103FB000904203D0984201D0A84204D1102902D9DE
:103FC0000120BDE8F08794F8810020B9204684F8EC
:103FD000809000F085F8022084F881002068016854
:103FE00021F0010101602068A1698268B1F1806F50
:103FF00002F4F81110D16268B2F5800F01D01AB145
:104000000AE0A26B22B107E0A26BB2F1805F03D19C
:10401000026842F4805202606068400209D5E0689C
:10402000072806D32068236D026822F480721A43A1
:1040300003E02068026822F480720260A66AE069E8
:10404000E26B25683043E3680A4310431843A860D5
:10405000D4E90D02D4E90581636A25691843D4F8CF
:1040600020C00A43266810432843A56DD4E9017295
:10407000D4E9123140EA080040EA0C003843084312
:10408000104318432843F060606868B9206881686D
:1040900021F4C05141F4006181602068816821F4FD
:1040A000C06141F4806181602068016D21F00101EF
:1040B00001656068400206D52068626DC16821F024
:1040C00000411143C160C4F8849084F881A00020AD
:1040D00077E700000030014000380040003C00401D
:1040E0002DE9F041B6B00546142130A8FCF7FCFAE2
:1040F000C0216846FCF7F8FA3A49022628680527E5
:10410000364C0025DFF8D880884237D181141895C5
:104110000020CDE900106846FEF77CF908B1FCF7F5
:1041200099FC2E481030016841F48051016000680C
:1041300000F480503590206840F00800206020682E
:1041400000F008003590206840F0020020602068F0
:1041500032AA30A900F0020035908020CDE9300667
:1041600082E8E0002048FDF7EDFB082032AACDE907
:10417000300630A9404682E8E00029E01B49884229
:1041800028D1811418950020CDE900106846FEF76B
:1041900041F908B1FCF75EFC10480830016841F4B1
:1041A00080410160006800F480403590206840F054
:1041B0000200206020680121349700F00200359051
:1041C0004FF40440CDE93251CDE9300630A94046E4
:1041D000FDF7B8FB36B0BDE8F0810000E0440258BE
:1041E0000004025800300140000C02580038004022
:1041F0002DE9FC5F0446006817468A46002199466F
:1042000094F8802000F1200B0191012A0DD04FF08D
:10421000010884F88080FDF7B7FC064694F8810019
:104220000025012804D0022034E00220BDE8FC9FD4
:10423000BAF1000F2DD067B3A1680320C4F85CA0C9
:10424000A4F8607084F88100C4F88450A4F8627007
:104250006566A4F86850A4F86A50B1F5C02F656788
:104260002567206819D0C16821F4C02141F40031CC
:10427000C160206841686FF30F01394341602068D5
:10428000016841F0010101606068B0F5800F09D05C
:104290000DE0012084F88050C8E7016841F4006116
:1042A0000160E6E72068016841F400710160E068A0
:1042B0000F281CD820E02068416989070BD5E16DE3
:1042C00009680162E06D001DE065B4F86200401EFF
:1042D000A4F862000BE0FDF757FC811B494503D3AE
:1042E000B9F1FF3F03D099E0B9F1000F30D0B4F835
:1042F00062000028DFD177E007282DD870E0206821
:10430000416989071CD5B4F8621001290BD9E16B0A
:1043100049B1E16D09680162E06D001DE065B4F826
:104320006200801E09E0E06D0188ABF80010E06DCE
:10433000801CE065B4F86200401EA4F862000BE047
:10434000FDF722FC811B494503D3B9F1FF3F03D0A0
:1043500064E0B9F1000F61D0B4F862000028CED15A
:1043600042E02068416989072ED5B4F8621003291C
:104370000CD9E16B402909D9E16D09680162E06D52
:10438000001DE065B4F86200001F1AE0B4F8621086
:1043900001290CD9E16B51B1E06D0188ABF8001037
:1043A000E06D801CE065B4F86200801E09E0E16DFC
:1043B000097880F82010E06D401CE065B4F86200D8
:1043C000401EA4F862000BE0FDF7DEFB811B4945AF
:1043D00003D3B9F1FF3F03D020E0B9F1000F1DD0A6
:1043E000B4F862000028BCD100224B4608212046C8
:1043F000009602F0ADF828B1D4F8840040F0200017
:10440000C4F88400204602F044F884F88180D4F88F
:10441000840084F8805080B1012007E7204602F034
:1044200038F8D4F8841084F8805041F48071C4F8CE
:10443000841084F881800320F8E60198F6E6401E97
:10444000B0F1807F10B501D3012010BD4FF0E02402
:1044500060610F21601704F0E1FC0020A0610721DA
:10446000216110BD7047704770470000F0B590F8AB
:104470003C20012A3BD01F4E012480F83C40022200
:1044800080F83D2002681C4D5368B242D2F808C043
:1044900001D0AA4203D14F6823F470033B430F6855
:1044A00023F070031F4357600268B24213D0B2F189
:1044B000804F10D0114B9A420DD0114B9A420AD026
:1044C000104B9A4207D0AA4205D00F4B9A4202D015
:1044D0000E4B9A4204D189682CF0800319439160F5
:1044E000002180F83D4080F83C100846F0BD0220D5
:1044F000F0BD000000000140000401400004004045
:1045000000080040000C004000180040004001403E
:1045100010B5040003D094F83D0010B107E001206D
:1045200010BD002084F83C00204600F023F8022053
:1045300084F83D002068211D03F054FE012084F81A
:10454000480084F83E0084F83F0084F8400084F876
:10455000410084F8420084F8430084F8440084F861
:10456000450084F8460084F8470084F83D000020A8
:1045700010BD000008B501681048B1F1804F0BD0A4
:104580000F4A914207D1016841F0020101600068C1
:1045900000F00200009008BD016841F001010160D7
:1045A00000680022032100F0010000901C20FDF7AC
:1045B00077FBBDE808401C20FDF764BBE8440258C7
:1045C0000004004090F83D10012901D001207047FF
:1045D000174A022180F83D100168CB6843F00103BF
:1045E000CB600068904214D0B0F1804F11D01149D7
:1045F00088420ED0104988420BD01049884208D01A
:104600000F49884205D00F49884202D00E4988429E
:1046100007D181680D4A1140062906D0B1F5803FC7
:1046200003D0016841F001010160002070470000E3
:10463000000001400004004000080040000C004061
:104640000004014000180040004001400700010044
:1046500070B5044690F83C000025012814D03A4B70
:10466000012684F83C60022084F83D0022689068AE
:10467000184020F47F409060086870282FD010DC2C
:1046800010F00F0F03D022E04FF0020070BD4FEA90
:104690002012072A1BD2DFE802F0535353534B3941
:1046A0004100B0F1101F4BD009DCB0F5805F0FD096
:1046B000B0F5005F1ED0B0F5801F08D140E0A0F536
:1046C000801120393CD010293AD0202938D001253A
:1046D00084F83D60002084F83C00284670BD4A689C
:1046E0002068D1E9021303F0ECFD2068816841F0F5
:1046F000770109E04A682068D1E9021303F0E1FD7F
:104700002068816841F480418160E1E7CA684968B6
:10471000206803F085FF2068502106E0CA684968D8
:10472000206803F08EFF2068602103F0D3FDCFE7FF
:10473000CA684968206803F073FF20684021F4E7E5
:10474000226801461046F0E788FFCEFF2DE9F041D0
:1047500004000D4603D094F83D0018B108E0012094
:10476000BDE8F081002084F83C00204600F04CF8C1
:10477000244A022084F83D0020688168114081604D
:104780002068211D03F02EFD226840F20336AF6938
:1047900040F60C4C2B684FF2F00EA86891680B4362
:1047A0009169B14341EA07210843D5E9031720EA9B
:1047B0000C00D5E9076C20EA0E00D2F820E03F019A
:1047C00040EA062668686D69314347EA0C37936012
:1047D00023680F4301219F612EF0AA0242EA0513CC
:1047E00022681843106284F8481084F83E1084F858
:1047F0003F1084F8441084F8451084F83D100020E0
:10480000AEE70000F8BFFEFF10B586B004461421E5
:104810006846FBF769FF17492068884227D1164888
:10482000016841F002010160006800F0020005909B
:1048300011481038016841F0040101600068032349
:10484000C02100F00400059000200091022269467A
:10485000CDE90120CDE903030848FDF773F80022F4
:1048600006212C20FDF71CFA2C20FDF70BFA06B0D0
:1048700010BD000000040140F04402580008025836
:10488000704770B50446006800250169C94389076F
:1048900015D4C168C943890711D4EA1E02610121F8
:1048A0002177206880698007204602D0FFF7E8FF63
:1048B00004E000F0CFF8204600F091F92577206859
:1048C0000169C943490717D4C168C943490713D4CB
:1048D00002216FF00402026121772068806910F4E0
:1048E000407F204602D0FFF7CBFF04E000F0B2F893
:1048F000204600F074F9257720680169C94309074B
:1049000016D4C168C943090712D404216FF0080204
:10491000026121772068C0698007204602D0FFF736
:10492000AFFF04E000F096F8204600F058F9257734
:1049300020680169C943C90617D4C168C943C906BB
:1049400013D408216FF01002026121772068C0693A
:1049500010F4407F204602D0FFF792FF04E000F001
:1049600079F8204600F03BF9257720680169C943B2
:10497000C90708D1C168C943C90704D1891E0161AB
:10498000204600F0B5F920680169C943090609D439
:10499000C168C943090605D46FF080010161204652
:1049A000FFF761FD20680169C943C90509D4C168E1
:1049B000C943090605D46FF4807101612046FFF7F1
:1049C00051FD20680169C943490609D4C168C9433A
:1049D000490605D46FF040010161204600F089F9D5
:1049E00020680169C94389060BD4C168C943890697
:1049F00007D46FF0200101612046BDE87040FFF749
:104A000033BD70BD10B586B0044614216846FBF76F
:104A10006BFE0D492068884214D10C48016841F0B2
:104A20000201016000680021202200F002000590D0
:104A300002200092CDE90101CDE903100448694646
:104A4000FCF780FF06B010BD00040040E0440258AF
:104A500000040258704770B5044690F83C000026E8
:104A60000D4601280BD0012084F83C000C2A4AD0C6
:104A700007DC82B1042A20D0082A06D131E00220C6
:104A800070BD102A53D0142A63D00126002084F868
:104A90003C00304670BD206803F026FC2068816928
:104AA00041F0080181612068816921F00401816180
:104AB00020682A698169114311E0206803F068FCCD
:104AC0002068816941F4006181612068816921F475
:104AD0008061816120682969826942EA01218161DE
:104AE000D4E7206803F0A0FC2068C16941F0080108
:104AF000C1612068C16921F00401C16120682A698F
:104B0000C169114311E0206803F0DAFC2068C16933
:104B100041F40061C1612068C16921F48061C16113
:104B200020682969C26942EA0121C161AEE72068B3
:104B300003F002FD2068416D41F0080141652068E5
:104B4000416D21F00401416520682A69416D1143DE
:104B500011E0206803F02AFD2068416D41F40061F6
:104B600041652068416D21F48061416520682969B3
:104B7000426D42EA0121416588E710B5040003D087
:104B800094F83D0010B107E0012010BD002084F82A
:104B90003C00204600F022F8022084F83D00206806
:104BA000211D03F01FFB012084F8480084F83E001B
:104BB00084F83F0084F8400084F8410084F8420003
:104BC00084F8430084F8440084F8450084F84600E3
:104BD00084F8470084F83D00002010BD70477047FE
:104BE00030B504464FF0020269B1042912D00829F9
:104BF00017D00C291CD0102921D094F8430001288B
:104C000024D0012030BD94F83E000128F9D184F869
:104C10003E201DE094F83F000128F2D184F83F20A7
:104C200016E094F840000128EBD184F840200FE012
:104C300094F841000128E4D184F8412008E094F878
:104C400042000128DDD184F8422001E084F84320AD
:104C50000122206803F028FB1B4B20681B491C4ADB
:104C6000984209D0884207D0904205D0194DA842F9
:104C700002D0194DA84203D1456C45F40045456466
:104C80002068984212D0B0F1804F0FD0134B984259
:104C90000CD0134B984209D0124B984206D0884250
:104CA00004D01149884201D0904207D181680F4A4F
:104CB0001140062906D0B1F5803F03D0016841F0CC
:104CC00001010160002030BD0000014000040140EE
:104CD0000040014000440140004801400004004001
:104CE00000080040000C00400018004007000100D0
:104CF0007047704730B590F88410012918D0012210
:104D000080F884202421C0F8881000222024016823
:104D10000B680D6823F0005325F001050D60426615
:104D200001680B60C0F8884080F88420104630BDD0
:104D3000022030BD7047704770B5044690F884007B
:104D400001281DD0012284F884202420C4F8880082
:104D500020680568026822F001020260206882680B
:104D600022F060620A438260204603F0AFFC2268B2
:104D7000202100201560C4F8881084F8840070BDDC
:104D8000022070BD70B5044690F8840001281DD043
:104D9000012284F884202420C4F888002068056853
:104DA000026822F0010202602068826822F06042FC
:104DB0000A438260204603F089FC226820210020FB
:104DC0001560C4F8881084F8840070BD022070BD9E
:104DD00070477047704700002DE9F04107680025D3
:104DE000044640F60F030226F8693968BA6818428B
:104DF0000AD183067ED501F0200302F0805C53EADD
:104E00000C0377D0616F74E1CF4BDFF840C31340E0
:104E100001EA0C0C53EA0C0C6CD05FEAC07C0CD09D
:104E20005FEAC15C09D54FF0010CC7F820C0D4F887
:104E3000907047F00107C4F89070870709D5D7072D
:104E400007D027683E62D4F8906046F00406C4F8A4
:104E5000906046070AD5D60708D0276804263E6228
:104E6000D4F8906046F00206C4F8906006070CD5AE
:104E700001F020061E4308D0266808233362D4F8C8
:104E8000903043F00803C4F8903003050BD54B0174
:104E900009D526684FF400633362D4F8903043F0AC
:104EA0002003C4F89030D4F89030002B3DD0800619
:104EB00009D501F0200002F08051084303D0616F52
:104EC00009B1204688472168D4F8900089684906CE
:104ED00002D410F0280F2AD0204603F0DDFC206811
:104EE000806840061ED52068083050E8001F21F079
:104EF000400100E021E040E80012002AF3D1D4F89C
:104F0000800078B192490165D4F88000FCF7C6FBB7
:104F100000280AD0D4F88000016D00E02046BDE8EA
:104F2000F04108472046FFF755FFBDE8F0812046D5
:104F3000FFF750FFC4F89050F7E7D4F86CC0202377
:104F4000BCF1010F7ED15FEAC06C7BD55FEAC16C1A
:104F500078D51020386220688068400673D5D4F870
:104F600080107C4A0868904234D07A4A18329042C5
:104F700030D0784A303290422CD0764A4832904233
:104F800028D0744A6032904224D0724A78329042DB
:104F900020D0704A903290421CD06E4AA832904283
:104FA00018D06D4A904215D06B4A1832904211D0F9
:104FB000694A303290420DD0674A4832904209D057
:104FC000654A6032904205D0634A7832904201D0FF
:104FD000614A903240680004000CA6D0B4F85C200E
:104FE0008242A2D9A4F85E00C869B0F5807F2FD0B4
:104FF000216851E8000F20F4807041E80002002A87
:10500000F6D12068083050E8001F21F0010140E887
:105010000012002AF5D12068083050E8001F21F066
:10502000400140E80012002AF5D1C4F88C30E56652
:10503000216851E8000F20F0100041E80002002A2A
:10504000F6D101E040E00BE0D4F88000FCF776F9FF
:105050002667B4F85C00B4F85E10401A81B22FE005
:10506000B4F85C00B4F85E10B4F85E20401A81B267
:10507000002AB2D00029B0D0226852E8000F20F4F4
:10508000907042E80007002FF6D1344F206800F1FD
:10509000080050E8002F02EA070240E8002CBCF1AB
:1050A000000FF3D1C4F88C30E5666567206850E8DE
:1050B000002F22F0100240E80023002BF6D12667D3
:1050C0002046FFF737FE30E7C60209D5560207D55E
:1050D0004FF4801038622046BDE8F041FFF779BEFA
:1050E00006060AD501F0800602F40002164304D039
:1050F000A16F00297FF412AF17E7420611D54A06C7
:105100000FD52046026852E8001F21F0400142E816
:105110000014002CF6D1C0F88830856700F046F9FD
:1051200003E7020206D54A0004D52046BDE8F04157
:10513000FFF74EBEC001C6D50029C4DA2046BDE83F
:10514000F041FFF7F8BD000001000010200100044D
:10515000838800081000024010040240FEFFFFEFA9
:1051600010B5040003D0D4F8880010B107E0012086
:1051700010BD002084F88400204600F027F8242089
:10518000C4F888002068016821F001010160204610
:1051900003F0ACFB0128EBD0A06A10B1204603F06D
:1051A000B7FA2068416821F4904141602068816825
:1051B00021F02A0181602068016841F0010101604D
:1051C0002046BDE8104003F007BB0000F0B5B7B0C3
:1051D0000446142130A8FBF787FAC0216846FBF784
:1051E00083FA43490226206800243F4D3F4F8842FE
:1051F0002FD100201E940221CDE900106846FDF752
:1052000009F908B1FBF726FC37480830016841F47A
:1052100080110160006800F480103590286840F02B
:105220000200286028680E2100F0020035904FF43B
:1052300040503090CDE93164CDE9334130A9384652
:10524000FCF780FB002203213520FCF729FD3520E7
:1052500045E02849884244D100201F940121CDE92E
:1052600000106846FDF7D6F808B1FBF7F3FB1E48BF
:105270001030016841F010010160006800F010007A
:105280003590286840F002002860286800F002008D
:105290003590286840F0010028602868042100F05B
:1052A000010035904FF480403090CDE93164CDE974
:1052B000334130A93846FCF745FB07214FF48060A5
:1052C0003090CDE93164CDE933410B4830A9FCF78A
:1052D00039FB002205212520FCF7E2FC2520FCF704
:1052E000D1FC37B0F0BD0000E04402580004025881
:1052F0000050004000100140000002582DE9F84322
:105300000446D0F88800984616460D46202802D05C
:105310000220BDE8F883A5B19EB10021C4F8901029
:105320002120C4F888001834FCF72EFC814654F87C
:10533000100CA687E6872027183CB0F5805F02D0C6
:1053400003E00120E5E7206910B12E46002510E0BA
:1053500000260EE08021204603F09EFCC0B9DEB19D
:1053600016F8010B21688862B4F85600401EA4F8B4
:105370005600B4F856004B464FF00002CDF80080BE
:105380000028E7D14FF04001204603F085FC48B1EA
:10539000C4F888700320BCE735F8020B2168C0F31D
:1053A0000800E0E7C4F888700020B2E77047FEE725
:1053B0002DE9FC4F5FEA000E4FF0FF00DFF84CA133
:1053C000C1F10C07A2F109054FF01006A2F101048A
:1053D0004FF0010320FA07F706FA05FB0AF14C0922
:1053E00003FA04F307F0F0050195C1F1080C9AF8EF
:1053F0000550DEB299F8023020FA0CF400931CD06C
:105400000F274FF0010CC1F10C08A2F1090327FA94
:1054100008F70CFA03FCBEF1010F2AD04B46BEF18F
:10542000020F93F805804B4644D0092908F0F00894
:1054300083F8058057D21C715AE0009F09294B461A
:1054400007F00F0789F8027001D21C7003E0019980
:1054500018700F439F704AB1092A02D289F8006080
:1054600004E0987840EA0B0089F8020045F0050155
:105470001CE0DDF8008009294B4608F0F00889F8A7
:10548000028001D25C7004E0587048EA070883F893
:1054900002804AB1092A02D289F8016004E09878B2
:1054A00040EA0C0089F8020045F006018AF8051070
:1054B000BDE8FC8F092908F00F075F7101D2DC708D
:1054C00003E00199D8700F435F714AB1092A02D2F3
:1054D00089F8036004E0587940EA0B0089F8050078
:1054E00045F02801E2E7187148EA070883F80580CB
:1054F0004AB1092A02D289F8046004E0587940EAE6
:105500000C0089F8050045F03001CFE72C0000249D
:105510008068C0F3C00070478068C0F380007047A7
:105520008068C0F38000704710B5042404EAD154A9
:105530000723C1F3045120448B408A4041699943B9
:105540001143416110BD00003E48F8B500240470CD
:1055500044708470C470047144718471C4712046B5
:1055600000F076F8012000F073F8022000F070F8E7
:10557000032000F06DF8042000F06AF8052000F028
:1055800067F8062000F064F8072000F061F82E4E5E
:105590004FF48045002229463046FCF7E9FAFF2007
:1055A0008DF800000C2129480A238DF801100122F2
:1055B0006946FEF71DFE012229463046FCF7D8FA5F
:1055C000002229463046FCF7D3FA07208DF8000068
:1055D0000B211E480A238DF8011001226946FEF7AF
:1055E00007FE012229463046FCF7C2FA002229466E
:1055F0003046FCF7BDFA05208DF800000A2113485B
:1056000001220B468DF801106946FEF7F1FD0122DB
:1056100029463046FCF7ACFA002229463046FCF712
:10562000A7FA8DF8004009208DF801000A230748E9
:1056300001226946FEF7DCFD012229463046FCF7CF
:1056400097FAF8BD78000024001002585C06002488
:1056500038B50A4CA204411CA261094A0A23105C15
:1056600001228DF8000007488DF801106946FEF709
:10567000BFFD4FF48040A06138BD0000001002580B
:10568000780000245C06002430B58BB00024684606
:105690001C21079408940994FBF726F81C4804255C
:1056A0001A4908220123E0E8021480E83400047358
:1056B000447303610475C461046244628462C46219
:1056C00080F830401248FBF74BFC08B1FBF7C2F9F9
:1056D0000F4807A90794FBF7BFF908B1FBF7BAF920
:1056E0000C48062140F2FF7203928DE8130008482F
:1056F0006946CDE904548DF81940FBF741FA0028BA
:1057000001D0FBF7A7F90BB030BD0000002002402C
:10571000AC0200240000B84F30B587B01C216846A9
:10572000FAF7E2FF1848002416490425082201234D
:10573000E0E8021480E834000473447303610475E4
:10574000C461046244628462C46280F830400E48DE
:10575000FBF706FC08B1FBF77DF90C48062140F287
:10576000FF7203928DE8130007486946CDE904549F
:105770008DF81940FBF704FA002801D0FBF76AF90D
:1057800007B030BD00210240100300240000844B0C
:105790002DE9F04F87B014216846FAF7A5FF70484D
:1057A000016841F010010160016801F010010591EC
:1057B000016841F004010160016801F004010591F4
:1057C000016841F080010160016801F080010591EC
:1057D000016841F001010160016801F001010591DA
:1057E000016841F002010160016801F002010591C8
:1057F000016841F00801016000680022594E42F240
:10580000070100F0080005903046FCF7B1F9564F4B
:10581000002201213846FCF7ABF9DFF850A1002245
:105820004FF4A2415046FCF7A3F9DFF844B100223F
:1058300060215846FCF79CF94E4800221021FCF7E5
:1058400097F94C4801224021FCF792F900244FF0CF
:105850000809694650460294CDE90094FCF772F8B5
:105860000125694668030090CDE901543046039450
:10587000FCF768F807206946CDE900050220CDE96C
:1058800002403046FCF75EF800956946CDE90154C8
:1058900038460395FCF756F840260096CDE90145B9
:1058A00069463846FCF74EF84FF080086946CDE966
:1058B000008438460294FCF745F840F60400694637
:1058C0008DE831002B48FCF73DF84FF488506946CD
:1058D000CDE90005CDE902455046FCF733F8032732
:1058E0006946A803CDE90005CDE902475046FCF71B
:1058F00029F8CDE90094694658460294FCF722F84D
:1059000020206946CDE90005CDE902475846FCF75D
:1059100019F800966946CDE9015458460395FCF7FD
:1059200011F810206946CDE900051248CDE902457D
:10593000FCF708F80397694600960E48CDE9015434
:10594000FCF700F80B486946CDE900840294FBF7A8
:10595000F9FF1020FCF71EF907B0BDE8F08F00003A
:10596000E044025800080258000002580010025893
:10597000000C0258000402581C4800212DE9F04197
:10598000194C0122046080234164540383644AF665
:10599000444341601604C0E9131281609704C0E9D2
:1059A0000541C0E90713C162140201632025C260EA
:1059B0004023416380F83810C26302220464032448
:1059C000C0E9176100F16C06C0E9197186E816009C
:1059D000C0E91535FDF7CAFF002803D0BDE8F04146
:1059E000FBF738B8BDE8F081045801407403002487
:1059F0001A4800212DE9F041174C8025046002224D
:105A000042600123C0E91115140344618260D4018E
:105A1000C0E91313C161D703C1624FF4802C016345
:105A200020264163402580F83810C0E90F3400F18A
:105A30006C04C0E917710323C0E919C184E80E00A2
:105A4000C0E91556FDF792FF002803D0BDE8F041EC
:105A5000FBF700B8BDE8F081045C01400C040024B1
:105A60002DE9F05F30484FF0800A2E4900244FF0B6
:105A700001094FF040084FF4005B4B4601600226DD
:105A8000C0E9114AC0F814B00325C0E91349C46144
:105A90002021C46200F1580C0463CA024463CF00A1
:105AA000C0E9015680F83840C0F854808CE81600F0
:105AB000446645678466C0E90F37C0E91B46FDF7B9
:105AC00055FF08B1FAF7C6FF17484FF4803C154B55
:105AD000494698302033C0E9114AC0E91349C461EE
