:020000040800F2
:10000000980D0424B10200085DE4000829B400083A
:10001000C9E00008050D0008096E01080000000095
:10002000000000000000000000000000B7190108F7
:10003000992200080000000095EA0008FD3301083D
:10004000CB020008CB020008CB020008CB0200085C
:10005000CB020008CB020008CB020008CB0200084C
:10006000CB020008CB020008CB020008CB0200083C
:10007000CB020008CB020008CB020008CB0200082C
:10008000CB020008CB020008CB020008CB0200081C
:10009000CB020008CB020008CB020008CB0200080C
:1000A000CB020008CB020008CB020008CB020008FC
:1000B000D5350108A5570108CB020008CB0200087E
:1000C000CB020008CB020008CB020008CB020008DC
:1000D0000518010825660108CB020008CB020008BC
:1000E000CB020008CB02000800000000CB02000891
:1000F000CB020008CB020008CB020008CB020008AC
:10010000CB020008CB020008CB020008CB0200089B
:10011000D15C0108CB020008CB020008CB0200082A
:100120006D1D0008791D0008CB020008CB020008F5
:10013000CB020008CB020008CB020008CB0200086B
:1001400000000000000000000000000000000000AF
:10015000CB020008CB020008CB020008CB0200084B
:10016000CB020008CB020008CB020008CB0200083B
:10017000CB020008CB020008CB0200080000000000
:10018000CB020008CB020008415D0108CB02000849
:10019000CB020008CB020008CB02000849F9000896
:1001A000CB020008CB020008CB020008CB020008FB
:1001B000CB020008CB020008CB020008CB020008EB
:1001C000CB020008CB020008CB020008CB020008DB
:1001D000CB020008CB020008CB020008CB020008CB
:1001E000CB020008CB020008CB020008CB020008BB
:1001F000CB020008CB020008CB020008CB020008AB
:10020000CB020008CB020008CB020008CB0200089A
:10021000CB020008CB020008CB020008CB0200088A
:10022000CB020008CB020008CB020008000000004F
:10023000CB020008CB02000800000000CB0200083F
:10024000CB020008CB020008CB020008CB0200085A
:10025000CB020008CB020008CB020008CB0200084A
:10026000CB020008CB020008CB020008CB0200083A
:10027000CB020008CB020008CB02000800000000FF
:10028000CB020008CB020008CB02000800000000EF
:1002900000000000CB020008DFF810D000F0C4F925
:1002A00000480047C9C70108AFF30080980D042437
:1002B0000648804706480047FEE7FEE7FEE7FEE700
:1002C000FEE7FEE7FEE7FEE7FEE7FEE7ED340108A6
:1002D000990200082DE9F05F0546002092469B46F2
:1002E00088460646814640241BE02846414647464C
:1002F000224600F0F4F853465A46C01A914110D3F2
:1003000011461846224600F0DBF82D1A67EB01086B
:100310004F4622460120002100F0D2F817EB0009D9
:100320004E41201EA4F10104DFDC484631462A4636
:100330004346BDE8F09F40EA01039B0703D009E074
:1003400008C9121F08C0042AFAD203E011F8013BC1
:1003500000F8013B521EF9D27047D2B201E000F81A
:10036000012B491EFBD270470022F6E710B5134659
:100370000A4604461946FFF7F0FF204610BD2DE956
:10038000FE4F81EA030404F0004421F00041009490
:100390004FF0000B23F0004350EA01045ED052EA14
:1003A00003045BD0C3F30A54C1F30A552C44A4F2EE
:1003B000F3340194A0FB0254C1F3130141F4801102
:1003C000C3F3130343F4801301FB024400FB034E09
:1003D000840A970A44EA815447EA8357A4FB0768D2
:1003E00002958D0A05FB07854FEA932C04FB0C54FC
:1003F0002705029D4FEA065847EA1637B5EB080570
:100400006EEB070C870E920E47EA811742EA8312C1
:10041000A7FB0201B6EB0B0164EB00042B0D43EAD2
:100420000C335E1844EB1C50DA465146E7FB0201E0
:10043000C5F313044FEA0B3343EA14534FEA043273
:10044000019C43EA0603A4F10C040294009CCDE94C
:1004500000B400F09AF803B0BDE8F08F0020014628
:10046000F9E700F0004230F000400AD0C10D01F57C
:100470006071C0F3160042EA0151C20840071143FF
:10048000704700200146704701F0004330B421F06E
:10049000004150EA010206D00A0DA2F56072C1F3D4
:1004A0001301002A02DC30BC00207047440F44EAEC
:1004B000C104C100E01830BC00EBC25000F01FB80E
:1004C000202A04DB203A00FA02F100207047914014
:1004D000C2F1200320FA03F3194390407047202A09
:1004E00004DB203A21FA02F00021704721FA02F3DE
:1004F000D040C2F1200291400843194670470029BC
:10050000A8BF7047401C490008BF20F00100704799
:1005100010B4B0FA80FC00FA0CF050EA010404BFF9
:1005200010BC704749B1CCF1200421FA04F411FA4F
:100530000CF118BF012121430843A3EB0C01CB1D93
:100540004FEA00614FEA102042BF002010BC704704
:1005500000EBC35010440029A4BF10BC7047401CDE
:10056000490008BF20F0010010BC704710B5141EF0
:1005700073F1000408DA401C41F1000192185B415C
:100580001A4301D120F0010010BD2DE9F04D924633
:100590009B4611B1B1FA81F202E0B0FA80F220324A
:1005A0009046FFF78DFF04460F4640EA0A0041EAF5
:1005B0000B0153465A46084313D0114653EA010033
:1005C00019D0C8F140025046FFF789FF05460E4694
:1005D000504659464246FFF773FF084305D00120B5
:1005E00004E020463946BDE8F08D0020054346EA88
:1005F000E0762C4337430A986305E40AA0EB080031
:100600000022FD0A44EA47540A3002D50020014680
:10061000E9E7010510196941DDE90845001969415B
:10062000BDE8F04DA2E70000064C074D06E0E0688B
:1006300040F0010394E8070098471034AC42F6D329
:10064000FFF72EFE4C1802086C18020870B58C18C3
:1006500010F8015B15F0070301D110F8013B2A11D6
:1006600006D110F8012B03E010F8016B01F8016BC3
:100670005B1EF9D12B0705D40023521E0DD401F8BF
:10068000013BFAE710F8013BCB1A921C03E013F888
:10069000015B01F8015B521EF9D5A142D8D30020BD
:1006A00070BD000010B582B0044600F0FBF90346AF
:1006B00000F0E8F902460194002000900748DFF8B6
:1006C00020C0406800EB800101EBC0010CEB810110
:1006D000C96D0AF0C3FE02B010BD0000640700241B
:1006E0003CF2032430B4DFF830C00A4BDCF804C01D
:1006F00003EBCC035B685C79D3F800C01B79DB1D8E
:10070000DB08203A03FB02F204FB02C230BC01F01A
:10071000D7BE00004CF30324640700242DE9FF5FDB
:10072000044615460022681C2978002904D0521C72
:1007300010F8011B0029FAD100F0A4F93D4FDFF8B1
:10074000F080796808EBC10149680979B0FBF1F0E4
:1007500001264FF0000C072B2BD2DFE803F02A1FF5
:100760001504090D110087F800C04FF4F07624E05D
:100770003E704FF4F07620E03E704FF485761CE03A
:100780003E704FF4CF7618E0801A00FB01F0001B9A
:1007900084B287F800C04FF4F0760EE0801A00FBB8
:1007A00001F004EB500084B287F800C04FF4F076FB
:1007B00003E087F800C04FF4F076601E47F6FF7143
:1007C000884200D30124DFF87490DFF86CB009F19F
:1007D0005F0A1EE001992046FFF784FF786808EB66
:1007E000C0004068584506D12878A11C10F80900BF
:1007F000084484B20CE01249884206D12878611C72
:1008000010F80A00084484B202E00079204484B25F
:100810006D1C2A78002A07D07968301B08EBC101CB
:10082000496809798842D5DA04B0BDE8F09F000034
:100830004CF30324640700246C07002416130208F9
:100840007407002410B582B003460F48C1EB0111B4
:100850000E4C03EB4111406800EB800C0CEBC00C1C
:1008600004EB8C0CDCF85CC00CEB41014FF0000C8D
:1008700004F5887333F83030CDF800C001930123BC
:100880000AF0ECFD02B010BD640700243CF2032422
:100890002DE9F04F82B004468C460027101B00283B
:1008A00000DCA01A00B2A3EB0C01002901DCACEBC8
:1008B000030109B225B20FFA8CF6A24203D34FF01E
:1008C0000109CA4602E04FF0FF39CA46634504D326
:1008D0004FF0010B0122019203E04FF0FF3B5A461B
:1008E000019288420ADB4FF000090022019200EBDE
:1008F000D072521014B20091804608E04FF0000A06
:10090000D34601EBD172521014B2009088465FEAD0
:10091000080020D412491148496830F83120B1B29A
:10092000A8B200F01FF80098204404B2444508DB48
:10093000A4EB080004B205EB090005B206EB0B00BE
:1009400006B205EB0A0005B20198304406B2781CE5
:1009500007B24745DEDD02B0BDE8F08F4CF303245B
:100960006407002410B503460C4600F08BF804FB26
:1009700000310648406800EB800303EBC000044BE5
:1009800003EB8000C06D20F8112010BD6407002427
:100990003CF203242DE9F04106460C4617461D465D
:1009A0003A4621463046FFF74DFF60193A46401E51
:1009B00081B23046FFF746FF3046EAB2E1B200F0BE
:1009C00009F8F019EAB2E1B2BDE8F041401E80B288
:1009D000AFF3008030B583B005460C4600F052F806
:1009E00000FB04510E4C606800EB800303EBC00079
:1009F0000C4B03EB8000C06D00EB410500F042F8AA
:100A00000949A0F1010C60681346012231F8304019
:100A10002946CDF800C001940AF020FD03B030BD96
:100A2000640700243CF203244CF3032430B583B064
:100A300005460C4600F026F800FB04510E4C606899
:100A400000EB800C0CEBC000DFF830C00CEB80003A
:100A5000C06D00EB410500F015F80949A0EB020C50
:100A6000606831F83010CDF800C0019129460AF0D5
:100A7000F5FC03B030BD0000640700243CF2032401
:100A80004CF303240548406800EB800101EBC000F3
:100A9000034901EB8000006E7047000064070024EA
:100AA0003CF203240548406800EB800101EBC000E4
:100AB000034901EB8000406E70470000640700248A
:100AC0003CF2032410B51A485D2141611021816177
:100AD0006321C16112210162FB21816240F2432145
:100AE0004162FE2101634FF41B71C1624FF4F0714A
:100AF0000166E9214166002180F8341080F8351044
:100B000080F8361041608160C1600161094901606F
:100B100005F024F818B90648002100F049F8044807
:100B200005F020F8044800F06FF8002010BD000028
:100B30003CF20324001000506C07002410B58EB066
:100B40000446002301934FF4F07002900393E922CE
:100B500004924FF0030CCDF814C00A91FF210691C6
:100B600007938DF834308DF835308DF836304FF4EA
:100B7000C0610891072109910B900C9201A90948C5
:100B8000224604F0ADFF08484FF6FF7200EBC401A7
:100B90004A80064A4A604FF4004120F834100EB0F3
:100BA00010BD00003CF203244CF303246C07002426
:100BB00081B00A48016841F008010160006800F056
:100BC000080000900648016841F0100101600068CB
:100BD00000F01000009001B070470000E44402589B
:100BE000D44402580149486070470000640700245B
:100BF000044A0349526801EBC20148807047000073
:100C00004CF3032464070024044A0349526801EBAF
:100C1000C2014860704700004CF3032464070024BD
:100C2000034A0249526821F8320070474CF303240A
:100C3000640700240246014805F090B83CF2032402
:100C400010B501240348202104F0D4FE00B900248B
:100C5000204610BD000C02580146014808F076BA43
:100C600020ED032410B5044808F082FA042801D0CE
:100C7000012010BD002010BD20ED032410B500F0B0
:100C800015F8012801D0022010BD074808F0F6FA37
:100C9000044634B904484FF4804108F0C9F800B163
:100CA0000124204610BD000020ED032408B50120DA
:100CB0000090FFF7C5FF08B9002000909DF80000E4
:100CC00008BD000038B50024009313460A460146CB
:100CD000034808F0F7FB00B10124204638BD0000AE
:100CE00020ED032438B50024009313460A4601463C
:100CF000034808F0FBFC00B10124204638BD000089
:100D000020ED0324FEE700002DE9F05F0446DFF844
:100D1000CC804FF4937158F8240000FB01F0054695
:100D20006FF30C05A8F58279A8F58077A8F5B67A57
:100D300039F81410A8F1300B07F1C806B1EB553F94
:100D40000CD837F81410B1EB553F07D946F82400FA
:100D50001AF8041009B34BF8240031E02C2034B108
:100D600000EB85011E4817F072F8B8B128E000EBDF
:100D700085011C4817F06BF878B9680B3880A9F822
:100D800000004FF49371D8F8000000FB01F03060D0
:100D90009AF8001009B1CBF8000011E0680B27F8B1
:100DA000140029F8140058F824004FF4937100FB44
:100DB00001F046F824001AF8041009B14BF8240099
:100DC00009480A49005DC0F18000C0B2085501F52C
:100DD0009571400341F82400BDE8F09FEC01002428
:100DE0003C1900240C090024CC000024CA00002473
:100DF0002DE9F04F95B058A010AC90E80E100069A6
:100E0000A4E80E10149004F009FE06464FF47A7A16
:100E1000B6FBFAF10AFB116000EBC00101EB4010D8
:100E2000000B30308DF84A0050493046A1FB0021BC
:100E30006FF01802490901FB02F106EB81004C49F1
:100E4000A1FB0020C00830308DF84B003046A1FBDC
:100E50000021C908494201EB810106EB4100303015
:100E60008DF84C004348062210A917F07DF9DFF8F1
:100E7000088188F8370020B115B04FF6FF70BDE843
:100E8000F08F3E4B46223E493A4817F0A1FB0A201C
:100E900004F078FB00243B4F0125E94600214FEA8E
:100EA000841B0BEB8100C219D2F8C029A0F180404D
:100EB0000068130C5FEAD33C21D005EB410C29F804
:100EC0001C3092B2D30B20D029F82120481CC1B28B
:100ED0001029E6D3294B40222648694617F078FBB3
:100EE00088F83700082004F04DFB601C84B240F6FF
:100EF000A7508442D2D398F8370048B10EE005EBF2
:100F0000410C030C29F81C30DBE729F82100DDE750
:100F10001A4B02221C49174817F05AFB98F8370061
:100F200038B1144816F00EFF15B04FF6FF70BDE84B
:100F3000F08F104816F006FF88F8370020B115B082
:100F40004FF6FF70BDE8F08FB6FBFAF015B00AFB64
:100F50001060BDE8F08F0000303A2F5343524545F2
:100F60004E5F3030312E626D700000001F85EB51F6
:100F7000CDCCCCCC0C090024000000243801002486
:100F8000B0F80108006003C0F4F801084DF804ED62
:100F900091B04FF480700890EB2002904FF4005015
:100FA00005904FF440600990002003900A90FF21C3
:100FB0000491012106910D900E900F904FF0407119
:100FC0000B910C90062107910190009002A908480E
:100FD0006A4605F0CDF818B111B001205DF804FBA8
:100FE000642004F0CFFA11B000205DF804FB00008B
:100FF000A4EB032410B5144912480860084605F014
:1010000050F808B1012010BD0CF0E0FD0DF07CFFA0
:1010100008B1012010BD032004F0B4FA0DF07AFDF0
:1010200008B1012010BD0DF0DDFF08B1012010BD99
:101030000DF0D0FE08B1012010BD642004F0A2FA2A
:10104000002010BD00500052A4EB03240A490022E6
:1010500001EB0010C271C2730021C279435C1A44D3
:10106000C2714318C27B1B7A1A44C273491CC9B2AD
:101070000729F2D370470000100000300021002043
:10108000074A135C1944C9B2401CC0B20728F8D300
:10109000D079884201D101207047002070470000BC
:1010A0000000003000210020074A13181B7A194461
:1010B000C9B2401CC0B20728F7D3D07B884201D107
:1010C0000120704700207047000000302DE9F04FEC
:1010D00091B0FF48F5A115F0E1FEFD493723FD4829
:1010E000222215F002FAFC490122FC4817F03CF8D4
:1010F000DFF8EC8388F8370020B111B04FF6FE70AE
:10110000BDE8F08FF548C768F6A000680C90002095
:101110000A900024F44A002644F6792944F67921FD
:1011200001FB0091090D01EBC103C3EB8113EF49F2
:1011300003EB010CEC4B0021E0FB02316FF03603B6
:10114000490901FB03010CF80160401C80B2B0F5B5
:10115000DC4FE3D30020DFF89893DFF898C34CF816
:101160002060ACF5606222F8106002F5806323F81D
:10117000106029F8106002F540610E54401C80B2E6
:10118000B0F5007FE9D30020DFF86CA3FF210AEB64
:10119000000202F580521170401C80B2B0F5806FE1
:1011A000F4D3D64B4FF48052D349CC4817F0ECF827
:1011B000CB4981F8370018B111B00020BDE8F08F9D
:1011C0004FF01C089AF809109AF80800C3469AF8DC
:1011D0000B2000EB01209AF80A10090401EB0261D0
:1011E00008440BEB00101C2840F2F5801AF8081098
:1011F00039B90AEB080042781AB982780AB9C2787C
:1012000012B1052922D029E0427A017AC37A01EB92
:101210000221827A120402EB03628D18427B017B69
:1012200001EB0221827BC07B120402EB00600844C8
:101230000990A748B2A1099A15F030FEA4493723B6
:10124000A4480E2215F051F900F0B0B80AEB0800DE
:1012500042781AB982780AB9C27812B1072922D025
:1012600029E0427A017AC37A01EB0221827A1204E0
:1012700002EB036211440891427B017B01EB0221E6
:10128000827BC07B120402EB006008440790904808
:101290009EA1079A15F002FE8D4937238D480E2234
:1012A00015F023F982E00AEB080042781AB9827837
:1012B0000AB9C27812B1082922D029E0427A017A0B
:1012C000C37A01EB0221827A120402EB0362114419
:1012D0000691427B017B01EB0221827BC07B1204E1
:1012E00002EB00600844059079488BA1059A15F03F
:1012F000D5FD7749372377480E2215F0F6F855E0EB
:101300000AEB080042781AB982780AB9C27812B199
:10131000132922D04AE0427A017AC37A01EB0221F2
:10132000827A120402EB036211440491427B017B36
:1013300001EB0221827BC07B120402EB00600844B7
:101340000390634877A1039A15F0A8FD60493723FD
:1013500060480E2215F0C9F828E00AEB0800417831
:1013600021BB817811BBC17801BB427A017AC37A73
:1013700001EB0221827A120402EB03621144029112
:10138000427B017B01EB0221827BC07B120402EBDA
:101390000060084401904E4865A1019A15F07EFD59
:1013A0004B4937234B480F2215F09FF808F11008DE
:1013B0009AF809109AF808009AF80B2000EB01201F
:1013C0009AF80A10090401EB026108440BEB0010C3
:1013D00040453FF60BAF4148290316F038FD9DF814
:1013E000310010909DF830000F909DF833009DF86B
:1013F00032800E9000F06DB9404B4FF480523E4960
:10140000364816F0C1FF364981F8370018B111B0DF
:101410000020BDE8F08F0026A9469AF80D009AF842
:101420000C109AF80F2001EB00209AF80E10090416
:1014300001EB02614518264841A12A4615F02EFD10
:101440002349372323480E2215F04FF89AF8080055
:1014500000287BD19AF80900002877D19AF80A0071
:10146000002873D19AF80B0000286FD19AF81B005E
:1014700010F0400F6AD19AF82400002866D19AF83B
:101480002500002862D186461AF8060024287AD161
:101490000AEB06004178002975D1017A442972D1FE
:1014A000417AAC296FD190F8301050E053746172DA
:1014B000742052656B6F7264626F78207061727312
:1014C0006572207665722E20302E34320A0D0000AF
:1014D000B608002480F003248B0500240C090024A6
:1014E000000000242E4441544F09F294685903240B
:1014F00068CF032468D50324C89900243801002448
:101500004C5030202530386C750A0D004C50352079
:101510002530386C750A0D004C5037202530386C5A
:10152000750A0D004C5038202530386C750A0D00B6
:101530004C503139202530386C750A0D0000000000
:101540004E5030202530386C750A0D00BDE08329DF
:1015500019D190F83110052915D190F852101029A1
:1015600011D190F8491090F8483003EB01218AB26C
:10157000B2F5007F08D9FE4816F0E4FB11B04FF633
:10158000FF70BDE8F08F9AE0A2F1010C0AEB4C016C
:1015900001F5805191F800B0BBF1FF0F0CD191F82B
:1015A00001B0BBF1FF0F07D1DDF828B00BF1010B43
:1015B0001FFA8BFBCDF828B00B7090F849004870EB
:1015C00006F12000EB4911441AF8003001F8013C03
:1015D00018300AEB00018A784978C2EB024202EB2C
:1015E00001211AF800201144E34AA2FB0121C90895
:1015F000E24A22F81C101C300AEB00021AF8001014
:10160000527801EB0221DE4A22F81C10001D0AEB81
:1016100000021AF80010527801EB0221D94A22F890
:101620001C10061D0122D8480CEBCC01C1EB8C111B
:1016300001443EE01AF806301098834238D10AEB94
:1016400006000F9B10F801BC9B4531D14378434500
:101650002ED183780E9883422AD1CC4806EB0932EA
:1016600040F82C2006F110030020202408E0A2F10D
:1016700020065F2E01D30C5400E00A54401C80B2B7
:10168000362804D21A181AF80220032AEFD1362875
:1016900005D272460A54401C80B23628FAD37046EE
:1016A00081F835E081F83600002403F10A060022B3
:1016B000761C40F6FF70864201D2002ABAD1761C11
:1016C00040F6FF708642FFF4DFAEA948290316F00A
:1016D000BEFBB5EB173F03D20998A842BFF48CAE0E
:1016E00008980103A24816F0B2FB01200B90A84E07
:1016F000A84D95E008990798884201D100200B90E9
:10170000A54B4FF48052A549994816F03DFEA449D7
:1017100081F8370018B111B00020BDE8F08F9F4963
:101720004A7B087BCB7B00EB02208A7B120402EB16
:10173000036210440890087A05286CD1487AE8BB07
:10174000887AD8BBC87AC8BBC87E10F0400F62D177
:1017500091F8240090BB91F8250078BB91F818808F
:10176000B8F1000F57D028208C4ADFF838A21118A2
:101770000D91135C91F809C05A1E0AF822C00AEBB9
:10178000820291F80A9082F8019091F80BA082F8F9
:1017900002A091F80CE082F803E0182C15D204EBBB
:1017A000440116F801B0DC450BD1314491F801B089
:1017B000D94506D189788A4503D100E02BE05C55F4
:1017C0006424611C8CB2182CE9D3632C01D219213A
:1017D00059550024AEF121015D2901D30021D170BA
:1017E0000D99097A05293CD007293ED0092940D016
:1017F000491E01EBD1724FF0FF3101EB6201CA17B4
:1018000001EB9271891000EB81000C30A8F1010806
:10181000B8F1000FA8D108980103554816F017FB3E
:101820000898B0EB173F03D20B9800287FF462AF03
:10183000069801034E4816F00AFB01250020574C7C
:1018400041F268028346231803F5005383F800B081
:10185000401C80B29042F6D3DFF844A14FF0FF362F
:10186000A4E0002151700C30D0E7002191700C30C1
:10187000CCE70021D1700C30C8E706990598884262
:1018800000D10025444B45494FF48052384816F0AA
:101890007BFD8AF8370018B111B00020BDE8F08F49
:1018A000607B217B01EB0021A07B0204E07B02EB4B
:1018B000006008440690207A072854D1607AE8BB7B
:1018C000A07AD8BBE07AC8BBE07E10F0400F4AD1C6
:1018D00094F8240090BB94F8250078BB207E68B370
:1018E000282300F1010CBCF1000F3CD0E118087D69
:1018F000401E00EBD07006EB6008087C48BB487CBB
:1019000038BB887C28BBC87C18BB002011E01A18A3
:10191000224492F815900A7B521EC2EBC20202EBDF
:1019200042020244224402F5005282F80090401C18
:1019300080B2404501D21428E9D300E013E0087BCF
:10194000411EC1EBC10101EB4101214401F50051F0
:10195000087528F00300184400F11803ACF1010CDD
:10196000BCF1000FC2D10698010301481CE0000041
:101970000C09002468D30324CDCCCCCC68C7032445
:1019800068CF032468CB03246859032468D5032453
:10199000CCF70108CBDD032438010024C8990024CA
:1019A0000000002468DD032416F051FA0598B0EB1E
:1019B000173F02D2002D7FF460AF00208AF8340078
:1019C0004FF00108D84D00219AF83490C9EBC902B4
:1019D00002EB42022A44C1EBC10303EB430C0CEBC4
:1019E000040303F500531B7D43450CD100200CEB91
:1019F0000003234403F500531B781354401CC0B26A
:101A00001528F4D30120491C89B2C829E3D338B181
:101A1000B9F1140F03D209F101008AF83400002053
:101A200008F10108B8F1FF0FCDD304980103BF48B6
:101A300016F00DFA4FF001080020FF21221802F5E0
:101A400000521170401C80B2B0F5A04FF6D3A146F1
:101A500076E004990398884201D14FF00008B44B16
:101A6000B4494FF48052B14816F08EFCB24981F867
:101A7000370018B111B00020BDE8F08F99F80D10B3
:101A800099F80C0099F80F2000EB012199F80E004D
:101A9000000400EB02600844049099F8080008284C
:101AA00049D199F80900E0BB99F80A00C8BB99F838
:101AB0000B00B0BB99F81B0010F0400F3BD199F818
:101AC000240070BB99F8250058BB99F8180010B98C
:101AD00099F8190028B399F8231099F8220000EB1F
:101AE0000120282400F1010ABAF1000F23D009EBEC
:101AF000040B9BF808000CF0F9FF14286AD09BF83F
:101B0000012019F8041006EB02221144490001EBF0
:101B1000802080B29BF80410484400F5005001700A
:101B200000E008E09BF8051041700C34AAF1010AAE
:101B3000BAF1000FDBD1049801037C4816F087F955
:101B40000398B0EB173F02D2B8F1000F81D17B4E62
:101B50000020308000220021774890F834B0BBF19B
:101B6000000F2AD9A6F6A41A4FF6FF788E46C1EBCD
:101B7000C10000EB4000284480F814E000208C02F3
:101B800004EB40039BB24B4403F5005393F800C0B1
:101B90005B780CEB0323434505D036F811C0844431
:101BA0002AF81C30521C401CB0F5007FE8D3481CBA
:101BB00026F8102081B25945D9D3029801035B4819
:101BC00016F045F901255E4E0024A6F11408A6F290
:101BD0007C5B54E011B04FF6F170BDE8F08F0299D4
:101BE0000198884200D10025514B52494FF4805250
:101BF0004E4816F0C9FB8BF8370018B111B0002021
:101C0000BDE8F08F99F80D1099F80C0099F80F20A5
:101C100000EB012099F80E10090401EB0261084461
:101C2000029099F80800132824D199F8090008BBFC
:101C300099F80A00F0B999F80B00D8B999F81B0087
:101C400010F0400F16D199F8240098B999F82500A2
:101C500080B999F818206AB14FF0280C19F80C00D7
:101C6000802804D109EB0C004078022814D000220F
:101C7000002AF3D1029801032C4816F0E8F80298E4
:101C8000B0EB173F01D2002DA9D1284816F05AF821
:101C90000A9811B0BDE8F08F0CF10C0119F80100A1
:101CA000401E80B24008401E83B2002008E001EBD5
:101CB000000ACA449AF801A006F800A0401C80B2AD
:101CC000984201D20D28F2D33454C818C01C19F818
:101CD0000010491E89B24908491E89B20844411CB6
:101CE00019F80100401E80B24008401E83B2002057
:101CF00008E001EB000ACA449AF801A008F800A025
:101D0000401C80B2984201D21228F2D308F8004059
:101D1000C818801DA0EB0C0101F00301C1F1040102
:101D200000EB010C521EA3E7E6E503240C09002496
:101D300038010024C8990024000000248AE7032405
:101D40007C05002430B4029CD0F800C0DCF844507C
:101D500044EA034305F040452B43CCF84430036884
:101D6000DA630068816330BC70470000014802F00C
:101D7000DFBC0000ACEE0324014802F0D9BC000037
:101D800024EF0324264A016891422CD0254A91422F
:101D900029D0254A914226D0244A914223D0244A70
:101DA000914220D0234A91421DD0234A91421AD019
:101DB000224A914217D0224A914214D0214A91429C
:101DC00011D0214A91420ED0204A91420BD0204A94
:101DD000914208D01F4A914205D01F4A914202D039
:101DE0001E4A914217D11E4BCAB2103AA3FB0232CF
:101DF0001209DFF870C002F007031CF80330C36556
:101E0000032A04D96FF30901091D816506E06FF308
:101E10000901816502E021F0FF018165806D704755
:101E200010000240280002404000024058000240DA
:101E30007000024088000240A0000240B80002404A
:101E400010040240280402404004024058040240AA
:101E50007004024088040240A0040240B80402401A
:101E6000ABAAAAAA0CF9010801680123DFF894C003
:101E7000CAB261451BD0DFF890C0614517D0DFF8CA
:101E80008CC0614513D0DFF888C061450FD0DFF802
:101E900084C061450BD0DFF880C0614507D0DFF812
:101EA0007CC0614503D0DFF878C0614511D1A2F153
:101EB00008011C4AA2FB012109091B4A02EB81020D
:101EC00002661A4A426601F01F0103FA01F18166B7
:101ED0007047DFF85CC0103AACFB02C21209DFF8B1
:101EE00054C06144A82900D80832134901EB82018B
:101EF00001661249416602F01F0103FA01F1816691
:101F000070470000085402581C54025830540258BC
:101F100044540258585402586C5402588054025881
:101F200094540258CDCCCCCC00580258805802585A
:101F3000ABAAAAAAF0FBFDBF00080240800802403D
:101F400001794A1E072A28D8144B0168994214D0F7
:101F5000134B994211D0134B99420ED0124B994218
:101F60000BD0124B994208D0114B994205D0114B1E
:101F7000994202D0104B994206D1104901EB8201DF
:101F8000C1660F49016705E00E4901EB8201C16698
:101F90000D4901670121914041677047085402587B
:101FA0001C54025830540258445402585854025891
:101FB0006C540258805402589454025800590258E4
:101FC00040590258000902404009024001460020E1
:101FD0008B698A6A002B0FD0B3F5005F1DD08AB3DE
:101FE000012A30D0022A2ED0032A04D1C96A11F066
:101FF000807F00D0012070471AB1012A07D0022A41
:10200000F9D1C96A11F0807FF5D001207047C96A03
:10201000B1F1C07FFAD1012070475AB1012A0BD02B
:10202000022A07D0032AF7D1C96AB1F1C07FF3D1E0
:102030000120704701207047C96A11F0807FFAD0F3
:1020400001207047FFE70120704700002DE9F04FA5
:10205000846D794ED0F800C0784FDFF8E481B44544
:10206000DFF8E091DFF8E0A1DFF8E0B1784D4FD084
:10207000BC454DD0C4454BD0CC4549D0D44547D0C4
:10208000DC4545D0DFF8CCE1F44541D0AC453FD04C
:10209000DFF8C4E1F4453BD0DFF8C0E1F44537D0C8
:1020A000DFF8BCE1F44533D0DFF8B8E1F4452FD0D8
:1020B000DFF8B4E1F4452BD0DFF8B0E1F44527D0E8
:1020C000DFF8ACE1F44523D0DFF8A8E1F4451FD0F8
:1020D000DFF8A4E1F4451BD0DFF8A0E1F44517D008
:1020E000DFF89CE1F44513D0DFF898E1F4450FD018
:1020F000DFF894E1F4450BD0DFF890E1F44507D028
:10210000DFF88CE1F44503D0DFF888E1F44510D125
:10211000D0F864E0D0F868C0CEF804C0D0F86CC045
:10212000BCF1000F05D0D0F870E0D0F874C0CEF844
:1021300004C0D0F800C0B44526D0BC4524D0C44566
:1021400022D0CC4520D0D4451ED0DC451CD0414EF9
:10215000B44519D0AC4517D03F4DAC4514D03F4DD8
:10216000AC4511D03E4DAC450ED03E4DAC450BD0EC
:102170003D4DAC4508D03D4DAC4505D03C4DAC4542
:1021800002D03C4DAC4523D190F85CC03F250CF00B
:102190001F0C05FA0CFCC4F808C0D0F800C0DCF82D
:1021A000004024F48024CCF80040D0F800C0CCF8E3
:1021B00004308368402B05D0036899600068C260D2
:1021C000BDE8F08F03689A600068C160BDE8F08FD9
:1021D000294DAC4514D0294DAC4511D0284DAC4506
:1021E0000ED0284DAC450BD0274DAC4508D0274D1F
:1021F000AC4505D0264DAC4502D0264DAC45E5D1C9
:1022000090F85CC001250CF01F0C05FA0CFCC4F81A
:1022100004C0D0F800C0CCF804308368402B05D04F
:10222000036899600068C260BDE8F08F03689A6037
:102230000068C160BDE8F08F100002402800024035
:1022400040000240580002407000024088000240F6
:10225000B8000240A00002401004024028040240DE
:1022600040040240580402407004024088040240C6
:10227000A0040240B8040240085402581C540258FA
:102280003054025844540258585402586C5402585E
:102290008054025894540258704700002DE9F041D0
:1022A00004461D4694F8800001280CD0012784F8CC
:1022B000807094F881000026012807D0022084F85D
:1022C0008060BDE8F0810220BDE8F081052084F83F
:1022D0008100C4F88460E165A4F86050A4F86250FD
:1022E0006266A4F86850A4F86A502667666720689A
:1022F000C16821F4C021C1602068816821F4404197
:102300008160E0680F2804D9E16F8969B1F5804FD9
:1023100009D107280CD9E06F8069B0F5005F07D0BC
:10232000B0F5804F04D0012084F88060BDE8F081D2
:10233000A06F8169B1F5005F05D1B4F86210491C46
:102340004908A4F862108069B0F5804F05D1B4F84F
:102350006200C01C8008A4F86200E06F8169B1F5DA
:10236000005F05D1B4F86A10491C4908A4F86A1046
:102370008169B1F5804F05D1B4F86A10C91C89088C
:10238000A4F86A103B490164E16F3B48C863E06F01
:10239000DFF8E880C0F84C80E06F0665B4F86A307A
:1023A0002068626E00F13001E06F02F07BFF60B1E7
:1023B000D4F8840040F01000C4F8840084F88060F1
:1023C000384684F88170BDE8F0812068816841F466
:1023D00080418160A06F0664A06FC663A06F066530
:1023E000A06FC0F84C80B4F862302068E16D00F155
:1023F0002002A06F02F056FF60B1D4F8840040F0D4
:102400001000C4F8840084F88060384684F8817035
:10241000BDE8F081A06FC069B0F5807F19D0206859
:1024200041686FF30F01294341602068816841F4DE
:10243000004181602068016941F4587101612068A0
:10244000016841F0010101606068B0F5800F06D0BD
:102450000AE0206841686FF30F014160E5E72068FA
:10246000016841F400710160304684F88060BDE885
:10247000F08100001B19010825190108EF18010857
:1024800070B504460D4616463046FEF7C9FB0722D6
:102490002046E91CFEF7D6F9601C80B20522A91C73
:1024A000FEF7D0F9A01C80B20322691CFEF7CAF91E
:1024B000E01C32462946BDE8704080B2FEF752BAB1
:1024C0002DE9F74F81B007468A4600262F4B2E4A4A
:1024D000586802EBC0004068417900910579E81D19
:1024E00020F00701491B01F0FF090099002948D994
:1024F0004FEAD008039808FB0602B8F1010F20D07C
:10250000B8F1020F20D010785178000440EA012081
:10251000917840EA010B0024002D2AD9281B484459
:10252000411E0120884010EA0B0F12D017491648AF
:10253000496830F83120381980B25146FEF712FA56
:1025400014E092F800B0E6E71178507840EA012BE9
:10255000E1E70E48017849B940680B4901EBC0003A
:1025600051464288381980B2FEF7FCF9641CAC422F
:10257000D4D30AF101001FFA80FA761C0098864233
:10258000B8D304B0BDE8F08F4CF3032464070024F3
:1025900070B506460C464FF40040FEF741FBB6B15D
:1025A0004FF488750423D122E521681EFEF73EFA18
:1025B000C92C00D9C9244FF66562601980B2E521A3
:1025C000FFF75EFF3046BDE8704000F0CBBB002552
:1025D0000423D122E5210020FEF728FAE8E70000D5
:1025E00070B50D4600283FD02024002A3ED048F682
:1025F000E220FEF715FB09231C22CC2104F1D200B6
:10260000FEF714FA04F1D102D3231046CD21FEF7D0
:102610003FF904F1EE02D3231046CD21FEF738F93D
:102620004FF40040FEF7FCFA1348FEF7EDFA192DBF
:1026300021D8002D1FD01148691E00EB81021148DE
:102640000FA114F02BFC0F490020087104230E4841
:102650000E4928440B4A10F8010C085CCD21204497
:10266000BDE87040FEF75AB80024BEE74FF6FF7091
:10267000FEF7D6FABFE770BD7407002468DD0324B7
:102680002573000076080024CCDD032414F801082B
:102690002DE9F0410026B046744F4FF4F075002448
:1026A000B8F1000F7ED00020FEF79CFA40F2A32084
:1026B00006FB00F007EB0028B4FBF5F004EB440246
:1026C00008EB020318F8022093F801C09B78D208A7
:1026D0004FEADC0CC0F1AA0081B2B4FBF5F0DB08D4
:1026E0000CEB431303EB822202F5004292B205FB8E
:1026F0001040FEF737F9601C84B2B4F5614FDBD3AC
:1027000000210120FEF796FA4FF00008701CC6B2B7
:10271000372002F037FF1A2EC1D300210120FEF727
:1027200089FA0120FEF75EFA0020FDF7BBFFFF21CA
:102730000120FEF77FFAFF210020FEF77BFA002040
:10274000FEF750FA4FF40040FEF752FA4FF4A5702E
:1027500002F018FF4648FEF757FA4FF6FF70FEF7F3
:102760005FFA474843A245A114F098FB0323444A6B
:10277000D221D801FDF7D2FFD221424A04234800DA
:10278000FDF7CCFF4BF6EF50FEF74AFAAA2340F2D2
:102790007B1265201946FEF77BF8B02340F27B12CE
:1027A000194600E02AE06520FEF772F86422AF23A4
:1027B0001046AB21FEF76CF84FF4BE72AF23104603
:1027C000AB21FEF765F84FF6FF70FEF729FA0024FB
:1027D00004F1660082B280B2AE23AC21FEF758F855
:1027E000601C84B20B2002F0CDFEB4F58A7FEFD9D5
:1027F000BDE8F0414FF4167002F0C4BE0120FEF7B0
:10280000F1F940F2A32006FB00F007EB0028B4FB2F
:10281000F5F004EB440208EB020318F8022093F8E9
:1028200001C09B78D2084FEADC0CC0F1AA0081B24B
:10283000B4FBF5F0DB080CEB431303EB822202F54B
:10284000004292B205FB1040FEF78CF8601C84B287
:10285000B4F5614FDBD3FF210120FEF7EBF9002037
:10286000FEF7C0F94FF0010850E7000000000090AB
:102870006C0700247665722E0000000025730000AE
:10288000760800249C01002470B50D4600285AD01B
:102890002024002A5AD04FF66560FEF7C1F90923BB
:1028A0001C22D62104F1D200FEF7C0F804F1D102B7
:1028B000DD231046D721FDF7EBFF04F1EE02DD2307
:1028C0001046D721FDF7E4FF4FF40040FEF7A8F9CA
:1028D000CA48FEF799F9CA4901200870C94EA5B344
:1028E000012D62D0022D7DD0032D7CD0042D00F06F
:1028F000D380052D00F0F080062D00F00D81072D0E
:1029000000F01681082D00F01F81092D00F02881AC
:102910000A2D00F031810B2D00F044810C2D00F0C8
:102920005781B9A1304614F0B9FA3278D72104F1B1
:10293000D900FDF7D7FE327804F1E100BDE8704020
:10294000D721FDF7CFBE0024A3E704E04BF6CE105D
:10295000FEF766F9A3E7AB48ACA114F09FFA327812
:10296000D72104F1D400FDF7BDFEA648A8A114F0BC
:1029700095FA3278D72104F1D900FDF7B3FEA148CA
:10298000A4A114F08BFA3278D72104F1DE00FDF710
:10299000A9FE9C48A0A114F081FA327804F1E60067
:1029A000BDE87040D721FDF79DBE964897A114F071
:1029B00075FA3278D72104F1D400FDF793FE9148DF
:1029C00093A114F06BFA3278D72104F1D900FDF706
:1029D00089FE8C4891A114F061FA3278D72104F174
:1029E000DE0001E00EE037E0FDF77CFE85488CA1BB
:1029F00014F054FA327804F1E600BDE87040D721B3
:102A0000FDF770BE7F4881A114F048FA3278D721D3
:102A100004F1D500FDF766FE7A487DA114F03EFA78
:102A20003278D72104F1DA00FDF75CFE754877A112
:102A300014F034FA3278D72104F1DF00FDF752FEAA
:102A4000704874A114F02AFA327804F1E400BDE869
:102A50007040D721FDF746BE6A486CA114F01EFAFB
:102A60003278D72104F1D800FDF73CFE654868A113
:102A700014F014FA3278D72104F1DD00FDF732FEAC
:102A8000604868A114F00AFA327804F1E200BDE867
:102A90007040D721FDF726BE5A485CA114F0FEF91C
:102AA0003278D72104F1D800FDF71CFE554858A113
:102AB00014F0F4F93278D72104F1DD00FDF712FEAD
:102AC000504855A114F0EAF9327804F1E200BDE86B
:102AD0007040D721FDF706BE4A484CA114F0DEF93C
:102AE0003278D72104F1D800FDF7FCFD454848A114
:102AF00014F0D4F93278D72104F1DD00FDF7F2FDAE
:102B0000404847A114F0CAF9327804F1E200BDE868
:102B10007040D721FDF7E6BD3A483CA114F0BEF95C
:102B2000327804F1DE00BDE87040D721FDF7DABD50
:102B300034483BA114F0B2F9327804F1DD00BDE86D
:102B40007040D721FDF7CEBD2E4833A114F0A6F971
:102B5000327804F1DD00BDE87040D721FDF7C2BD39
:102B6000284830A114F09AF9327804F1DD00BDE86C
:102B70007040D721FDF7B6BD224824A114F08EF98C
:102B80003278D72104F1DA00FDF7ACFD1D4821A110
:102B900014F084F9327804F1DF00BDE87040D721E9
:102BA000FDF7A0BD17481DA114F078F93278D721A0
:102BB00004F1D900FDF796FD124819A114F06EF941
:102BC000327804F1E100BDE87040D721FDF78ABDFD
:102BD0000C4810A114F062F93278D72104F1D90021
:102BE000FDF780FD07480CA114F058F9327804F184
:102BF000E100BDE87040D721FDF774BD74070024E3
:102C000064070024760800242D0000003100000035
:102C10002F000000360000003400000033000000E8
:102C2000320000003800000070B504460D4616461C
:102C30003046FDF7F5FF072229462046FDF702FE44
:102C4000601C80B20522691CFDF7FCFDA01C80B24F
:102C50000322A91CFDF7F6FDE01C3246E91CBDE885
:102C6000704080B2FDF77EBE2DE9F04105460F466B
:102C700016461846002D39D04FF48874002E37D0F0
:102C8000CA2F54D2012E49D9FDF7CAFF3D19072397
:102C9000A8B21A46C121FDF7C9FE00242F49B01E73
:102CA0002F4F00EB80004618CD20A7FB042104FB2A
:102CB00000F089084942800A01EB81010A19335C5E
:102CC000C2F1070123FA01F111F0010F08D000F160
:102CD000C2015019401C80B24FF40042FDF742FE81
:102CE000601CC4B2192CDFD3BDE8F0810024C5E715
:102CF0004FF40040FDF794FF45B1BDE8F0410723D4
:102D000040F20F10D122C121FDF790BEBDE8F04185
:102D10000723D122C1210020FDF788BE3819BDE864
:102D2000F04180B2C4214FF47C42FFF77DBF4FF4E5
:102D30000040FDF775FF45B1BDE8F041072340F2C3
:102D40000F10D122C121FDF771BEBDE8F04107236C
:102D5000D122C1210020FDF769BE000088F80108DA
:102D6000CDCCCCCC2DE9F0410646002E34D04FF42A
:102D700088752E4F2E4857F8261081422AD8E81C15
:102D80004FF6FF7380B20422E52100F0C3FF57F82D
:102D90002600284988422BD841F29411B0FBF1F467
:102DA000002C17D0244804FB00F057F82610B0FB85
:102DB000F1F1CA290BD214F0010F0FD048194BF6CC
:102DC000EF53C01C80B20322E52100F0A3FF641E74
:102DD000002CE7D1BDE8F0810025CAE748194FF67D
:102DE000FF73C01C80B20422E52100F093FFEEE7E0
:102DF00042F22831B0FBF1F4002CEBD00F4804FB79
:102E000000F057F82610B0FBF1F0CA2808D2284489
:102E10004FF6FF73C01C80B20422E52100F07AFF58
:102E2000641E002CEAD1BDE8F0810000C40100243A
:102E3000580F0200AC07010092E70D0024CF1B00E1
:102E400070B504469A2C7DD8694D95F835008442BA
:102E500078D04D2C60D9844241D94D2818D24AF6F9
:102E60006B50FDF7DDFE95F835000323C0F14E01F0
:102E70008AB20721A330FDF7D9FD95F83500262841
:102E800006D803224FF6FF730721C92000F042FF46
:102E90004FF66560FDF7C4FE95F835004D2808D85B
:102EA000A4F14E0082B203230721F120FDF7BEFDFD
:102EB00006E0211A8AB203230721A330FDF7B6FDED
:102EC00095F83500742845D8742C43D903224BF665
:102ED000EF53072140F2171000F01CFF7DE04AF687
:102EE0006B50FDF79DFE95F8350003230721001B6D
:102EF00082B204F1A400FDF799FD95F8350074281D
:102F00006BD3742C69D203224FF6FF73072140F272
:102F1000171000F0FFFE60E084421CD94AF66B50A7
:102F2000FDF77EFE95F835000323211A8AB20721AA
:102F3000A330FDF77BFD95F8350026284DD8262CCB
:102F40004BD900E053E003224FF6FF730721C9205D
:102F500000F0E0FE41E04D2818D94AF66B50FDF72D
:102F60005FFE95F83500032307214D3882B2F1202A
:102F7000FDF75CFD95F83500742807D303224FF662
:102F8000FF73072140F2171000F0C4FE4FF6656092
:102F9000FDF746FE95F835004D2809D3C4F14D00E4
:102FA00082B20323072104F1A400FDF73FFD07E0EF
:102FB000001B82B20323072104F1A400FDF736FDB4
:102FC00095F83500262808D3262C06D203224BF686
:102FD000EF530721C92000F09DFE032207214FF483
:102FE0007C4304F1A30000F095FE85F8354070BDE8
:102FF0000000002410B54FF6FF70FDF711FE072307
:103000009D220521A220FDF7C5FC4AF66B50FDF775
:1030100007FE05239B220621A320FDF707FD0522BD
:103020004FF6FF730621C92000F074FE05224FF60B
:10303000FF730621F02000F06DFE05224FF6FF73AE
:10304000BDE81040062140F2171000F063BE0000FA
:1030500070B500240D4D2F2605EB440040788028E4
:1030600002D115F8141051B115F8141001EB00201D
:1030700082B2E0B2703006EB1421FDF773FC601CE5
:1030800084B2B4F5245FE7D370BD000040B0449033
:1030900070B50646002E58D04FF494744FF6FF706A
:1030A000FDF7BEFD04F13F05A8B203230222B021C3
:1030B000FDF7BCFCA8B203230222B721FDF7B6FC42
:1030C00004F1860080B203230222B921FDF7AEFC91
:1030D0002348FDF799FD4CF67360FDF7A1FD2348E9
:1030E00020A221A113F0DAFE04F137001F4A80B2BA
:1030F0000423B521FDF712FB1C481DA21AA113F0F1
:10310000CDFE04F16500194A80B20423B521FDF714
:1031100005FB164817A214A113F0C0FE04F1980095
:10312000124A80B20423B521FDF7F8FA0F4812A223
:103130000DA113F0B3FE56B1BDE8704004230B4A55
:10314000B4214FF49870FDF7E9BA0024A6E7BDE872
:1031500070400423054AB421E320FDF7DFBA0000E4
:103160007C0700242D000000257300007608002451
:103170002E0000002F000000300000002DE9F05F5D
:1031800005460E46002D63D04FF48874DFF8E493B3
:103190006520CA2E05FB00FBF74800EB4B0780F0CB
:1031A000818139F81500B04200F05D814FF4004094
:1031B000FDF736FD39F8150004F1030A1D225044CD
:1031C00080B2C821FDF706FC39F8150004F10408A7
:1031D0001D22404480B2C821FDF7FCFB39F81500E0
:1031E000C15D5044E54F80B2CA0901F01F0137F8B4
:1031F00012304A1CC1F1DC0100F08CFD39F81500D9
:10320000411CCA2911D2DC494218012101EB4B01B2
:10321000404480B2515CCA0901F01F0137F81230F6
:103220004A1CC1F1DC0100F075FD39F81500B0420F
:103230007DD9A0EB060087B2D148405D30B3002FA6
:1032400000F0E08086EA070010F0010F02D00EE0E7
:1032500000249BE7F019C82809D220444FF6FF73D9
:10326000401D80B20422DF2100F054FD09E0F01976
:103270004EF218332044401D80B20422DF2100F0BA
:1032800049FD781E87B2002FDCD1BBE04FF400402F
:10329000FDF7C6FC39F815000223E021801B801CD5
:1032A00082B23019401D80B2FDF7C0FBA7B386EA99
:1032B000070111F0010F14D1F019C82811D22044D0
:1032C0004BF28D1200F105081FFA88F0DF21FDF79F
:1032D00049FB1FFA88F04BF28D12E221FDF742FB09
:1032E00016E011F0010F13D0F019C92810D22044B4
:1032F0004AF2091200F105081FFA88F0DF21FDF7F4
:1033000031FB1FFA88F04AF20912E221FDF72AFB8D
:10331000781E87B2002FCAD104F1CC004BF28D1376
:1033200080B20422DF2100F0F5FC6BE0FFE769D2F8
:10333000301A401C87B29248405DC0B34FF4004041
:10334000FDF76EFC39F815000223311A891C8AB288
:10335000404480B2E021FDF769FB1FFA8AF04BF28E
:103360008D130422DF2100F0D5FCFFB104F1010828
:1033700039F81510C819012814D9794011F0010F36
:1033800016D040444AF2091280B2DF21FDF7EAFA72
:1033900039F81500E2214AF209123844404480B25B
:1033A000FDF7E0FA781E87B2002FE1D12AE011E0A4
:1033B00040444BF28D1280B2DF21FDF7D3FA39F889
:1033C0001500E2214BF28D123844404480B2FDF7E3
:1033D000C9FAE7E7B7B104F1010839F81510C819BF
:1033E00001280BD9794011F0010F1FD040444EF253
:1033F000183380B20422DF2100F08CFC781E87B2E3
:10340000002FEAD14FF40040FDF70AFC3444A01C21
:10341000042380B21A46DF21FDF708FB5948405DBE
:1034200068B14FF47C40FDF7FBFB0CE040444FF6E5
:10343000FF7380B20422DF2100F06CFCDEE74FF660
:10344000FF70FDF7EDFBE01C80B21D22C821FDF7E7
:10345000C1FA201D80B21D22C821FDF7BBFA29F850
:103460001560BDE8F09F4848405D0128F9D1454806
:10347000405D20B14FF47C40FDF7D2FB03E04FF6F6
:10348000FF70FDF7CDFB3444E01C80B21D22C82143
:10349000FDF7A0FA201DBDE8F05F1D2280B2C82113
:1034A000FDF798BADFF8E480CE2E4FF0000A2FD057
:1034B000CF2E5ED0CB2E79D0CC2E00F09481CD2EA5
:1034C00000F0A781D22ECCD93148FDF79DFB4FF4F7
:1034D0007C40FDF7A5FB32482EA230A113F0DEFCA4
:1034E00004F132002E4A80B20323CE21FDF716F9F3
:1034F0002B48A6F1D2022BA113F0D0FC04F16D00F1
:10350000274ABDE8F05F032380B2CE21FDF706B95C
:1035100039F81500C8280FD24FF40040FDF780FBA2
:1035200039F815000223C0F1C8018AB2611D0844B0
:1035300080B2E021FDF77AFA002639F81500411E25
:10354000B14234DD16F0010F09D030194EF21833B4
:10355000C01C80B20422DF2100F0DCFB3BE030190C
:103560004FF6FF73C01C80B20422DF2100F0D2FBB3
:1035700031E054E01C01002402E8032420F7010894
:103580004C000024B60000244A000024B0000024AF
:103590006C0700244552524F520000002573000072
:1035A0007608002425326C75000000009EE0801C27
:1035B000B04210D216F0010F22D030194AF209128F
:1035C000C71CB8B2DF21FDF7CDF9B8B24AF2091233
:1035D000E221FDF7C7F9701C86B2CA2EADD339F8C7
:1035E0001500C82808D204F1CC004BF28D1380B22C
:1035F0000422DF2100F08EFB08F805A0BDE8F09F53
:1036000030194BF28D12C71CB8B2DF21FDF7AAF9B1
:10361000B8B24BF28D12E221FDF7A4F9DBE739F8DD
:10362000150001280DD94FF40040FDF7F9FA39F8DB
:1036300015000223E021401E82B2201D80B2FDF75A
:10364000F5F9002639F81500411EB14220DD16F0CB
:10365000010F0ED030194AF20912C71CB8B2DF218F
:10366000FDF780F9B8B24AF20912E221FDF77AF9C2
:103670001DE030194BF28D12C71CB8B2DF21FDF7E7
:1036800071F9B8B24BF28D12E221FDF76BF90EE041
:10369000801CB0420BD216F0010F1DD030194EF233
:1036A0001833C01C80B20422DF2100F033FB701CF1
:1036B00086B2CA2EC6D339F81500012807D9E01CF6
:1036C0004BF28D1380B20422DF2100F023FB012096
:1036D00008F80500BDE8F09F30194FF6FF73C01CD5
:1036E00080B20422DF2100F015FBE0E729F815A0E5
:1036F0004FF40040FDF794FA55B3212340F20F1028
:10370000D122C821FDF792F90026DFF834A1DFF8B5
:103710003491B85DC10900F01F00421C3AF8113025
:10372000C0F1DC01301900F103081FFA88F000F045
:10373000F1FA19F80500D8B116F0010F0FD01FFAF1
:1037400088F04EF218330422DF2100F0E3FA20E083
:103750002123D122C8210020FDF768F9D4E71FFA00
:1037600088F04FF6FF730422DF2100F0D3FA10E057
:1037700016F0010F28D01FFA88F04AF20912DF2153
:10378000FDF7F0F81FFA88F04AF20912E221FDF77E
:10379000E9F8701C86B2CA2EBBD319F805000028C0
:1037A00098D1E01C4BF28D1380B20422DF2100F08F
:1037B000B1FA04F1CC004BF28D13BDE8F05F0422A6
:1037C00080B2DF2100F0A6BA1FFA88F04BF28D120A
:1037D000DF21FDF7C7F81FFA88F04BF28D12E221C6
:1037E000FDF7C0F8D5E74FF40040FDF719FA45B1F1
:1037F000BDE8F05F282340F20F10D122C121FDF770
:1038000015B9BDE8F05F2823D122C1210020FDF7C2
:103810000DB90D48FDF7F8F94FF47C40FDF700FABB
:103820000AA2AFF288210C4813F038FB04F13600ED
:10383000094ABDE8F05F032380B2CE21FCF76EBFDA
:1038400020F701084C0000246C0700244E4F542040
:103850004C4F4144454400007608002470B50D46A5
:1038600000285CD02024002D5BD0012D5ED0022DDD
:1038700061D04FF40040FDF7D3F909231C22E02169
:1038800004F1D200FDF7D2F804F1D102E72310468B
:10389000E121FCF7FDFF04F1EE02E7231046E121F0
:1038A000FCF7F6FF5948FDF7AFF9032D48D04FF468
:1038B0000040FDF7B5F9002D47D0012D5DD0022D58
:1038C0007DD0544852A113F0E9FA524A0423E12171
:1038D00004F1D300FCF722FF4E484FA113F0DEFAAB
:1038E0004C4A0423E12104F1DD00FCF717FF4948AD
:1038F0004AA113F0D3FA474A0423E12104F1E1007D
:10390000FCF70CFF434846A113F0C8FA04F1E900A4
:10391000404ABDE870400423E121FCF7FFBE0024CB
:10392000A1E74AF6C130FDF77BF9A6E74FF47C40EA
:10393000FDF776F9A1E74FF6FF70FDF771F99CE707
:103940004FF47C40FDF76CF9B5E7324835A113F030
:10395000A5FA304A0423E12104F1D900FCF7DEFE88
:103960002C4831A113F09AFA04F1E100294ABDE88C
:1039700070400423E121FCF7D1BE264829A113F0B1
:103980008DFA244A0423E12104F1D600FCF7C6FE97
:10399000204826A113F082FA1E4A0423E12104F1F3
:1039A000DE00FCF7BBFE1B4821A113F077FA04F1FF
:1039B000E300184ABDE870400423E12100E001E083
:1039C000FCF7ACBE134817A113F068FA114A0423A0
:1039D000E12104F1D600FCF7A1FE0E4813A113F07B
:1039E0005DFA0C4A0423E12104F1DE00FCF796FEA7
:1039F00008480DA113F052FA04F1E300054ABDE8AE
:103A000070400423E121FCF789BE00007407002404
:103A10005700000076080024490000004400000020
:103A200045000000240000003600000031000000C6
:103A30003000000072B6FEE7002200F001B800007E
:103A400084464DF8044D01200E4B5C7A002C16D1B3
:103A5000587A1C54587A03EB8000C0F804C0587A96
:103A600003F1080C00F80C20587A421C5A723030CE
:103A700008703A2048702F208870CC7000205DF8C4
:103A8000044B70478CF5032470B40C68D1F824C043
:103A90000B6A002CCA691CD01A43036823F4F8434C
:103AA0004CEA03031A4302608B684A68D1F810C0DD
:103AB0001A43CB6843EA0C031A434B6989691A43DA
:103AC0000A4341686FF30E011143416070BC00204E
:103AD00070478D684C680E692C43CD6835432C4384
:103AE0004D6989692C4321431143194341EA0C0272
:103AF00001686FF30E0111430160E7E742696FF35C
:103B00004D0242EA41014161002070474B680A685A
:103B10001A438B68C9685B1E5B0143EA41210A4373
:103B200001696FF3150111430161002070474DF8E1
:103B3000044DCB68D1F814C05B1E002AACF1010C17
:103B400024D01A03836842EA0C5223F4704323F40E
:103B500070031A4382604B680A685B1E521E42EA79
:103B600003128B685B1E42EA03220B8A097E5B1EEE
:103B7000491E42EA034242EA0161C26802F0704211
:103B80001143C1605DF8044B002070474C680A681F
:103B9000641E521E42EA04128C68641E42EA042229
:103BA00042EA03320B8A097E5B1E491E42EA034247
:103BB00042EA0C5242EA0161826802F0704211430B
:103BC0008160DFE72DE9FF4F82B084460C460F9AF3
:103BD0000027A4EB0C00002801DCACEB040000B2D1
:103BE000D11A002900DC991A09B20FFA8CF51EB21D
:103BF000644503D34FF00109CA4602E04FF0FF3994
:103C0000CA469A4204D34FF0010B0122019203E00D
:103C10004FF0FF3B5A46019288420ADB4FF0000901
:103C20000022019200EBD072521014B20091804633
:103C300008E04FF0000AD34601EBD172521014B2E3
:103C4000009088465FEA08001DD4B1B2109BA8B26C
:103C5000049AFCF71DFE0098204404B2444508DB9A
:103C6000A4EB080004B205EB090005B206EB0B005B
:103C700006B205EB0A0005B20198304406B2781C82
:103C800007B24745E1DD06B0BDE8F08F03464DF8C9
:103C9000044D4FF4806042101D4C04EB433353F845
:103CA00020408C4207D2042A02D9104480B209E095
:103CB0004FF0010C06E0042A02D9801A80B201E01C
:103CC0004FF0000C5208022AE9D8BCF1010F0ED0C7
:103CD00053F820208A4207D9002805D0401E80B220
:103CE00053F820208A42F7D85DF8044B704753F808
:103CF00020208A4205D2401C80B253F820208A42FC
:103D0000F9D30028F0D0401E5DF8044B80B2704714
:103D1000C8390024F8B58C4615461E461A4C616811
:103D200001EB810202EBC101184A02EB8101CCEBED
:103D30000C12C96D00EB421001EB400714484FF420
:103D4000403141600321816040F2DF11C1601149BF
:103D5000016000F0C3F8002814D10D48616800F03C
:103D60004DF800280ED10A4801233A463146009505
:103D700000F0BBF9002805D1BDE8F84004480A214D
:103D800000F002B9F8BD0000640700243CF20324EF
:103D9000E4F20324001000524DF804ED83B002AAAF
:103DA00001A913A013F0E3FF0298124BC1698A1E08
:103DB000418902FB01F0C00AC3F8E4000E4A9042B8
:103DC00001D9C3F8E420019801FB00F0C00AC3F850
:103DD000E000904201D9C3F8E020D3F8E010D3F816
:103DE000E400401AC3F8E40003B05DF804FB0000EF
:103DF000303A0000000000249F86010070B4426841
:103E0000012900D1826C90F86020012A24D001257C
:103E100080F86050022280F86120C1EBC10200EB03
:103E200082022832B2F810C01389968A54684FEA89
:103E30000C5C44EA03434CEA465C43EA0C03DFF8BB
:103E400094C00A2C0BD0092C09D0167B43EA0663D8
:103E500051B10B2C1DD021E070BC02207047D668F8
:103E600006F07F463343F3E701684C6A24EA0C0C02
:103E70004CEA03034B6203681168996151680A298F
:103E800001D009291ED1D168026821F07F419162D9
:103E900018E0118B43EA8143DFF83CC00168CC692C
:103EA00024EA0C0C4CEA0303CB6103681168196126
:103EB00051680A2901D0092904D1D168026821F08A
:103EC0007F41116280F86150002180F8601000206D
:103ED00070BC70470F0033FF0F003FFF70B5044602
:103EE000002C04D094F86100002510B106E00120F8
:103EF00070BD84F86050204600F032F8022084F84B
:103F00006100E169606801432068026822F04002B4
:103F100022F4E02211430160A169A06801432068F6
:103F2000426B22F0070222F4807211434163206841
:103F3000016CE2686FF30F0111430164208AA18ACA
:103F4000000540EA41512068426B22F440121143BF
:103F500041636566012084F86100002070BD0000A7
:103F600081B00068A0F1A441B1F5805108D10548A5
:103F7000016841F010010160006800F0100000903D
:103F800001B07047D44402582DE9F84304460D4669
:103F900000270097206800684FF004084FF00309DD
:103FA00010F0010F36D001F039FD06462068406858
:103FB00010F0020F2ED1206840680090009810F099
:103FC000210F19D0009810F0200F03D0606E40F040
:103FD00002006066009810F0010F03D0606E40F0A0
:103FE0000100606621682120886084F8618084F87F
:103FF00060700120BDE8F883B5F1FF3F05D001F006
:104000000DFD801BA84218D8BDB12068406810F093
:10401000020FD0D02068C16901F02001406A00F091
:104020002000084300284AD001F0F8FC064620682A
:10403000406810F0100F0BD041E0606E40F020009F
:10404000606684F8619084F860700320BDE8F883AE
:10405000206840680090009810F0290F21D0009847
:1040600010F0080F03D0606E40F004006066009806
:1040700010F0200F03D0606E40F0020060660098E0
:1040800010F0010F03D0606E40F0010060662168FF
:104090002920886084F8618084F860700120BDE880
:1040A000F883B5F1FF3F05D001F0B8FC801BA842B2
:1040B00010D87DB12068406810F0100FC8D021687A
:1040C00012208860012084F8610084F8607000206C
:1040D000BDE8F883606E40F02000606684F861906F
:1040E00084F860700320BDE8F88338B5044604986E
:1040F00094F860C0BCF1010F12D04FF0010C84F8AD
:1041000060C04FF0020C84F861C000902046FDF7BB
:1041100019FE2068016841F001010160002038BDEE
:10412000022038BD2DE9F84F044601F077FC0090DD
:104130005CB194F8350002280AD080206065002028
:1041400084F834000120BDE8F88F0120BDE8F88F25
:10415000B6492068B64EB74F8842DFF8DC82DFF8F8
:10416000DC92DFF8DCA2DFF8DCB226D0B04224D04B
:10417000B84222D0404520D048451ED050451CD0E2
:1041800058451AD0B04A904217D0B04A904214D045
:10419000AF4A904211D0AF4A90420ED0AE4A904200
:1041A0000BD0AE4A904208D0AD4A904205D0AD4AFD
:1041B000904202D0AC4A90420AD1026822F01E021C
:1041C00002602068426922F080024261256804E0B2
:1041D000026822F00E0202602568206888423ED004
:1041E000B0423CD0B8423AD0404538D0484536D0AD
:1041F000504534D0584532D0934A90422FD0934AFC
:1042000090422CD0924A904229D0924A904226D095
:10421000914A904223D0914A904220D0904A9042B5
:104220001DD0904A90421AD08F4A904217D08F4AA0
:10423000904214D08E4A904211D08E4A90420ED0B5
:104240008D4A90420BD08D4A904208D08C4A9042C1
:1042500005D08C4A904202D08B4A904204D1206E05
:10426000026822F48072026070492068884226D079
:10427000B04224D0B84222D0404520D048451ED07C
:1042800050451CD058451AD06F49884217D06F4905
:10429000884214D06E49884211D06E4988420ED0AF
:1042A0006D4988420BD06D49884208D06C498842DC
:1042B00005D06C49884202D06B49884204D101681C
:1042C00021F00101016003E0016821F001010160BA
:1042D000286810F0010F14D001F0A0FB0099401ADB
:1042E00005280AD920206065032084F835000020C5
:1042F00084F834000120BDE8F88F286810F0010F21
:10430000EAD14A4A01212068904226D0B04224D006
:10431000B84222D0404520D048451ED050451CD040
:1043200058451AD0484B984217D0484B984214D061
:10433000474B984211D0474B98420ED0464B98427B
:104340000BD0464B984208D0454B984205D0454B80
:10435000984202D0444B98420AD1A06D4FF03F0CD6
:1043600094F85C3003F01F030CFA03F3836007E05A
:10437000A06D94F85C3003F01F0301FA03F343606F
:10438000206890423ED0B0423CD0B8423AD040453E
:1043900038D0484536D0504534D0584532D02A4AD6
:1043A00090422FD0294A90422CD0294A904229D0BD
:1043B000284A904226D0284A904223D0274A904249
:1043C00020D0274A90421DD0264A90421AD0264A31
:1043D000904217D0254A904214D0254A904211D0DD
:1043E000244A90420ED0244A90420BD0234A904255
:1043F00008D0234A904205D0224A904202D0224A55
:1044000090420BD1626EA06E5060E06E30B10268D7
:1044100022F480720260226F606F506084F8351061
:10442000002084F83400BDE8F88F0000100002403E
:104430002800024040000240580002407000024044
:1044400088000240A0000240B80002401004024070
:104450002804024040040240580402407004024014
:1044600088040240A0040240B804024008540258E4
:104470001C5402583054025844540258585402589C
:104480006C54025880540258945402582DE9F05F3D
:10449000002808D090F83510022907D08021416506
:1044A0000120BDE8F09F0120BDE8F09FDFF81CE28D
:1044B0000168874BDFF81CC27145874C874D884ED9
:1044C000884FDFF82482DFF82492DFF824A2DFF897
:1044D00024B2894A25D0994223D0614521D0A142F6
:1044E0001FD0A9421DD0B1421BD0B94219D0DFF86C
:1044F0000CE2714515D0DFF808E2714511D0DFF804
:1045000004E271450DD041450BD0494509D0DFF893
:10451000F8E1714505D0514503D0594501D091428C
:1045200032D14FF0040E80F835E06848814221D046
:1045300099421FD061451DD0A1421BD0A94219D07C
:10454000B14217D0B94215D06C48814212D06C48A4
:1045500081420FD06B4881420CD041450AD0494579
:1045600008D06948814205D0514503D0594501D052
:10457000914204D1086820F001000860A3E00868B7
:1045800020F0010008609EE0D1F800E02EF00E0E51
:10459000C1F800E0DFF834E10168714525D09942A7
:1045A00023D0614521D0A1421FD0A9421DD0B142E4
:1045B0001BD0B94219D0DFF844E1714515D0DFF8BE
:1045C00040E1714511D0DFF83CE171450DD0414526
:1045D0000BD0494509D0DFF830E1714505D0514590
:1045E00003D0594501D0914206D1D1F800E02EF018
:1045F000010EC1F800E005E0D1F800E02EF0010E58
:10460000C1F800E0DFF8C4E00168714539D0994293
:1046100037D0614535D0A14233D0A94231D0B14223
:104620002FD0B9422DD0354B99422AD0344B9942E4
:1046300027D0344B994224D0414522D0494520D03F
:10464000314B99421DD051451BD0594519D091424B
:1046500017D02E4A914214D02D4A914211D02D4AA2
:1046600091420ED02C4A91420BD02C4A914208D054
:104670002B4A914205D02B4A914202D02A4A9142BC
:1046800018D1016E0A6822F480720A60816D90F878
:104690005C2002F01F0301229A404A60426E816E44
:1046A0005160C16E31B10A6822F480720A60026FF3
:1046B000416F5160012180F83510002180F83410DD
:1046C000016D01B188470020BDE8F09F1000024055
:1046D00028000240400002405800024070000240A2
:1046E00088000240A00002404004024058040240FA
:1046F00088040240A0040240B8040240B80002400E
:104700001004024028040240700402400854025879
:104710001C540258305402584454025858540258F9
:104720006C5402588054025894540258406D70479B
:104730002DE9F04F83B00446002002904FF416514B
:10474000FD480068B0FBF1F00190A56D2E68296866
:10475000FA4F2068DFF8E8A3DFF8E8B3B842DFF8E3
:10476000E883DFF8E8932DD0524690422AD05A468B
:10477000904227D0404525D0484523D0F44A904266
:1047800020D0F44A90421DD0F34A90421AD0F34A06
:10479000904217D0DFF8C8C3604513D0F14A904269
:1047A00010D0DFF8C4E370450CD0F04A904209D035
:1047B000EF4A904206D0EF4A904203D0EE4B984227
:1047C00040F0408294F85C10082201F01F0102FAC8
:1047D00001F1314241D0B84228D0504526D0584549
:1047E00024D0404522D0484520D0D94988421DD008
:1047F000D84988421AD0D849884217D0D749884228
:1048000014D0D749884211D0D64988420ED0D64913
:1048100088420BD0D549884208D0D549884205D076
:10482000D449884202D0D449884203D1016801F0BA
:10483000040102E0016801F0080171B1016821F092
:104840000401016094F85C0000F01F0002FA00F01F
:10485000A860606D40F00100606594F85C0000F0B5
:104860001F01012000FA01F1314234D02068B84222
:1048700028D0504526D0584524D0404522D0484520
:1048800020D0B34A90421DD0B24A90421AD0B24AC8
:10489000904217D0B14A904214D0B14A904211D000
:1048A000B04A90420ED0B04A90420BD0AF4A9042EC
:1048B00008D0AF4A904205D0AE4A904202D0AE4AEC
:1048C00090427DD1406910F0800F04D0A960606DE6
:1048D00040F00200606594F85C0000F01F010420C5
:1048E00000FA01F1314234D02068B84228D0504556
:1048F00026D0584524D0404522D0484520D0944A5F
:1049000090421DD0934A90421AD0934A904217D0B9
:10491000924A904214D0924A904211D0914A9042C9
:104920000ED0914A90420BD0904A904208D0904AC3
:10493000904205D08F4A904202D08F4A904245D192
:10494000006810F0020F04D0A960606D40F0040010
:10495000606594F85C0000F01F01102000FA01F17E
:10496000314259D02068B84228D0504526D0584509
:1049700024D0404522D0484520D0754A90421DD0D1
:10498000744A90421AD0744A904217D0734A9042A7
:1049900014D0734A904211D0724A90420ED0724A9B
:1049A00090420BD0714A904208D0714A904205D093
:1049B000704A904202D0704A904209D1006800E0EB
:1049C00002E000F0080006E0006884E70068C0E745
:1049D000006800F00400F8B1A9602068016811F4D3
:1049E000802F0DD0006810F4002F04D0A16C99B175
:1049F0002046884710E0216C71B1204688470BE0C3
:104A0000016811F4807F03D1016821F00801016081
:104A1000216C09B12046884794F85C0000F01F0122
:104A2000202000FA01F131426FD02068B84228D02E
:104A3000504526D0584524D0404522D0484520D066
:104A4000434A90421DD0434A90421AD0424A904273
:104A500017D0424A904214D0414A904211D0414A64
:104A600090420ED0404A90420BD0404A904208D02B
:104A70003F4A904205D03F4A904202D03E4A90427F
:104A800003D1006800F0100002E0006800F00200AE
:104A9000D8B3A96094F8350004280DD020680168C7
:104AA00011F4802F37D0006810F4002F2ED0E16B66
:104AB00059B32046884764E02068016821F0160158
:104AC00001602068416921F080014161206C08B9D2
:104AD000A06C20B12068016821F00801016094F801
:104AE0005C003F2100F01F0001FA00F0A8600120E7
:104AF00084F83500002084F83400216D00297BD033
:104B000003B02046BDE8F04F084737E0616CA9B319
:104B10002046884735E0016811F4807F09D101689B
:104B200021F010010160012084F83500002084F894
:104B30003400E16B11B322E05C0700241000024056
:104B4000280002404000024058000240700002402D
:104B500088000240A0000240B80002401004024059
:104B600028040240400402405804024070040240FD
:104B700088040240A0040240B804024001E020463C
:104B80008847606D002837D0606D10F0010F51D05C
:104B9000042084F835002068B84228D0504526D03B
:104BA000584524D0404522D0484520D0AB498842C2
:104BB0001DD0AB4988421AD0AA49884217D0AA49C9
:104BC000884214D0A949884211D0A94988420ED000
:104BD000A84988420BD0A849884208D0A7498842F2
:104BE00005D0A749884202D0A649884205D101686C
:104BF00021F00101016004E096E0016821F001016B
:104C0000016021680298019A401C0290904203D8EA
:104C1000086810F0010FF5D1086810F0010F03D0FB
:104C2000032084F8350002E0012084F835000020DC
:104C300084F83400E16C002976D003B02046BDE84A
:104C4000F04F0847904B984214D0904B984211D0A7
:104C50008F4B98420ED08F4B98420BD08E4B984280
:104C600008D08E4B984205D08D4B984202D08D4B88
:104C7000984259D103684FF0040A94F85C6006F03A
:104C80001F060AFA06FA1AEA010F5AD013F0040FA7
:104C900057D0C5F804A013F4004F12D013F4803F8E
:104CA00007D0216C00293FD003B02046BDE8F04F6B
:104CB0000847A16C002937D003B02046BDE8F04F6B
:104CC000084713F0200F34D12068B84227D0764926
:104CD000884224D07549884221D040451FD048459C
:104CE0001DD05E4988421AD05D49884217D05D497F
:104CF000884214D05C49884211D060450FD05C498D
:104D000088420CD070450AD05B49884207D05B4985
:104D1000884204D0904202D05A49884205D10168A5
:104D200021F00801016004E083E0016821F0040142
:104D30000160216C00297CD003B02046BDE8F04F13
:104D400008474FF0020A0AFA06FA1AEA010F5FD082
:104D500013F0020F5CD0C5F804A013F4004F12D07A
:104D600013F4803F07D0E16B002974D003B02046D4
:104D7000BDE8F04F0847616C00296CD003B02046B5
:104D8000BDE8F04F084713F0200F39D12068B84232
:104D900027D04549884224D04449884221D0404503
:104DA0001FD048451DD02D4988421AD02C49884231
:104DB00017D02C49884214D02B49884211D0604525
:104DC0000FD02B4988420CD070450AD02A4988421E
:104DD00007D02A49884204D0904202D0294988420B
:104DE00004D1016821F01401016003E0016821F0A1
:104DF0000A010160012084F83500002084F83400A5
:104E0000E16B002927D003B02046BDE8F04F0847EA
:104E10000822B2400A421ED013F0080F1BD00168CE
:104E200021F00E01016094F85C0000F01F010120E8
:104E300000E010E000FA01F16960606584F8350077
:104E4000002084F83400E16C002904D003B020462F
:104E5000BDE8F04F084703B0BDE8F08F880002407E
:104E6000A0000240B80002401004024028040240A2
:104E7000400402405804024070040240880402408A
:104E8000A0040240B8040240085402581C540258BE
:104E90003054025844540258585402586C54025822
:104EA00080540258945402582800024040000240A6
:104EB0002DE9F05F044600F0B1FD0646002C6AD0F3
:104EC000DC4F022220680025DFF86C83DFF86C934A
:104ED000B842DFF86CA3DFF86CB328D0DA49884217
:104EE00025D0404523D0484521D050451FD05845B6
:104EF0001DD0D64988421AD0D549884217D0D54905
:104F0000884214D0D449884211D0D44988420ED066
:104F1000D34988420BD0D349884208D0D24988422D
:104F200005D0D249884202D0D14988427ED184F846
:104F3000352084F83450B84228D0C349884225D05F
:104F4000404523D0484521D050451FD058451DD05D
:104F5000BE4988421AD0BE49884217D0BD4988420E
:104F600014D0BD49884211D0BC4988420ED0BC49FA
:104F700088420BD0BB49884208D0BB49884205D043
:104F8000BA49884202D0BA49884207D1016821F063
:104F90000101016006E00120BDE8F09F016821F0F9
:104FA000010101602068006810F0010F11D000F0CD
:104FB00035FD801B052807D920206065032084F873
:104FC00035000120BDE8F09F2068006810F0010F57
:104FD000EDD122681068A7490840E368A168D4F8B9
:104FE00014C01943236943EA0C031943A369194305
:104FF000E3691943236A19430843616A042903D109
:10500000236BE16A194308439B4909686FF30F0159
:10501000B1F1005F11D36168A1F12903052B0AD911
:10502000163B032B07D9083B012B00E02CE002D9EB
:105030004F39032901D840F480101060206840697E
:1050400020F00701606A40EA010604280ED1A06A38
:105050000643E06A50B12046FCF7B8FF30B140206B
:105060006065012084F83500BDE8F09F2068466146
:105070002046FCF787FE94F85C103F2201F01F01E8
:1050800002FA01F181605BE07C49884214D07C4BDC
:10509000984211D07B4B98420ED07B4B98420BD05C
:1050A0007A4B984208D07A4B984205D0794B984277
:1050B00002D0794B98427DD188420CD07049884209
:1050C00009D07049884206D06F49884203D06F49A1
:1050D000884200D06E4984F8352084F83450026844
:1050E0006FF31012A168402979D0802979D000216E
:1050F000E36841EAD301236941EAD301636941EAE4
:10510000D301A36941EAD301E36941EAD301236AE8
:1051100041EA13111143016060492068014460486D
:10512000A0FB011000098000E0652046FCF72AFE84
:1051300094F85C10012201F01F0102FA01F14160B4
:105140002068B84242D0404988423FD040453DD0D7
:1051500048453BD0504539D0584537D03B49884227
:1051600034D03B49884231D03A4988422ED03A491E
:1051700088422BD03949884228D03949884225D0E5
:105180003849884222D0384988421FD0374988425E
:105190001CD03749884219D03849884216D038493E
:1051A000884213D03749884210D0374988420DD001
:1051B000364900E018E0884208D03549884205D0D9
:1051C0003449884202D0344988422CD12046FCF729
:1051D0004BFEA06880280FD00FE000E001E0102116
:1051E00086E74FF4804183E740206065032084F820
:1051F00035000120BDE8F09F6560216E20790860D0
:10520000616EA06E48606068401E072808D820467E
:10521000FCF796FEE06E0560216F606F486002E06B
:10522000E566256765676565012084F8350000201F
:10523000BDE8F09F100002404000024058000240CC
:10524000700002408800024028000240A000024096
:10525000B80002401004024028040240400402400A
:10526000580402407004024088040240A004024036
:10527000B80402403F8010FE0010005C0854025841
:105280001C5402583054025844540258585402587E
:105290006C5402588054025894540258F8ABFDA73D
:1052A000CDCCCCCC2DE9F84F044600200090002C4A
:1052B00016D094F83400012815D0012084F8340069
:1052C00094F835C00020BCF1010F0FD04FF40061FD
:1052D000616584F83400012000900098BDE8F88FE3
:1052E0000120BDE8F88F0220BDE8F88F4FF0020CD6
:1052F00084F835C06065DFF82CC220688A4D8B4E7B
:1053000060458B4FDFF82C82DFF82C92DFF82CA25F
:10531000DFF82CB22DD0A8422BD0B04229D0B84211
:1053200027D0404525D0484523D0504521D0584569
:105330001FD0DFF810C260451BD0DFF80CC26045FB
:1053400017D0DFF808C2604513D0DFF804C260450B
:105350000FD0DFF800C260450BD0DFF8FCC160451C
:1053600007D0DFF8F8C1604503D0DFF8F4C160452D
:1053700006D1D0F800C02CF0010CC0F800C005E048
:10538000D0F800C02CF0010CC0F800C02046FCF79B
:105390005DFE64492068884225D0A84223D0B042EF
:1053A00021D0B8421FD040451DD048451BD05045A4
:1053B00019D0584517D0634A904214D0624A90429F
:1053C00011D0624A90420ED0614A90420BD0614A9D
:1053D000904208D0604A904205D0604A904202D084
:1053E0005F4A90420DD1026822F01E0242F016027E
:1053F0000260206C90B12068026842F008020260EE
:105400000CE0026822F00E0242F00A020260206CF8
:1054100020B12068026842F00402026020688842DD
:105420003DD0A8423BD0B04239D0B84237D04045F9
:1054300035D0484533D0504531D058452FD0414A1A
:1054400090422CD0404A904229D0404A904226D0E7
:105450003F4A904223D03F4A904220D03E4A904259
:105460001DD03E4A90421AD03D4A904217D03D4A44
:10547000904214D03C4A904211D03C4A90420ED007
:105480003B4A90420BD03B4A904208D03A4A904265
:1054900005D03A4A904202D0394A90420ED1206E4D
:1054A000026812F4803F03D0026842F48072026006
:1054B000E06E18B1026842F480720260206888428F
:1054C00025D0A84223D0B04221D0B8421FD04045B9
:1054D0001DD048451BD0504519D0584517D0194903
:1054E000884214D01849884211D0184988420ED0F9
:1054F000174988420BD01749884208D0164988427C
:1055000005D01649884202D01549884204D1016865
:1055100041F001010160E0E6016841F00101016034
:10552000DBE600001000024028000240400002407C
:10553000580002407000024088000240A000024073
:10554000B800024010040240280402404004024017
:10555000580402407004024088040240A004024043
:10556000B8040240085402581C54025830540258DF
:1055700044540258585402586C54025880540258EB
:105580009454025870B5044600F048FA0546B4F148
:10559000FF3F02D004480078044400F03FFA401B6B
:1055A000A042FAD370BD000050070024F0B587B0C8
:1055B00000240294039404940594069428480168F6
:1055C00000294BD1012101602648016841F4805136
:1055D0000160006800F4805001904FF683700290E3
:1055E00002260396032705970C2506951E4802A957
:1055F00000F006F948F237100290039604940597DC
:10560000069502A9194800F0FBF84CF203700290CD
:10561000039604940597069502A9154800F0F0F842
:105620004FF63F000290039604940597069502A951
:10563000104800F0E5F80295039604940597069546
:1056400002A90D4800F0DCF8202002900396049493
:105650000597069502A9094800F0D2F807B0F0BDF9
:1056600044070024D444025800100258001802587D
:10567000000C02580014025800080258001C02587E
:105680002DE9F04F00235D4C00297DD04FF0B04A4A
:105690004FF0010E4FF00F090EFA03F707EA010C65
:1056A000BCF1000F71D023F0030202F1B045D5F830
:1056B00008249E074FEA167809FA08F606EA020B54
:1056C000A0F1B042B2F500327BD0A0F1B042B2F509
:1056D00001327ED0A0F1B042B2F502327BD0A0F10F
:1056E000B042B2F5033278D0A0F1B042B2F5043244
:1056F00075D0A0F1B042B2F5053272D0A0F1B0423F
:10570000B2F5063272D0A0F1B042B2F507326FD0D6
:10571000A0F1B042B2F508326CD0A0F1B042B2F5BF
:10572000093269D00A2202FA08F25A4518D12268D1
:1057300022EA0C022260626822EA0C026260DAF855
:10574000042022EA0C02CAF80420DAF8002022EA37
:105750000C02CAF80020D5F80824B243C5F8082482
:10576000D0F800C05D000322AA404CEA020CC0F849
:1057700000C04FEAD30C00EB8C0CDCF820505E0725
:10578000F60E09FA06F601E019E013E0B543CCF88D
:105790002050D0F80CC02CEA020CC0F80CC0D0F895
:1057A00004C02CEA070CC0F804C0D0F808C02CEAEA
:1057B000020282605B1C31FA03F27FF46DAFBDE838
:1057C000F08F04E005E006E007E008E009E00022D1
:1057D000A9E70122A7E70222A5E70322A3E7042203
:1057E000A1E705229FE701E002E003E006229AE735
:1057F000072298E7082296E7092294E780000058DC
:105800002DE9F84F0022DFF8E4C10B68002B7DD0B2
:10581000DFF8DCB14FF0B04A4FF0010E4FF0030853
:105820004FF00F090B680EFA02F52B40002B6ED0DB
:105830000C7904F00304012C01D0022C11D18668EC
:10584000540008FA04F7BE43CF6807FA04F434435F
:1058500084604468AC430D79C5F3001595402C4332
:1058600044604C6838EA040409D0C568540008FA5A
:1058700004F6B5438E6806FA04F42C43C4600C7930
:1058800004F00304022C0DD1D40800EB84052E6A29
:105890005407E40E09FA04F7BE430F6907FA04F44B
:1058A00034432C620568540008FA04F6B5430E79B7
:1058B00006F0030606FA04F42C4304604C6814F462
:1058C000403F78D0DBF8004044F00204CBF80040C1
:1058D000DBF8004004F00204009422F0030404F119
:1058E000B046D6F8084495072D0F09FA05F724EAC3
:1058F0000707A0F1B044B4F5003463D0A0F1B04480
:10590000B4F5013460D0A0F1B04401E058E052E0B9
:10591000B4F502345AD0A0F1B044B4F5033457D0F2
:10592000A0F1B044B4F5043454D0A0F1B044B4F5BF
:10593000053451D0A0F1B044B4F506344ED0A0F1F6
:10594000B044B4F507344BD0A0F1B044B4F50834FA
:1059500048D0A0F1B044B4F5093445D00A24AC4095
:105960003C43C6F80844DAF800409C434D6815F4FF
:10597000801F00D01C43CAF80040DAF804409C4362
:105980004D6815F4001F00D01C43CAF80440DCF831
:1059900004409C434D6815F4003F00D01C43CCF8F4
:1059A0000440DCF800409C434D6815F4803F00D073
:1059B0001C43CCF80040521C0B68D3407FF432AF3C
:1059C000BDE8F88F0024CAE70124C8E70224C6E72F
:1059D0000324C4E70424C2E70524C0E70624BEE785
:1059E0000724BCE70824BAE70924B8E78000005878
:1059F000F44402580069084201D001207047002099
:105A00007047002A01D081617047090481617047A5
:105A100001480068000C70470010005C0148806875
:105A20007047000050070024024881680278114442
:105A3000816070475007002410B5032000F050FA31
:105A400002F034FA0F4A1168C1F303230E49CB5C0C
:105A500003F01F03D840126802F00F02895C0B4A62
:105A600001F01F0120FA01F11160094908600F20BF
:105A700000F010F808B1012010BD00F0DFF900209F
:105A800010BD0000184402583CF9010860070024CA
:105A90005C07002470B504460F4D2A78002A0CD00C
:105AA0004FF47A700D49B0FBF2F00968B1FBF0F0E9
:105AB00004F056FC18B1012070BD012070BD102CFF
:105AC00007D200222146501E00F0D4F96C6000205D
:105AD00070BD012070BD0000500700245C07002449
