:020000040800F2
:10000000A8B10024B10200083F90000899830008BD
:100010003D9000087908000855B80008000000006D
:100020000000000000000000000000003DA80008E3
:10003000CD0D000800000000419000083FA8000816
:10004000CB020008CB020008CB020008CB0200085C
:10005000CB020008CB020008CB020008CB0200084C
:10006000CB020008CB020008CB020008CB0200083C
:10007000CB020008CB020008CB020008CB0200082C
:10008000CB020008CB020008CB020008CB0200081C
:10009000CB020008CB020008CB020008CB0200080C
:1000A000CB020008CB020008CB020008CB020008FC
:1000B00019AA00089DAA0008CB020008CB0200087C
:1000C000CB020008CB020008CB020008CB020008DC
:1000D000E1A60008FDB70008CB020008CB0200082B
:1000E000CB020008CB02000800000000CB02000891
:1000F000CB020008CB020008CB020008CB020008AC
:10010000CB020008CB020008CB020008CB0200089B
:1001100055AF0008CB020008CB020008CB02000854
:10012000A1080008AD080008CB020008CB020008B7
:10013000CB020008CB020008CB020008CB0200086B
:1001400000000000000000000000000000000000AF
:10015000CB020008CB020008CB020008CB0200084B
:10016000CB020008CB020008CB020008CB0200083B
:10017000CB020008CB020008CB020008CB0200082B
:10018000CB020008CB020008B5AF0008CB02000884
:10019000CB020008CB020008CB0200083996000809
:1001A000CB020008CB020008CB020008CB020008FB
:1001B000CB020008CB020008CB020008CB020008EB
:1001C000CB020008CB020008CB020008CB020008DB
:1001D000CB020008CB020008CB020008CB020008CB
:1001E000CB020008CB020008CB020008CB020008BB
:1001F000CB020008CB020008CB020008CB020008AB
:10020000CB020008CB020008CB020008CB0200089A
:10021000CB020008CB020008CB020008CB0200088A
:10022000CB020008CB020008CB020008000000004F
:10023000CB020008CB02000800000000CB0200083F
:10024000CB020008CB020008CB020008CB0200085A
:10025000CB020008CB020008CB020008CB0200084A
:10026000CB020008CB020008CB020008CB0200083A
:10027000CB020008CB020008CB02000800000000FF
:10028000CB020008CB020008CB02000800000000EF
:1002900000000000CB020008DFF810D000F092F858
:1002A0000048004735D60008AFF30080A8B100240D
:1002B0000648804706480047FEE7FEE7FEE7FEE700
:1002C000FEE7FEE7FEE7FEE7FEE7FEE731A90008EE
:1002D000990200082DE9F05F0546002092469B46F2
:1002E00088460646814640241BE02846414647464C
:1002F000224600F057F853465A46C01A914110D38F
:1003000011461846224600F03EF82D1A67EB010808
:100310004F4622460120002100F035F817EB000976
:100320004E41201EA4F10104DFDC484631462A4636
:100330004346BDE8F09FD2B201E000F8012B491E10
:10034000FBD270470022F6E710B513460A46044672
:100350001946FFF7F0FF204610BD30B50B460146A9
:1003600000202022012409E021FA02F59D4205D354
:1003700003FA02F5491B04FA02F52844151EA2F1FE
:100380000102F1DC30BD202A04DB203A00FA02F140
:10039000002070479140C2F1200320FA03F3194373
:1003A00090407047202A04DB203A21FA02F0002115
:1003B000704721FA02F3D040C2F120029140084375
:1003C00019467047064C074D06E0E06840F001030F
:1003D00094E8070098471034AC42F6D3FFF760FF6B
:1003E000147701083477010870B58D1810F8014BA7
:1003F00014F0030201D110F8012B231106D110F8DB
:10040000013B03E010F8016B01F8016B521EF9D1BA
:10041000ABB110F8012B04F00C048A1A0C2C03D099
:10042000A2EB84129B1C08E010F8014BA2EB042203
:10043000F8E712F8014B01F8014B5B1EF9D5A94210
:10044000D4D3002070BD000010B582B0044600F087
:10045000E3F8034600F0D0F8024601940020009033
:100460000748DFF820C0406800EB800101EBC001C5
:100470000CEB8101C96D07F0A9FF02B010BD0000AF
:100480005C640024489E002430B4DFF830C00A4B7E
:10049000DCF804C003EBCC035B68DC88D3F800C055
:1004A0009B88DB1DDB08203A03FB02F204FB02C23F
:1004B00030BC00F0A3BD0000589F00245C64002401
:1004C0002DE9F05F04468B4615460022681C29780A
:1004D000002904D0521C10F8011B0029FAD100F0A9
:1004E0008BF8374FDFF8D480796808EBC101496891
:1004F0008988B0FBF1F001264FF0000C072B2BD2BE
:10050000DFE803F02A1F1504090D110087F800C069
:100510004FF4F07624E03E704FF4F07620E03E7029
:100520004FF485761CE03E704FF4CF7618E0801AC9
:1005300000FB01F0001B84B287F800C04FF4F07696
:100540000EE0801A00FB01F004EB500084B287F843
:1005500000C04FF4F07603E087F800C04FF4F07667
:10056000601E47F6FF71884200D30124DFF854A0D3
:10057000AAF1100914E059462046FFF785FF786874
:1005800008EBC0004068504506D12878A11C10F83F
:100590000900084484B202E08088204484B26D1CC3
:1005A0002A78002A07D07968301B08EBC101496816
:1005B00089888842DFDABDE8F09F0000589F002458
:1005C0005C6400246464002410B503460C4600F00B
:1005D00013F804FB00310648406800EB800303EB8E
:1005E000C000044B03EB8000C06D20F8112010BD4B
:1005F0005C640024489E00240548406800EB8001AC
:1006000001EBC000034901EB8000006E7047000061
:100610005C640024489E00240548406800EB80018B
:1006200001EBC000034901EB8000406E7047000001
:100630005C640024489E002410B51A485D21416185
:10064000102181616321C16112210162FB2181625C
:1006500040F243214162FE2101634FF41B71C162EC
:100660004FF4F0710166E9214166002180F83410F1
:1006700080F8351080F8361041608160C1600161FA
:100680000949016002F0DEFC18B90648002100F0BB
:1006900049F8044802F0DAFC044800F06FF8002042
:1006A00010BD0000489E0024001000506C6400241F
:1006B00010B58EB00446002301934FF4F070029001
:1006C0000393E92204924FF0030CCDF814C00A9171
:1006D000FF21069107938DF834308DF835308DF871
:1006E00036304FF4C0610891072109910B900C92AC
:1006F00001A90948224602F067FC08484FF6FF723C
:1007000000EBC4014A80064A4A604FF4004120F8D9
:1007100034100EB010BD0000489E0024589F0024E5
:100720006C64002481B00A48016841F0080101604E
:10073000006800F0080000900648016841F01001D0
:100740000160006800F01000009001B070470000E8
:10075000E4440258D44402580149486070470000FC
:100760005C640024044A0349526801EBC2014880DA
:1007700070470000589F00245C640024044A034929
:10078000526801EBC201486070470000589F002486
:100790005C640024034A0249526821F83200704721
:1007A000589F00245C6400240246014802F04ABDC0
:1007B000489E002410B501240348202102F08EFB3E
:1007C00000B90024204610BD000C02580146014823
:1007D00005F07ABEE088002410B5044805F086FED6
:1007E000042801D0012010BD002010BDE0880024A5
:1007F00010B500F015F8012801D0022010BD0748FF
:1008000005F0FAFE044634B904484FF4804105F07F
:10081000CDFC00B10124204610BD0000E08800247A
:1008200008B501200090FFF7C5FF08B9002000902F
:100830009DF8000008BD000038B500240093134661
:100840000A460146034805F0FBFF00B1012420469B
:1008500038BD0000E088002438B50024009313461A
:100860000A460146034806F0FFF800B1012420467D
:1008700038BD0000E0880024FEE730B4029CD0F8C8
:1008800000C0DCF8445044EA034305F040452B43E4
:10089000CCF844300368DA630068816330BC704789
:1008A000014801F061BA00006C8A0024014801F09F
:1008B0005BBA0000E48A0024264A016891422CD0E9
:1008C000254A914229D0254A914226D0244A914274
:1008D00023D0244A914220D0234A91421DD0234A5A
:1008E00091421AD0224A914217D0224A914214D002
:1008F000214A914211D0214A91420ED0204A914280
:100900000BD0204A914208D01F4A914205D01F4A7D
:10091000914202D01E4A914217D11E4BCAB2103AE0
:10092000A3FB02321209DFF870C002F007031CF8C3
:100930000330C365032A04D96FF30901091D8165DA
:1009400006E06FF30901816502E021F0FF01816596
:10095000806D7047100002402800024040000240B5
:10096000580002407000024088000240A00002408F
:10097000B800024010040240280402404004024033
:10098000580402407004024088040240A00402405F
:10099000B8040240ABAAAAAA245D01080168012399
:1009A000DFF894C0CAB261451BD0DFF890C0614542
:1009B00017D0DFF88CC0614513D0DFF888C06145DF
:1009C0000FD0DFF884C061450BD0DFF880C06145EF
:1009D00007D0DFF87CC0614503D0DFF878C06145FF
:1009E00011D1A2F108011C4AA2FB012109091B4AED
:1009F00002EB810202661A4A426601F01F0103FA05
:100A000001F181667047DFF85CC0103AACFB02C2AE
:100A10001209DFF854C06144A82900D808321349EC
:100A200001EB820101661249416602F01F0103FADF
:100A300001F1816670470000085402581C540258A6
:100A40003054025844540258585402586C540258B6
:100A50008054025894540258CDCCCCCC0058025843
:100A600080580258ABAAAAAAF0FBFDBF00080240BA
:100A70008008024001794A1E072A28D8144B0168D1
:100A8000994214D0134B994211D0134B99420ED076
:100A9000124B99420BD0124B994208D0114B9942FC
:100AA00005D0114B994202D0104B994206D1104902
:100AB00001EB8201C1660F49016705E00E4901EBB8
:100AC0008201C1660D49016701219140416770476C
:100AD000085402581C5402583054025844540258C6
:100AE000585402586C540258805402589454025876
:100AF000005902584059025800090240400902407A
:100B0000014600208B698A6A002B0FD0B3F5005F85
:100B10001DD08AB3012A30D0022A2ED0032A04D154
:100B2000C96A11F0807F00D0012070471AB1012AF4
:100B300007D0022AF9D1C96A11F0807FF5D00120CF
:100B40007047C96AB1F1C07FFAD1012070475AB12C
:100B5000012A0BD0022A07D0032AF7D1C96AB1F1C2
:100B6000C07FF3D10120704701207047C96A11F09E
:100B7000807FFAD001207047FFE701207047000016
:100B80002DE9F04F846D794ED0F800C0784FDFF832
:100B9000E481B445DFF8E091DFF8E0A1DFF8E0B1EF
:100BA000784D4FD0BC454DD0C4454BD0CC4549D0F5
:100BB000D44547D0DC4545D0DFF8CCE1F44541D001
:100BC000AC453FD0DFF8C4E1F4453BD0DFF8C0E1ED
:100BD000F44537D0DFF8BCE1F44533D0DFF8B8E1B5
:100BE000F4452FD0DFF8B4E1F4452BD0DFF8B0E1C5
:100BF000F44527D0DFF8ACE1F44523D0DFF8A8E1D5
:100C0000F4451FD0DFF8A4E1F4451BD0DFF8A0E1E4
:100C1000F44517D0DFF89CE1F44513D0DFF898E1F4
:100C2000F4450FD0DFF894E1F4450BD0DFF890E104
:100C3000F44507D0DFF88CE1F44503D0DFF888E114
:100C4000F44510D1D0F864E0D0F868C0CEF804C004
:100C5000D0F86CC0BCF1000F05D0D0F870E0D0F82F
:100C600074C0CEF804C0D0F800C0B44526D0BC454E
:100C700024D0C44522D0CC4520D0D4451ED0DC455C
:100C80001CD0414EB44519D0AC4517D03F4DAC45B2
:100C900014D03F4DAC4511D03E4DAC450ED03E4D2D
:100CA000AC450BD03D4DAC4508D03D4DAC4505D0D5
:100CB0003C4DAC4502D03C4DAC4523D190F85CC0D6
:100CC0003F250CF01F0C05FA0CFCC4F808C0D0F846
:100CD00000C0DCF8004024F48024CCF80040D0F8B8
:100CE00000C0CCF804308368402B05D003689960BD
:100CF0000068C260BDE8F08F03689A600068C16058
:100D0000BDE8F08F294DAC4514D0294DAC4511D02C
:100D1000284DAC450ED0284DAC450BD0274DAC45E9
:100D200008D0274DAC4505D0264DAC4502D0264D08
:100D3000AC45E5D190F85CC001250CF01F0C05FA1C
:100D40000CFCC4F804C0D0F800C0CCF804308368B0
:100D5000402B05D0036899600068C260BDE8F08F41
:100D600003689A600068C160BDE8F08F100002401F
:100D7000280002404000024058000240700002403B
:100D800088000240B8000240A00002401004024067
:100D9000280402404004024058040240700402400B
:100DA00088040240A0040240B804024008540258DB
:100DB0001C54025830540258445402585854025893
:100DC0006C540258805402589454025870470000E2
:100DD0002DE9F04104461D4694F8800001280CD00E
:100DE000012784F8807094F881000026012807D03C
:100DF000022084F88060BDE8F0810220BDE8F08127
:100E000029B322B31DB3052084F88100C4F884609F
:100E1000E165A4F86050A4F862506266A4F86850D6
:100E2000A4F86A50266766672068C16821F4C0216B
:100E3000C1602068816821F440418160E0680F282A
:100E40000AD9E16F8969B1F5804F0FD104E0012023
:100E500084F88060BDE8F08107280CD9E16F8969CA
:100E6000B1F5005F07D0B1F5804F04D0012084F8C0
:100E70008060BDE8F08107282AD8A06F8169B1F5AC
:100E8000005F05D1B4F86210491C4908A4F862104B
:100E90008069B0F5804F05D1B4F86200C01C8008AD
:100EA000A4F86200E06F8169B1F5005F05D1B4F884
:100EB0006A10491C4908A4F86A108069B0F5804F8F
:100EC0001ED1B4F86A00C01C8008A4F86A0017E0BC
:100ED0000F2815D8A06F8069B0F5804F05D1B4F800
:100EE0006200401C4008A4F86200E06F8069B0F521
:100EF000804F05D1B4F86A00401C4008A4F86A008D
:100F0000E16F3B480864E16F3A48C863E06FDFF87F
:100F1000E880C0F84C80E06F0665B4F86A3020685D
:100F2000626E00F13001E06F01F0F0FC60B1D4F8C6
:100F3000840040F01000C4F8840084F880603846D3
:100F400084F88170BDE8F0812068816841F48041B7
:100F50008160A06F0664A06FC663A06F0665A06F76
:100F6000C0F84C80B4F862302068E16D00F12002D6
:100F7000A06F01F0CBFC60B1D4F8840040F0100009
:100F8000C4F8840084F88060384684F88170BDE835
:100F9000F081A06FC069B0F5807F19D020684168EA
:100FA0006FF30F01294341602068816841F40041DB
:100FB00081602068016941F458710161206801680D
:100FC00041F0010101606068B0F5800F06D00AE0D1
:100FD000206841686FF30F014160E5E72068016810
:100FE00041F400710160304684F88060BDE8F08112
:100FF000F7A7000801A80008CBA700082DE9F74FC4
:1010000081B007468A4600262F4B2E4A586802EBCD
:10101000C0004068C18800918588E81D20F0070164
:10102000491B01F0FF090099002948D94FEAD0086F
:10103000039808FB0602B8F1010F20D0B8F1020FA7
:1010400020D010785178000440EA0120917840EADD
:10105000010B0024002D2AD9281B4844411E0120E1
:10106000884010EA0B0F12D017491648496830F82B
:101070003120381980B25146FFF7A6FA14E092F8F1
:1010800000B0E6E71178507840EA012BE1E70E481E
:10109000017849B940680B4901EBC00051464288CC
:1010A000381980B2FFF790FA641CAC42D4D30AF12D
:1010B00001001FFA80FA761C00988642B8D304B06B
:1010C000BDE8F08F589F00245C64002472B6FEE7F0
:1010D000002200F001B8000084464DF8044D0120C4
:1010E0000E4B5C7A002C16D1587A1C54587A03EBBC
:1010F0008000C0F804C0587A03F1080C00F80C20F6
:10110000587A421C5A72303008703A2048702F20AA
:101110008870CC7000205DF8044B704798A10024C3
:1011200070B40C68D1F824C00B6A002CCA691CD0BA
:101130001A43036823F4F8434CEA03031A4302609A
:101140008B684A68D1F810C01A43CB6843EA0C0395
:101150001A434B6989691A430A4341686FF30E01C8
:101160001143416070BC002070478D684C680E6967
:101170002C43CD6835432C434D6989692C43214369
:101180001143194341EA0C0201686FF30E01114348
:101190000160E7E742696FF34D0242EA41014161B4
:1011A000002070474B680A681A438B68C9685B1E49
:1011B0005B0143EA41210A4301696FF315011143C1
:1011C0000161002070474DF8044DCB68D1F814C080
:1011D0005B1E002AACF1010C24D01A03836842EA9A
:1011E0000C5223F4704323F470031A4382604B685B
:1011F0000A685B1E521E42EA03128B685B1E42EABB
:1012000003220B8A097E5B1E491E42EA034242EA20
:101210000161C26802F070421143C1605DF8044B85
:10122000002070474C680A68641E521E42EA04128D
:101230008C68641E42EA042242EA03320B8A097E69
:101240005B1E491E42EA034242EA0C5242EA016135
:10125000826802F0704211438160DFE7F8B58C4686
:1012600015461E461A4C616801EB810202EBC10172
:10127000184A02EB8101CCEB0C12C96D00EB421055
:1012800001EB400714484FF4403141600321816075
:1012900040F2DF11C1601149016000F091F80028AF
:1012A00014D10D48616800F01BF800280ED10A48DF
:1012B00001233A463146009500F089F9002805D10E
:1012C000BDE8F84004480A2100F0D0B8F8BD00009D
:1012D0005C640024489E0024F09E0024001000520C
:1012E00070B44268012900D1826C90F86020012A14
:1012F00024D0012580F86050022280F86120C1EBE3
:10130000C10200EB82022832B2F810C01389968A1B
:1013100054684FEA0C5C44EA03434CEA465C43EAF7
:101320000C03DFF894C00A2C0BD0092C09D0167BD3
:1013300043EA066351B10B2C1DD021E070BC0220A2
:101340007047D66806F07F463343F3E701684C6A7E
:1013500024EA0C0C4CEA03034B62036811689961A0
:1013600051680A2901D009291ED1D168026821F0EB
:101370007F41916218E0118B43EA8143DFF83CC062
:101380000168CC6924EA0C0C4CEA0303CB610368C6
:101390001168196151680A2901D0092904D1D1685D
:1013A000026821F07F41116280F86150002180F8CD
:1013B0006010002070BC70470F0033FF0F003FFF2C
:1013C00070B50446002C04D094F86100002510B1DB
:1013D00006E0012070BD84F86050204600F032F82D
:1013E000022084F86100E1696068014320680268B6
:1013F00022F0400222F4E02211430160A169A068BA
:1014000001432068426B22F0070222F480721143EC
:1014100041632068016CE2686FF30F0111430164BE
:10142000208AA18A000540EA41512068426B22F4DB
:101430004012114341636566012084F86100002079
:1014400070BD000081B00068A0F1A441B1F58051E9
:1014500008D10548016841F010010160006800F002
:101460001000009001B07047D44402582DE9F843B1
:1014700004460D4600270097206800684FF00408D6
:101480004FF0030910F0010F36D001F03BFD064686
:101490002068406810F0020F2ED12068406800904C
:1014A000009810F0210F19D0009810F0200F03D0F1
:1014B000606E40F002006066009810F0010F03D0EB
:1014C000606E40F00100606621682120886084F829
:1014D000618084F860700120BDE8F883B5F1FF3FBA
:1014E00005D001F00FFD801BA84218D8BDB12068BF
:1014F000406810F0020FD0D02068C16901F02001CF
:10150000406A00F02000084300284AD001F0FAFCAD
:1015100006462068406810F0100F0BD041E0606E66
:1015200040F02000606684F8619084F860700320C9
:10153000BDE8F883206840680090009810F0290FFB
:1015400021D0009810F0080F03D0606E40F0040026
:101550006066009810F0200F03D0606E40F002002B
:101560006066009810F0010F03D0606E40F001003B
:10157000606621682920886084F8618084F8607042
:101580000120BDE8F883B5F1FF3F05D001F0BAFCBA
:10159000801BA84210D87DB12068406810F0100F61
:1015A000C8D0216812208860012084F8610084F886
:1015B00060700020BDE8F883606E40F02000606637
:1015C00084F8619084F860700320BDE8F88338B532
:1015D0000446049894F860C0BCF1010F12D04FF09B
:1015E000010C84F860C04FF0020C84F861C00090D8
:1015F0002046FFF742F92068016841F001010160CF
:10160000002038BD022038BD2DE9F84F044601F016
:1016100079FC00905CB194F8350002280AD0802053
:101620006065002084F834000120BDE8F88F0120B7
:10163000BDE8F88FB6492068B64EB74F8842DFF84C
:10164000DC82DFF8DC92DFF8DCA2DFF8DCB226D047
:10165000B04224D0B84222D0404520D048451ED0C8
:1016600050451CD058451AD0B04A904217D0B04AC5
:10167000904214D0AF4A904211D0AF4A90420ED05F
:10168000AE4A90420BD0AE4A904208D0AD4A90424A
:1016900005D0AD4A904202D0AC4A90420AD10268CD
:1016A00022F01E0202602068426922F0800242613C
:1016B000256804E0026822F00E02026025682068B6
:1016C00088423ED0B0423CD0B8423AD0404538D0B3
:1016D000484536D0504534D0584532D0934A904290
:1016E0002FD0934A90422CD0924A904229D0924ACD
:1016F000904226D0914A904223D0914A904220D0E5
:10170000904A90421DD0904A90421AD08F4A9042FF
:1017100017D08F4A904214D08E4A904211D08E4AF0
:1017200090420ED08D4A90420BD08D4A904208D004
:101730008C4A904205D08C4A904202D08B4A90420B
:1017400004D1206E026822F4807202607049206821
:10175000884226D0B04224D0B84222D0404520D082
:1017600048451ED050451CD058451AD06F49884274
:1017700017D06F49884214D06E49884211D06E4903
:1017800088420ED06D4988420BD06D49884208D0FE
:101790006C49884205D06C49884202D06B49884226
:1017A00004D1016821F00101016003E0016821F02A
:1017B00001010160286810F0010F14D001F0A2FBB4
:1017C0000099401A05280AD920206065032084F872
:1017D0003500002084F834000120BDE8F88F286827
:1017E00010F0010FEAD14A4A01212068904226D028
:1017F000B04224D0B84222D0404520D048451ED027
:1018000050451CD058451AD0484B984217D0484BE9
:10181000984214D0474B984211D0474B98420ED073
:10182000464B98420BD0464B984208D0454B9842C5
:1018300005D0454B984202D0444B98420AD1A06D46
:101840004FF03F0C94F85C3003F01F030CFA03F3E5
:10185000836007E0A06D94F85C3003F01F0301FA89
:1018600003F34360206890423ED0B0423CD0B8427F
:101870003AD0404538D0484536D0504534D0584508
:1018800032D02A4A90422FD0294A90422CD0294A5D
:10189000904229D0284A904226D0284A904223D00C
:1018A000274A904220D0274A90421DD0264A904293
:1018B0001AD0264A904217D0254A904214D0254A81
:1018C000904211D0244A90420ED0244A90420BD02C
:1018D000234A904208D0234A904205D0224A90429F
:1018E00002D0224A90420BD1626EA06E5060E06E30
:1018F00030B1026822F480720260226F606F506023
:1019000084F83510002084F83400BDE8F88F00001A
:1019100010000240280002404000024058000240EF
:101920007000024088000240A0000240B80002405F
:1019300010040240280402404004024058040240BF
:101940007004024088040240A0040240B80402402F
:10195000085402581C540258305402584454025837
:10196000585402586C5402588054025894540258E7
:101970002DE9F05F002808D090F83510022907D033
:10198000802141650120BDE8F09F0120BDE8F09F66
:10199000DFF81CE20168874BDFF81CC27145874CF9
:1019A000874D884E884FDFF82482DFF82492DFF8D5
:1019B00024A2DFF824B2894A25D0994223D0614578
:1019C00021D0A1421FD0A9421DD0B1421BD0B942A3
:1019D00019D0DFF80CE2714515D0DFF808E2714547
:1019E00011D0DFF804E271450DD041450BD04945D7
:1019F00009D0DFF8F8E1714505D0514503D05945CC
:101A000001D0914232D14FF0040E80F835E06848A1
:101A1000814221D099421FD061451DD0A1421BD0E7
:101A2000A94219D0B14217D0B94215D06C488142B1
:101A300012D06C4881420FD06B4881420CD0414596
:101A40000AD0494508D06948814205D0514503D0A4
:101A5000594501D0914204D1086820F00100086086
:101A6000A3E0086820F0010008609EE0D1F800E0E3
:101A70002EF00E0EC1F800E0DFF834E10168714588
:101A800025D0994223D0614521D0A1421FD0A9423F
:101A90001DD0B1421BD0B94219D0DFF844E17145E5
:101AA00015D0DFF840E1714511D0DFF83CE1714518
:101AB0000DD041450BD0494509D0DFF830E17145E3
:101AC00005D0514503D0594501D0914206D1D1F8F6
:101AD00000E02EF0010EC1F800E005E0D1F800E0D2
:101AE0002EF0010EC1F800E0DFF8C4E00168714596
:101AF00039D0994237D0614535D0A14233D0A9427F
:101B000031D0B1422FD0B9422DD0354B99422AD095
:101B1000344B994227D0344B994224D0414522D0AE
:101B2000494520D0314B99421DD051451BD05945D4
:101B300019D0914217D02E4A914214D02D4A914289
:101B400011D02D4A91420ED02C4A91420BD02C4AF2
:101B5000914208D02B4A914205D02B4A914202D0A3
:101B60002A4A914218D1016E0A6822F480720A60F2
:101B7000816D90F85C2002F01F0301229A404A60B8
:101B8000426E816E5160C16E31B10A6822F480727A
:101B90000A60026F416F5160012180F83510002109
:101BA00080F83410016D01B188470020BDE8F09F36
:101BB000100002402800024040000240580002404D
:101BC0007000024088000240A00002404004024031
:101BD0005804024088040240A0040240B8040240B5
:101BE000B800024010040240280402407004024081
:101BF000085402581C540258305402584454025895
:101C0000585402586C540258805402589454025844
:101C10002DE9F84F044600200090424D2068424EC6
:101C2000424FA842DFF80881DFF80891DFF808A1E9
:101C3000DFF808B12FD0B0422DD0B8422BD04045AC
:101C400029D0484527D0504525D0584523D0DFF826
:101C5000F0C060451FD0DFF8ECC060451BD0DFF856
:101C6000E8C0604517D0DFF8E4C0604513D0DFF866
:101C7000E0C060450FD0DFF8DCC060450BD0DFF876
:101C8000D8C0604507D0DFF8D4C0604503D0DFF886
:101C9000D0C0604506D1D0F800C02CF0010CC0F8CF
:101CA00000C005E0D0F800C02CF0010CC0F800C066
:101CB0002046FEF765FF2068A84226D0B04224D017
:101CC000B84222D0404520D048451ED050451CD0B7
:101CD00058451AD01A49884217D01A49884214D058
:101CE0001949884211D0194988420ED018498842B2
:101CF0000BD01849884208D01749884205D01749A7
:101D0000884202D01649884204D1016841F001019D
:101D1000016003E0016841F0010101600098BDE845
:101D2000F88F0000100002402800024040000240EE
:101D3000580002407000024088000240A0000240AB
:101D4000B80002401004024028040240400402404F
:101D5000580402407004024088040240A00402407B
:101D6000B8040240406D70472DE9F04F83B004463F
:101D7000002002904FF41651FD480068B0FBF1F0CE
:101D80000190A56D2E682968FA4F2068DFF8E8A356
:101D9000DFF8E8B3B842DFF8E883DFF8E8932DD046
:101DA000524690422AD05A46904227D0404525D0EC
:101DB000484523D0F44A904220D0F44A90421DD0A6
:101DC000F34A90421AD0F34A904217D0DFF8C8C3C2
:101DD000604513D0F14A904210D0DFF8C4E370455B
:101DE0000CD0F04A904209D0EF4A904206D0EF4A18
:101DF000904203D0EE4B984240F0408294F85C1041
:101E0000082201F01F0102FA01F1314241D0B8422B
:101E100028D0504526D0584524D0404522D04845AA
:101E200020D0D94988421DD0D84988421AD0D849F3
:101E3000884217D0D749884214D0D749884211D058
:101E4000D64988420ED0D64988420BD0D54988421F
:101E500008D0D549884205D0D449884202D0D44917
:101E6000884203D1016801F0040102E0016801F039
:101E7000080171B1016821F00401016094F85C006F
:101E800000F01F0002FA00F0A860606D40F0010051
:101E9000606594F85C0000F01F01012000FA01F178
:101EA000314234D02068B84228D0504526D0584519
:101EB00024D0404522D0484520D0B34A90421DD07E
:101EC000B24A90421AD0B24A904217D0B14A9042D8
:101ED00014D0B14A904211D0B04A90420ED0B04ACC
:101EE00090420BD0AF4A904208D0AF4A904205D002
:101EF000AE4A904202D0AE4A90427DD1406910F085
:101F0000800F04D0A960606D40F00200606594F815
:101F10005C0000F01F01042000FA01F1314234D0CE
:101F20002068B84228D0504526D0584524D0404596
:101F300022D0484520D0944A90421DD0934A9042E6
:101F40001AD0934A904217D0924A904214D0924AA3
:101F5000904211D0914A90420ED0914A90420BD0BB
:101F6000904A904208D0904A904205D08F4A9042C1
:101F700002D08F4A904245D1006810F0020F04D081
:101F8000A960606D40F00400606594F85C0000F0AA
:101F90001F01102000FA01F1314259D02068B842E7
:101FA00028D0504526D0584524D0404522D0484519
:101FB00020D0754A90421DD0744A90421AD0744A7B
:101FC000904217D0734A904214D0734A904211D075
:101FD000724A90420ED0724A90420BD0714A90429F
:101FE00008D0714A904205D0704A904202D0704A9F
:101FF000904209D1006800E002E000F0080006E02D
:10200000006884E70068C0E7006800F00400F8B1E9
:10201000A9602068016811F4802F0DD0006810F4C9
:10202000002F04D0A16C99B12046884710E0216CA4
:1020300071B1204688470BE0016811F4807F03D11D
:10204000016821F008010160216C09B12046884730
:1020500094F85C0000F01F01202000FA01F13142E9
:102060006FD02068B84228D0504526D0584524D09B
:10207000404522D0484520D0434A90421DD0434A93
:1020800090421AD0424A904217D0424A904214D00D
:10209000414A904211D0414A90420ED0404A90426B
:1020A0000BD0404A904208D03F4A904205D03F4A68
:1020B000904202D03E4A904203D1006800F01000E6
:1020C00002E0006800F00200D8B3A96094F835007F
:1020D00004280DD02068016811F4802F37D00068E3
:1020E00010F4002F2ED0E16B59B32046884764E0EE
:1020F0002068016821F0160101602068416921F023
:1021000080014161206C08B9A06C20B12068016891
:1021100021F00801016094F85C003F2100F01F00ED
:1021200001FA00F0A860012084F83500002084F84E
:102130003400216D00297BD003B02046BDE8F04F6C
:10214000084737E0616CA9B32046884735E001684D
:1021500011F4807F09D1016821F010010160012094
:1021600084F83500002084F83400E16B11B322E0DC
:102170005464002410000240280002404000024045
:10218000580002407000024088000240A000024057
:10219000B8000240100402402804024040040240FB
:1021A000580402407004024088040240A004024027
:1021B000B804024001E020468847606D002837D00F
:1021C000606D10F0010F51D0042084F835002068B4
:1021D000B84228D0504526D0584524D0404522D07A
:1021E000484520D0AB4988421DD0AB4988421AD01F
:1021F000AA49884217D0AA49884214D0A9498842DE
:1022000011D0A94988420ED0A84988420BD0A849CC
:10221000884208D0A749884205D0A749884202D001
:10222000A649884205D1016821F00101016004E05E
:1022300096E0016821F00101016021680298019A8D
:10224000401C0290904203D8086810F0010FF5D1AD
:10225000086810F0010F03D0032084F8350002E075
:10226000012084F83500002084F83400E16C002956
:1022700076D003B02046BDE8F04F0847904B984217
:1022800014D0904B984211D08F4B98420ED08F4B68
:1022900098420BD08E4B984208D08E4B984205D076
:1022A0008D4B984202D08D4B984259D103684FF024
:1022B000040A94F85C6006F01F060AFA06FA1AEAA5
:1022C000010F5AD013F0040F57D0C5F804A013F42F
:1022D000004F12D013F4803F07D0216C00293FD06B
:1022E00003B02046BDE8F04F0847A16C002937D065
:1022F00003B02046BDE8F04F084713F0200F34D15B
:102300002068B84227D07649884224D0754988424F
:1023100021D040451FD048451DD05E4988421AD083
:102320005D49884217D05D49884214D05C49884293
:1023300011D060450FD05C4988420CD070450AD05E
:102340005B49884207D05B49884204D0904202D062
:102350005A49884205D1016821F00801016004E072
:1023600083E0016821F004010160216C00297CD028
:1023700003B02046BDE8F04F08474FF0020A0AFAC2
:1023800006FA1AEA010F5FD013F0020F5CD0C5F80D
:1023900004A013F4004F12D013F4803F07D0E16B78
:1023A000002974D003B02046BDE8F04F0847616CA7
:1023B00000296CD003B02046BDE8F04F084713F069
:1023C000200F39D12068B84227D04549884224D00F
:1023D0004449884221D040451FD048451DD02D4951
:1023E00088421AD02C49884217D02C49884214D0F0
:1023F0002B49884211D060450FD02B4988420CD020
:1024000070450AD02A49884207D02A49884204D018
:10241000904202D02949884204D1016821F0140178
:10242000016003E0016821F00A010160012084F8E5
:102430003500002084F83400E16B002927D003B078
:102440002046BDE8F04F08470822B2400A421ED09D
:1024500013F0080F1BD0016821F00E01016094F801
:102460005C0000F01F01012000E010E000FA01F123
:102470006960606584F83500002084F83400E16C00
:10248000002904D003B02046BDE8F04F084703B050
:10249000BDE8F08F88000240A0000240B800024072
:1024A0001004024028040240400402405804024044
:1024B0007004024088040240A0040240B8040240B4
:1024C000085402581C5402583054025844540258BC
:1024D000585402586C54025880540258945402586C
:1024E00028000240400002402DE9F05F044600F061
:1024F00009FD0646002C6AD0DC4F02222068002528
:10250000DFF86C83DFF86C93B842DFF86CA3DFF878
:102510006CB328D0DA49884225D0404523D04845BD
:1025200021D050451FD058451DD0D64988421AD0D9
:10253000D549884217D0D549884214D0D449884219
:1025400011D0D44988420ED0D34988420BD0D34908
:10255000884208D0D249884205D0D249884202D068
:10256000D14988427ED184F8352084F83450B8426D
:1025700028D0C349884225D0404523D0484521D0A2
:1025800050451FD058451DD0BE4988421AD0BE497B
:10259000884217D0BD49884214D0BD49884211D025
:1025A000BC4988420ED0BC4988420BD0BB49884206
:1025B00008D0BB49884205D0BA49884202D0BA49FE
:1025C000884207D1016821F00101016006E0012085
:1025D000BDE8F09F016821F00101016020680068FA
:1025E00010F0010F11D000F08DFC801B052807D9D9
:1025F00020206065032084F835000120BDE8F09FAD
:102600002068006810F0010FEDD122681068A7491A
:102610000840E368A168D4F814C01943236943EA69
:102620000C031943A3691943E3691943236A194346
:102630000843616A042903D1236BE16A1943084303
:102640009B4909686FF30F01B1F1005F11D3616815
:10265000A1F12903052B0AD9163B032B07D9083B07
:10266000012B00E02CE002D94F39032901D840F4B6
:10267000801010602068406920F00701606A40EA1D
:10268000010604280ED1A06A0643E06A50B1204634
:10269000FEF736FA30B140206065012084F835003D
:1026A000BDE8F09F206846612046FEF705F994F8E2
:1026B0005C103F2201F01F0102FA01F181605BE032
:1026C0007C49884214D07C4B984211D07B4B984275
:1026D0000ED07B4B98420BD07A4B984208D07A4B65
:1026E000984205D0794B984202D0794B98427DD1DF
:1026F00088420CD07049884209D07049884206D07F
:102700006F49884203D06F49884200D06E4984F8EF
:10271000352084F8345002686FF31012A168402904
:1027200079D0802979D00021E36841EAD301236977
:1027300041EAD301636941EAD301A36941EAD301C4
:10274000E36941EAD301236A41EA131111430160AD
:102750006049206801446048A0FB01100009800026
:10276000E0652046FEF7A8F894F85C10012201F01D
:102770001F0102FA01F141602068B84242D040498D
:1027800088423FD040453DD048453BD0504539D0A8
:10279000584537D03B49884234D03B49884231D0F4
:1027A0003A4988422ED03A4988422BD0394988424A
:1027B00028D03949884225D03849884222D0384922
:1027C00088421FD0374988421CD03749884219D0E7
:1027D0003849884216D03849884213D03749884250
:1027E00010D0374988420DD0364900E018E08842C1
:1027F00008D03549884205D03449884202D034494E
:1028000088422CD12046FEF7C9F8A06880280FD056
:102810000FE000E001E0102186E74FF4804183E7FC
:1028200040206065032084F835000120BDE8F09F5A
:102830006560216E20790860616EA06E48606068F6
:10284000401E072808D82046FEF714F9E06E056000
:10285000216F606F486002E0E56625676567656522
:10286000012084F835000020BDE8F09F10000240F0
:1028700040000240580002407000024088000240C0
:1028800028000240A0000240B800024010040240AC
:1028900028040240400402405804024070040240F0
:1028A00088040240A0040240B80402403F8010FEA9
:1028B0000010005C085402581C540258305402584E
:1028C00044540258585402586C54025880540258C8
:1028D00094540258F8ABFDA7CDCCCCCC4DF8044DA8
:1028E000002490F85C1001F01F0320219940806DB6
:1028F00000F1080C02680A42FCD030209840CCF865
:10290000000020465DF8044B704700002DE9F84FA9
:10291000044600200090002C16D094F834000128C2
:1029200015D0012084F8340094F835C00020BCF1A3
:10293000010F0FD04FF40061616584F8340001206D
:1029400000900098BDE8F88F0120BDE8F88F0220C4
:10295000BDE8F88F4FF0020C84F835C06065DFF8F1
:102960002CC220688A4D8B4E60458B4FDFF82C823D
:10297000DFF82C92DFF82CA2DFF82CB22DD0A84281
:102980002BD0B04229D0B84227D0404525D0484569
:1029900023D0504521D058451FD0DFF810C26045E4
:1029A0001BD0DFF80CC2604517D0DFF808C26045C5
:1029B00013D0DFF804C260450FD0DFF800C26045D5
:1029C0000BD0DFF8FCC1604507D0DFF8F8C16045E7
:1029D00003D0DFF8F4C1604506D1D0F800C02CF078
:1029E000010CC0F800C005E0D0F800C02CF0010CCC
:1029F000C0F800C02046FEF7C3F86449206888424A
:102A000025D0A84223D0B04221D0B8421FD04045A3
:102A10001DD048451BD0504519D0584517D0634AA2
:102A2000904214D0624A904211D0624A90420ED035
:102A3000614A90420BD0614A904208D0604A90426D
:102A400005D0604A904202D05F4A90420DD10268A0
:102A500022F01E0242F016020260206C90B1206843
:102A6000026842F0080202600CE0026822F00E02E6
:102A700042F00A020260206C20B12068026842F035
:102A800004020260206888423DD0A8423BD0B04298
:102A900039D0B84237D0404535D0484533D050457D
:102AA00031D058452FD0414A90422CD0404A9042D4
:102AB00029D0404A904226D03F4A904223D03F4AF4
:102AC000904220D03E4A90421DD03E4A90421AD0B9
:102AD0003D4A904217D03D4A904214D03C4A904221
:102AE00011D03C4A90420ED03B4A90420BD03B4A18
:102AF000904208D03A4A904205D03A4A904202D0D9
:102B0000394A90420ED1206E026812F4803F03D001
:102B1000026842F480720260E06E18B1026842F40A
:102B2000807202602068884225D0A84223D0B0423B
:102B300021D0B8421FD040451DD048451BD050453C
:102B400019D0584517D01949884214D018498842DD
:102B500011D0184988420ED0174988420BD0174926
:102B6000884208D01649884205D01649884202D0CA
:102B70001549884204D1016841F001010160E0E695
:102B8000016841F001010160DBE600001000024035
:102B900028000240400002405800024070000240FD
:102BA00088000240A0000240B80002401004024029
:102BB00028040240400402405804024070040240CD
:102BC00088040240A0040240B8040240085402589D
:102BD0001C54025830540258445402585854025855
:102BE0006C540258805402589454025870B50446EC
:102BF00000F088F90546B4F1FF3F02D004480078A0
:102C0000044400F07FF9401BA042FAD370BD0000DD
:102C100048640024F0B587B000240294039404941F
:102C2000059406942848016800294BD101210160D0
:102C30002648016841F480510160006800F480502A
:102C400001904FF6837002900226039603270597A2
:102C50000C2506951E4802A900F046F848F23710E8
:102C60000290039604940597069502A9194800F06E
:102C70003BF84CF203700290039604940597069576
:102C800002A9154800F030F84FF63F000290039675
:102C900004940597069502A9104800F025F80295BE
:102CA000039604940597069502A90D4800F01CF8B8
:102CB00020200290039604940597069502A90948DE
:102CC00000F012F807B0F0BD3C640024D444025870
:102CD0000010025800180258000C02580014025844
:102CE00000080258001C02582DE9F84F0022DFF8B6
:102CF000E4C10B68002B7DD0DFF8DCB14FF0B04AA7
:102D00004FF0010E4FF003084FF00F090B680EFA59
:102D100002F52B40002B6ED00C7904F00304012C3B
:102D200001D0022C11D18668540008FA04F7BE4382
:102D3000CF6807FA04F4344384604468AC430D79E7
:102D4000C5F3001595402C4344604C6838EA0404F0
:102D500009D0C568540008FA04F6B5438E6806FA2F
:102D600004F42C43C4600C7904F00304022C0DD14C
:102D7000D40800EB84052E6A5407E40E09FA04F720
:102D8000BE430F6907FA04F434432C62056854000B
:102D900008FA04F6B5430E7906F0030606FA04F4C1
:102DA0002C4304604C6814F4403F78D0DBF80040BA
:102DB00044F00204CBF80040DBF8004004F00204C9
:102DC000009422F0030404F1B046D6F808449507B5
:102DD0002D0F09FA05F724EA0707A0F1B044B4F56E
:102DE000003463D0A0F1B044B4F5013460D0A0F158
:102DF000B04401E058E052E0B4F502345AD0A0F1FA
:102E0000B044B4F5033457D0A0F1B044B4F5043461
:102E100054D0A0F1B044B4F5053451D0A0F1B04481
:102E2000B4F506344ED0A0F1B044B4F507344BD01D
:102E3000A0F1B044B4F5083448D0A0F1B044B4F5E2
:102E4000093445D00A24AC403C43C6F80844DAF8BB
:102E500000409C434D6815F4801F00D01C43CAF805
:102E60000040DAF804409C434D6815F4001F00D080
:102E70001C43CAF80440DCF804409C434D6815F438
:102E8000003F00D01C43CCF80440DCF800409C43D9
:102E90004D6815F4803F00D01C43CCF80040521C14
:102EA0000B68D3407FF432AFBDE8F88F0024CAE747
:102EB0000124C8E70224C6E70324C4E70424C2E7C8
:102EC0000524C0E70624BEE70724BCE70824BAE7C8
:102ED0000924B8E780000058F44402580069084209
:102EE00001D00120704700207047002A01D0816185
:102EF000704709048161704701480068000C704701
:102F00000010005C0148806870470000486400249D
:102F10000248816802781144816070474864002447
:102F200010B5032000F050FA02F04EF80F4A116875
:102F3000C1F303230E49CB5C03F01F03D840126892
:102F400002F00F02895C0B4A01F01F0120FA01F127
:102F50001160094908600F2000F010F808B1012045
:102F600010BD00F0DFF9002010BD00001844025829
:102F7000545D0108586400245464002470B504466C
:102F80000F4D2A78002A0CD04FF47A700D49B0FB0F
:102F9000F2F00968B1FBF0F004F03AF918B1012041
:102FA00070BD012070BD102C07D200222146501E9A
:102FB00000F0D4F96C60002070BD012070BD0000ED
:102FC00048640024546400242DE9F05F044694F81A
:102FD000A000012833D0012584F8A050022084F8F5
:102FE000A10001F10806D1F804C002EB820000EB59
:102FF000C20096E8C00F04EB80030868C3F83CC029
:103000004033A3E8C00F583B9863D1F824C0D1F8EF
:103010003080CF6A8E6A086AC3F85CC0C3F86880E3
:103020005F661E669865204605F002FA20684562D4
:1030300084F8A150002084F8A000BDE8F09F022091
:10304000BDE8F09F90F8A1007047000070B50446FD
:10305000002C04D094F8A100002510B106E0012056
:1030600070BD84F8A050204600F072F8022084F869
:10307000A1002068816921F070418161A1686068C8
:1030800022690843E16811430143206882691143C2
:103090008161206882682D490A408260A08A02040A
:1030A00020688368D4F818C043EA0C031A4382608E
:1030B0002068C2680A40C260A08B02042068C3680E
:1030C000D4F820C043EA0C031A43C26020680269A6
:1030D0000A400261A08C020420680369D4F828C069
:1030E00043EA0C031A4302612068426911404161BE
:1030F000A08D010420684269236B1A43114341618A
:1031000094F83500020294F8360001042068C36A7E
:1031100003F07F43C3622068C36A114394F834C04C
:1031200043EA0C031943C1622068416B41F0060178
:1031300041632068816941F001018161C4F8A450B4
:10314000012084F8A100002070BD000000F800F00C
:1031500070B5B8B005460024329433943494359455
:103160003694C02102A8FDF7EDF82868A0F1A0412F
:10317000B1F580515AD14FF00050039102902020B8
:103180000C9040F227100D9002250E950F951A20F5
:1031900010904FF4406011901294139402A801F023
:1031A00015F808B1FDF792FF2148016841F00801C8
:1031B0000160006800F0080001901E48016841F4B9
:1031C00080610160016801F480610191016841F44E
:1031D00000710160016801F400710191016841F41E
:1031E00080710160006800F480700190FF203290CF
:1031F0003395349435940E26369632A90E48FFF74F
:1032000073FD48F67C60329033953494359436964D
:1032100032A90A48FFF768FDF002329033953494E2
:103220003594369632A90648FFF75EFD38B070BD7A
:10323000E4440258E044025800280258002402588E
:103240000020025870B50446084694F8A0100129E1
:1032500018D0012584F8A050022184F8A11002EBB7
:10326000820101EBC20104EB810138314861204643
:1032700005F0DEF82068456284F8A150002084F84B
:10328000A00070BD022070BD144A41781160111D6C
:1032900003780A1D002B1CD043680B60017BC37AA6
:1032A000090741EA0361837A41EAC341437B41EA6A
:1032B0008341837B41EA4341C37B41EA0341437A33
:1032C00041EA0321037A007841EA43010843106090
:1032D00070470020086010607047000098ED00E023
:1032E000BFF35F8F0448016821F480310160034916
:1032F000002008607047000024ED00E094ED00E03D
:10330000064940F0010008600548016841F4803139
:103310000160BFF34F8FBFF36F8F704794ED00E0F4
:1033200024ED00E081B00548016841F00201016030
:10333000006800F00200009001B07047F4440258A9
:1033400000280ADB012200F01F0102FA01F1400906
:10335000800000F1E020C0F8001170474DF8044DE6
:10336000184B1B68C3F30223C3F1070CBCF1040F15
:1033700001D94FF0040C1C1D072C01D2002300E0E2
:10338000DB1E012404FA0CFCACF1010C0CEA010177
:10339000994004FA03F35B1E1A401143002807DB2F
:1033A00000F1E020090180F800145DF8044B70473B
:1033B00000F00F0000F1E020090180F8141D5DF815
:1033C000044B70470CED00E000F00700064A11685E
:1033D0004FF6FF03194041EA002040F0FD7040F035
:1033E00080601060704700000CED00E070B515497A
:1033F0000A6812F0040F0DD00A6822F00702104389
:103400000860FFF77FFD04460F4D286810F4005F49
:1034100009D014E0096801F00701814201D00120C0
:1034200070BD002070BDFFF76DFD001BB0F57A7F09
:1034300001D9012070BD286810F4005FF3D000208E
:1034400070BD00000C4802580448025838B50446C4
:10345000FFF758FD05461CB194F8410010B109E092
:10346000012038BD204600F045F841F28831204661
:1034700000F0AAF820680168A26821F4F851521EF1
:1034800041EA02210160A06C002220212B4600901D
:10349000204605F001FE014641BBE269E068237960
:1034A0001043226A42EA036202432068036823F061
:1034B000D00323F07F431A430260A269606902438C
:1034C00020684368DFF828C003EA0C03B4F810C092
:1034D00043EA0C431A4342602068026842F001024A
:1034E000026000206064012084F84100084638BD75
:1034F000FEF8E0FF2DE9F041B8B005460024329413
:103500003394349435943694C02102A8FCF71AFF02
:103510002968A1F1A440B0F5A04049D14FF0007155
:1035200002910390159402A800F050FE08B1FDF737
:10353000CDFD2148016841F480410160006800F43C
:10354000804001901D48016841F040010160016820
:1035500001F040010191016841F020010160006823
:1035600000F02000019040203290022533953494E1
:10357000032735970A26369632A91148FFF7B4FB80
:103580004FF49860329033953494359509203690F5
:1035900032A9DFF830804046FFF7A6FB38023290B0
:1035A000339534943597369632A94046FFF79CFB05
:1035B00038B0BDE8F0810000D4440258E04402581D
:1035C00000180258001402588164704710B501F0C9
:1035D000AFFC05490968054AC1F30211515C01F0CD
:1035E0001F01C84010BD000020440258545D01086E
:1035F00069490A6802F003020968C1F30511674BC3
:103600001B6803F00103DFF898C1DCF800C0CCF3BD
:10361000CC0C1CFB03F300EE103AB8EE400A002974
:1036200072D09FED601ADFED601A604B002AF7EE52
:10363000000A44D0012A7ED0022A67D002EE101A76
:103640001968F8EE422A81EEA22AC1F3080101EEC0
:10365000901AF8EE611A40EE011A31EEA00A22EE3D
:10366000000A1968C1F3462101EE101AB8EE411A9A
:1036700031EE201AC0EE011ABCEEE11A80ED001AFC
:103680001968C1F3064101EE101AB8EE411A31EE85
:10369000201AC0EE011ABCEEE11A80ED011A196879
:1036A000C1F3066101EE101AB8EE411A71EE200A5C
:1036B00080EE201ABCEEC10A80ED020A70473C4A37
:1036C000D2F800C01CF0200F21D01268DFF8E4C04F
:1036D000C2F3C1022CFA02F201EE902AF8EE612A3E
:1036E00001EE901A1968F8EE611A82EEA12AC1F370
:1036F000080101EE901AF8EE611A40EE011A31EE5F
:10370000A00A22EE000AACE741E014E029E002EE54
:10371000101A1968F8EE422A81EEA22AC1F30801B4
:1037200001EE901AF8EE611A40EE011A31EEA00A8D
:1037300022EE000A95E701EE901A1968F8EE612A68
:10374000DFED1D1A81EEA22AC1F3080101EE901AE5
:10375000F8EE611A40EE011A31EEA00A22EE000ADC
:103760007FE701EE901ADFED152A1968F8EE611A6D
:1037700082EEA12AC1F3080101EE901AF8EE611A57
:1037800040EE011A31EEA00A22EE000A69E700219C
:103790000160416081607047284402582C440258FF
:1037A00034440258000000390024744C304402585C
:1037B000004402580090D0030024744A20BCBE4B41
:1037C00069490A6802F003020968C1F30531674BD1
:1037D0001B68C3F30013DFF898C1DCF800C0CCF31A
:1037E000CC0C1CFB03F300EE103AB8EE400A0029A3
:1037F00072D09FED601A604B002AF7EE000A46D0A7
:10380000DFED5E1A012A68D0022A67D002EE101A94
:103810001968F8EE422A81EEA22AC1F3080101EEEE
:10382000901AF8EE611A40EE011A31EEA00A22EE6B
:10383000000A1968C1F3462101EE101AB8EE411AC8
:1038400031EE201AC0EE011ABCEEE11A80ED001A2A
:103850001968C1F3064101EE101AB8EE411A31EEB3
:10386000201AC0EE011ABCEEE11A80ED011A1968A7
:10387000C1F3066101EE101AB8EE411A71EE200A8A
:1038800080EE201ABCEEC10A80ED020A70473C4A65
:10389000D2F800C01CF0200F21D01268DFF8E4C07D
:1038A000C2F3C1022CFA02F201EE902AF8EE612A6C
:1038B00001EE901A1968F8EE611A82EEA12AC1F39E
:1038C000080101EE901AF8EE611A40EE011A31EE8D
:1038D000A00A22EE000AACE741E016E029E001EE82
:1038E000901ADFED292A1968F8EE611A82EEA12AF2
:1038F000C1F3080101EE901AF8EE611A40EE011AC8
:1039000031EEA00A22EE000A93E702EE101A1968BF
:10391000F8EE422A81EEA22AC1F3080101EE901AC4
:10392000F8EE611A40EE011A31EEA00A22EE000A0A
:103930007FE701EE901ADFED152A1968F8EE611A9B
:1039400082EEA12AC1F3080101EE901AF8EE611A85
:1039500040EE011A31EEA00A22EE000A69E70021CA
:103960000160416081607047284402582C4402582D
:103970003C44025800000039384402580024744A7C
:10398000004402580090D0030024744C20BCBE4B6D
:1039900069490A6802F003020968C1F30551674BDF
:1039A0001B68C3F30023DFF898C1DCF800C0CCF338
:1039B000CC0C1CFB03F300EE103AB8EE400A0029D1
:1039C00072D09FED601A604B002AF7EE000A46D0D5
:1039D000DFED5E1A012A68D0022A67D002EE101AC3
:1039E0001968F8EE422A81EEA22AC1F3080101EE1D
:1039F000901AF8EE611A40EE011A31EEA00A22EE9A
:103A0000000A1968C1F3462101EE101AB8EE411AF6
:103A100031EE201AC0EE011ABCEEE11A80ED001A58
:103A20001968C1F3064101EE101AB8EE411A31EEE1
:103A3000201AC0EE011ABCEEE11A80ED011A1968D5
:103A4000C1F3066101EE101AB8EE411A71EE200AB8
:103A500080EE201ABCEEC10A80ED020A70473C4A93
:103A6000D2F800C01CF0200F21D01268DFF8E4C0AB
:103A7000C2F3C1022CFA02F201EE902AF8EE612A9A
:103A800001EE901A1968F8EE611A82EEA12AC1F3CC
:103A9000080101EE901AF8EE611A40EE011A31EEBB
:103AA000A00A22EE000AACE741E016E029E001EEB0
:103AB000901ADFED292A1968F8EE611A82EEA12A20
:103AC000C1F3080101EE901AF8EE611A40EE011AF6
:103AD00031EEA00A22EE000A93E702EE101A1968EE
:103AE000F8EE422A81EEA22AC1F3080101EE901AF3
:103AF000F8EE611A40EE011A31EEA00A22EE000A39
:103B00007FE701EE901ADFED152A1968F8EE611AC9
:103B100082EEA12AC1F3080101EE901AF8EE611AB3
:103B200040EE011A31EEA00A22EE000A69E70021F8
:103B30000160416081607047284402582C4402585B
:103B40004444025800000039404402580024744A9A
:103B5000004402580090D0030024744C20BCBE4B9B
:103B60002DE9F04389B00A460146FB4FFB4C81F436
:103B70008078FB483D1FFB4E58EA0208FA4B4FEA9B
:103B8000241C34D081F4007858EA02087ED0DFF893
:103B9000DC8381F4806959EA020978D081F40069F4
:103BA00059EA020900F0308181F4805959EA02098A
:103BB00000F0838181F40056164300F0E38181F424
:103BC0000026164300F0298281F48036164300F067
:103BD000688281F48045154300F0828281F40041BF
:103BE000114300F0C98209B00020BDE8F0833968B4
:103BF00001F00701052958D2DFE801F00312215531
:103C00003000186810F0007F06D006A8FFF7F0FC1F
:103C1000079809B0BDE8F08309B00020BDE8F08343
:103C2000186810F0006F06D003A8FFF7C9FD0398CD
:103C300009B0BDE8F08309B00020BDE8F083186842
:103C400010F0005F06D06846FFF7A2FE009809B0AA
:103C5000BDE8F083002009B0BDE8F083296801F0D9
:103C600040511A6812F0040F00D0A1B11A6812F482
:103C7000807F02D0B1F1805F13D01A6812F4003F48
:103C800002D0B1F1005FE6D0002001E00FE062E079
:103C900009B0BDE8F0831868C0F3C10024FA00F051
:103CA000F3E76046F1E73046EFE70020EDE73968DB
:103CB00001F4E071802921D003DC49B1402905D10C
:103CC00011E0C02945D0B1F5807F22D00020DCE78B
:103CD000186810F0007F04D006A8FFF789FC079849
:103CE000D3E70020D1E7186810F0006F04D003A8D4
:103CF000FFF766FD0398C8E70020C6E7186810F0D4
:103D0000005F04D06846FFF743FE0098BDE700203F
:103D1000BBE7296801F040511A6812F0040F00D087
:103D200079B11A6812F4807F02D0B1F1805F0ED0B1
:103D30001A6812F4003F02D0B1F1005FA5D0002054
:103D4000A3E71868C0F3C10024FA00F09DE76046BD
:103D50009BE7304699E7D8F8001001F46001B1F50F
:103D6000800F23D004DC59B1B1F5001F06D112E059
:103D7000B1F5C00F46D0B1F5000F22D0002084E786
:103D8000186810F0007F04D006A8FFF731FC0798F0
:103D90007BE7002079E7186810F0006F04D003A8D3
:103DA000FFF70EFD039870E700206EE7186810F02B
:103DB000005F04D06846FFF7EBFD009865E7002040
:103DC00063E7296801F040511A6812F0040F00D02F
:103DD00081B11A6812F4807F02D0B1F1805F0FD0F8
:103DE0001A6812F4003F03D0B1F1005F3FF44DAF09
:103DF00000204AE71868C0F3C10024FA00F044E745
:103E0000604642E7304640E7D8F8001001F0E06134
:103E1000B1F1007F23D004DC59B1B1F1807F06D12C
:103E200012E0B1F1407F46D0B1F1806F22D0002086
:103E30002BE7186810F0007F04D006A8FFF7D8FB26
:103E4000079822E7002020E7186810F0006F04D0E0
:103E500003A8FFF7B5FC039817E7002015E71868DB
:103E600010F0005F04D06846FFF792FD00980CE761
:103E700000200AE7296801F040511A6812F0040F87
:103E800000D081B11A6812F4807F02D0B1F1805F56
:103E90000FD01A6812F4003F03D0B1F1005F3FF475
:103EA000F4AE0020F1E61868C0F3C10024FA00F077
:103EB000EBE66046E9E63046E7E6396801F4E041C2
:103EC000B1F5005F23D004DC59B1B1F5805F06D1B4
:103ED00012E0B1F5405F53D0B1F5804F22D0002001
:103EE000D3E6186810F0007F04D006A8FFF780FB27
:103EF0000798CAE60020C8E6186810F0006F04D0E2
:103F000003A8FFF75DFC0398BFE60020BDE6186834
:103F100010F0005F04D06846FFF73AFD0098B4E661
:103F20000020B2E6296801F040511A6812F0040F2F
:103F300000D0E9B11A6812F4807F02D0B1F1805F3D
:103F40001CD01A6812F4003F03D0B1F1005F3FF4B7
:103F50009CAE002099E60000504402580090D00327
:103F600040787D010080BB0000440258584402584C
:103F70001868C0F3C10024FA00F086E6604684E6C3
:103F8000304682E6396801F4E021B1F5403F29D09E
:103F900007DC71B1B1F5803F0ED0B1F5003F06D11D
:103FA00015E0B1F5802F29D0B1F5A02F2ED000203B
:103FB0006BE600F0E1FF68E6186810F0006F04D0CF
:103FC00003A8FFF7FDFB04985FE600205DE6186894
:103FD00010F0005F04D06846FFF7DAFC019854E661
:103FE000002052E6186810F0040F05D01868C0F3DE
:103FF000C10024FA00F048E6002046E6186810F4F4
:10400000807F01D0604640E600203EE6196811F44A
:10401000003F7FF43AAE002037E6D8F8001001F4F4
:10402000403139B1B1F5803F0FD0B1F5003F17D025
:1040300000202AE6186810F0006F04D003A8FFF7EC
:10404000BFFB039821E600201FE6186810F0005F10
:1040500004D06846FFF79CFC029816E6002014E6A0
:10406000296801F040511A6812F0040F00D081B1A4
:104070001A6812F4807F02D0B1F1805F0FD01A6805
:1040800012F4003F03D0B1F1005F3FF4FEAD002019
:10409000FBE51868C0F3C10024FA00F0F5E56046BE
:1040A000F3E5286800F4803020B1B0F5803F0CD0F3
:1040B0000020EAE5186810F0007F04D006A8FFF79A
:1040C00097FA0798E1E50020DFE5186810F0006F27
:1040D00004D003A8FFF774FB0598D6E50020D4E5CB
:1040E000D8F8001001F0E041B1F1405F29D007DCC1
:1040F00071B1B1F1805F0ED0B1F1005F06D115E072
:10410000B1F1804F29D0B1F1A04F2ED00020BCE5F5
:10411000FFF75CFAB9E5186810F0006F04D003A847
:10412000FFF74EFB0498B0E50020AEE5186810F0EC
:10413000005F04D06846FFF72BFC0198A5E500203E
:10414000A3E5186810F0040F05D01868C0F3C1008B
:1041500024FA00F099E5002097E5186810F4807FB4
:1041600001D0604691E500208FE5196811F4003F09
:104170007FF48BAD002088E5396801F0405139B1FA
:10418000B1F1805F0BD0B1F1005F13D000207CE56E
:10419000196811F4003F7FF478AD002075E51868C8
:1041A00010F0007F04D006A8FFF722FA07986CE50C
:1041B00000206AE5186810F0006F04D003A8FFF72C
:1041C000FFFA049861E500205FE500002DE9F84F53
:1041D0000446002500262068C04310F0006FFE4F03
:1041E000DFF8F8830DD1A06E88B1B0F5801F13D031
:1041F000B0F5001F17D0B0F5401F00D00125CDB19C
:104200002E462088C04310F4807F1CD039E03868E7
:1042100040F400303860F2E7022104F1080004F0B5
:104220006DFF0546EBE7022104F1280005F006F8D2
:104230000546E4E7D8F80000A16E20F440100843DA
:10424000C8F80000DDE7A06D052817D2DFE800F010
:1042500003080F171700386840F4003038600EE08C
:10426000002104F1080004F049FF054607E00021A1
:1042700004F1280004F0E2FF054600E0012535B115
:104280002E462088C04310F4007F09D018E0D8F8EB
:104290000000A16D20F007000843C8F80000F0E717
:1042A000E06D802820D003DC90B1402805D114E0D7
:1042B000C02803D0B0F5807F00D00125DDB12E46A7
:1042C0002088DFF81C93C04310F4806F1CD02FE0CF
:1042D000386840F400303860F0E7002104F108004D
:1042E00004F00CFF0546E9E7002104F1280004F082
:1042F000A5FF0546E2E7D8F80000E16D20F4E07084
:104300000843C8F80000DBE7D4F8A800B0F5800F38
:1043100020D004DC90B1B0F5001F06D113E0B0F559
:10432000C00F03D0B0F5000F00D00125CDB12E464F
:104330002088C04310F4006F1DD030E0386840F48E
:1043400000303860F2E7002104F1080004F0D6FEE6
:104350000546EBE7002104F1280004F06FFF054655
:10436000E4E7D9F80000D4F8A81020F4600008436E
:10437000C9F80000DCE7D4F8AC00B0F1007F20D031
:1043800004DC90B1B0F1807F06D113E0B0F1407F42
:1043900003D0B0F1806F00D00125CDB12E4620684A
:1043A000C04310F0007F1DD027E0386840F4003093
:1043B0003860F2E7002104F1080004F09FFE054692
:1043C000EBE7002104F1280004F038FF0546E4E79C
:1043D000D9F80000D4F8AC1020F0E0600843C9F828
:1043E0000000DCE7E06C30B110280CD020280FD0A2
:1043F000302800D0012595B12E462088C04310F406
:10440000805F14D026E0386840F400303860F2E76E
:10441000022104F1080004F071FE0546EBE7714843
:104420000168E26C21F0300111430160E5E7206E84
:10443000B0F5005F20D004DC90B1B0F5805F06D10C
:1044400013E0B0F5405F03D0B0F5804F00D00125F8
:10445000CDB12E462088C04310F4005F1CD031E05F
:10446000386840F400303860F2E7002104F10800B9
:1044700004F044FE0546EBE7002104F1280004F0B7
:10448000DDFE0546E4E7D8F80000216E20F4E040A8
:104490000843C8F80000DDE7606EB0F5403F0FD07C
:1044A00007DC68B1B0F5803F12D0B0F5003F06D10F
:1044B00015E0B0F5802F03D0B0F5A02F00D0012576
:1044C000A5B12E462088C04310F4804F17D02DE0B0
:1044D000012104F1080004F011FE0546F0E7012176
:1044E00004F1280004F0AAFE0546E9E7D8F8000028
:1044F000616E20F4E0200843C8F80000E2E7D4F839
:10450000B000B0F1405F0FD007DC68B1B0F1805F60
:1045100012D0B0F1005F06D115E0B0F1804F03D0AA
:10452000B0F1A04F00D00125A5B12E462088C04390
:1045300010F4004F18D022E0012104F1080004F02B
:10454000DDFD0546F0E7012104F1280004F076FEC8
:104550000546E9E7D9F80000D4F8B01020F0E040B3
:104560000843C9F80000E1E7206F30B1B0F1805F87
:104570000BD0B0F1005F0DD0012595B12E4620681B
:10458000C04310F0807F15D01FE0386840F4003041
:104590003860F2E7012104F1080004F0AFFD0546A0
:1045A000EBE7D8F80000216F20F040500843C8F82E
:1045B0000000E4E7A06C30B1012819D002281CD01B
:1045C000032800D00125FDB12E462068DFF818B081
:1045D000C04310F4800F09E02C44025850440258A4
:1045E000584402584C4402581044025814D030E049
:1045F000386840F400303860E5E7022104F1080033
:1046000004F07CFD0546DEE7F8480168A26C21F065
:10461000030111430160D8E7F548006840F4807158
:10462000F3480160FEF76EFC8246F148006810F422
:10463000807F0CD1FEF766FCA0EB0A00642801D94C
:10464000032504E0EA48006810F4807FF2D045B109
:104650002E462078DFF89CA3C04310F0010F60D0F5
:1046600070E0DFF894A3DAF80000B4F8B41000F4B6
:10467000407001F44071884211D0DAF8000020F453
:104680004070DAF8001041F48031CAF80010DAF80E
:10469000001021F48031CAF80010CAF80000D4F8E4
:1046A000B400B0F5807F16D1FEF72CFC0090DAF84C
:1046B000000010F0020F0ED1FEF724FC0099411A01
:1046C00041F28830814201D9032504E0DAF8000084
:1046D00010F0020FF0D00DB12E46BAE7D4F8B400B6
:1046E0004FF4407181430FD0DBF8000020F47C5080
:1046F000CBF80000DAF80000B4F8B410C1F30B01F5
:104700000843CAF80000A4E7DBF8001020F440706A
:1047100020F0704021F47C5141EA1010CBF80000E9
:10472000E8E7E06F18280BD005DC48B108280FD067
:10473000102804D113E0202802D0282800D0012519
:10474000A5B12E462078C04310F0020F17D02FE0FD
:10475000012104F1080004F0D1FC0546F0E7012135
:1047600004F1280004F06AFD0546E9E7DAF80000E4
:10477000E16F20F038000843CAF80000E2E7A06FBC
:10478000062812D2DFE800F012030A1212120121E9
:1047900004F1080004F0B2FC054607E0012104F131
:1047A000280004F04BFD054600E0012535B12E46FA
:1047B0002078C04310F0040F09D022E0DAF800009E
:1047C000A16F20F007000843CAF80000F0E7D4F812
:1047D0009400062812D2DFE800F012030A12121227
:1047E000012104F1080004F089FC054607E00121DD
:1047F00004F1280004F022FD054600E0012535B152
:104800002E462078C04310F0200F0AD020E0D9F8BF
:104810000000D4F8941020F007000843C9F8000005
:10482000EFE7D4F89000B0F1405F0FD007DC68B13B
:10483000B0F1805F12D0B0F1005F06D115E0B0F1A9
:10484000804F03D0B0F1A04F00D00125A5B12E4676
:104850002078C04310F0400F18D02EE0002104F162
:10486000080004F04BFC0546F0E7022104F12800A3
:1048700004F0E4FC0546E9E7DAF80000D4F890100B
:1048800020F0E0400843CAF80000E1E7D4F89C00BB
:10489000B0F5406F0FD007DC68B1B0F5806F12D073
:1048A000B0F5006F06D115E0B0F5805F03D0B0F52C
:1048B000A05F00D00125A5B12E462078C04310F09E
:1048C000800F18D02EE0002104F1080004F016FC3F
:1048D0000546F0E7022104F1280004F0AFFC05468C
:1048E000E9E7D9F80000D4F89C1020F4E050084320
:1048F000C9F80000E1E7D4F8A000B0F5C04F0FD030
:1049000007DC68B1B0F5005F12D0B0F5804F06D17A
:1049100015E0B0F5004F03D0B0F5204F00D00125D1
:10492000A5B12E462078C04310F0080F18D02CE017
:10493000002104F1080004F0E1FB0546F0E7022144
:1049400004F1280004F07AFC0546E9E7D9F80000F4
:10495000D4F8A01020F460400843C9F80000E1E753
:10496000D4F88400B0F5805F06D1022104F128005C
:1049700004F064FC00B10126DAF80000D4F88410D9
:1049800020F440500843CAF800002078C04310F0DB
:10499000100F14D1D4F89800B0F5807F06D1022111
:1049A00004F1280004F04AFC00B10126D9F8000007
:1049B000D4F8981020F440700843C9F8000020682B
:1049C000C04310F4002F0BD1D4F8A400B0B1B0F55F
:1049D000803F1AD0B0F5003F00D00125E5B12E464A
:1049E0002068C04310F4802F20D02DE04C440258A2
:1049F000004802585444025870440258002104F1FF
:104A0000080004F07BFB0546E8E7022104F12800DA
:104A100004F014FC0546E1E7D9F80000D4F8A4102E
:104A200020F440300843C9F80000D9E7D4F88800E2
:104A3000B0F5801F0ED0B0F5001F10D0B0F5401FAC
:104A400000D0012595B12E462068C04310F4803F68
:104A500016D01DE0386840F400303860F2E70121DC
:104A600004F1280004F0EAFB0546EBE7DAF8000061
:104A7000D4F8881020F440100843CAF80000E3E797
:104A8000206D58B1B0F5803F0DD0012595B12E466F
:104A90002068C04310F0005F14D01AE0386840F47A
:104AA00000303860F2E7022104F1080004F026FB30
:104AB0000546EBE76E480168226D21F48031114311
:104AC0000160E5E7022104F1280004F0B7FB00B122
:104AD00001262068C04310F4003F0ED1D4F88000B6
:104AE00048B1B0F5807F0ED0B0F5007F03D0B0F5AF
:104AF000407F00D001255DB12E462068C04310F4F0
:104B0000801F0FD016E0386840F400303860F2E7BC
:104B1000DAF80000D4F8801020F440700843CAF896
:104B20000000EAE7D8F80000616F20F00040084379
:104B3000C8F800002068C04310F0805F08D1DBF89F
:104B40000000D4F8B81020F480400843CBF80000EF
:104B50002068C04310F4001F07D1D8F80000E16EB0
:104B600020F080700843C8F800002068C04310F0AF
:104B7000804F0CD1DBF8000020F40040CBF800009F
:104B8000DBF80000D4F8BC100843CBF80000206824
:104B9000C04310F0004F06D135480168626D21F026
:104BA0004051114301602068C04310F4000F08D148
:104BB000DAF80000D4F88C1020F440000843CAF85A
:104BC000000020790025C04300F00100284306D1F1
:104BD000002104F1080004F091FA00B106462079A2
:104BE000C04300F00200284306D1012104F108006F
:104BF00004F084FA00B106462079C04300F00400B6
:104C0000284306D1022104F1080004F077FA00B12C
:104C100006462079C04300F00800284306D1002151
:104C200004F1280004F00AFB00B106462079C043D5
:104C300000F01000284306D1012104F1280004F0FF
:104C4000FDFA00B106462079C04300F02000284359
:104C500006D1022104F1280004F0F0FA00B1064662
:104C600016B10120BDE8F88F0020BDE8F88F0000E4
:104C70004C4402582DE9F05F04460D46002C17D035
:104C8000DFF88492D9F8000000F00F00A84212D299
:104C9000D9F8000020F00F002843C9F80000D9F827
:104CA000000000F00F00A84205D00120BDE8F09FF1
:104CB0000120BDE8F09F2078944E10F0040F0AD038
:104CC0002069316801F07001884204D9316821F00F
:104CD00070010843306020788D4F10F0080F0AD023
:104CE0006069396801F07001884204D9396821F09F
:104CF000700108433860207810F0100F0AD0A069C6
:104D0000396801F4E061884204D9396821F4E0612E
:104D1000084338602078DFF8FCB110F0200F0DD088
:104D2000E069DBF8001001F07001884206D9DBF879
:104D3000001021F070010843CBF80000207810F03B
:104D4000020F0AD0E068316801F00F01884204D9EF
:104D5000316821F00F0108433060207810F0010F16
:104D600051D03068A16820F47060084330606068FA
:104D70006949022808D003280DD0012812D00968FB
:104D800011F0040F34D011E0096811F4003F0DD187
:104D90000120BDE8F09F096811F0007F06D10120D5
:104DA000BDE8F09F096811F4807F1ED0DFF86CA188
:104DB000DAF8001021F007010843CAF80000FEF7F6
:104DC000A1F88046DAF80000616800F03800B0EB26
:104DD000C10F18D0FEF796F8A0EB080141F2883019
:104DE000814208D90320BDE8F09F0120BDE8F09F73
:104DF0000120BDE8F09FDAF80000616800F038009B
:104E0000B0EBC10FE6D1207810F0020F0AD0E068B5
:104E1000316801F00F01884204D2316821F00F019E
:104E200008433060D9F8000000F00F00A8420FD905
:104E3000D9F8000020F00F002843C9F80000D9F885
:104E4000000000F00F00A84202D00120BDE8F09F52
:104E5000207810F0040F0AD02069316801F0700149
:104E6000884204D2316821F0700108433060207814
:104E700010F0080F0AD06069396801F070018842AB
:104E800004D2396821F0700108433860207810F0AE
:104E9000100F0AD0A069396801F4E061884204D299
:104EA000396821F4E06108433860207810F0200F61
:104EB0000DD0E069DBF8001001F07001884206D2E5
:104EC000DBF8001021F070010843CBF8000000F07F
:104ED0007BF83168C1F3032211498A5C02F01F029A
:104EE000D040326802F00F02895C0E4A01F01F01C7
:104EF00020FA01F111600C4908600C480068BDE817
:104F0000F05FFEF73BB80000002000521844025842
:104F10001C440258204402580044025810440258CD
:104F2000545D010858640024546400244C64002437
:104F30004DF804ED00F048F80B4A11680B4BC1F333
:104F40000321595C01F01F0120FA01F11068084AA1
:104F500000F00F00185C00F01F0021FA00F0106054
:104F6000044A11605DF804FB18440258545D0108BE
:104F700058640024546400244DF804EDFFF7D8FF72
:104F800005490968054AC1F30211515C01F01F018E
:104F9000C8405DF804FB00001C440258545D010841
:104FA0004DF804EDFFF7C4FF05490968054AC1F350
:104FB0000221515C01F01F01C8405DF804FB0000B4
:104FC0001C440258545D01084DF8044D69480068BE
:104FD000DFF8A4C1694B10F038014ED008294FEA20
:104FE0002C1047D0102959D0182943D164480168A2
:104FF00001F003010068C0F30510624A126802F074
:105000000102614C2468C4F3CC0414FB02F200EEEC
:10501000102AB8EE400A00287BD0DFED5C0A5C4A1B
:10502000B7EE001AA9B39FED5B2A012974D00229BB
:1050300071D001EE900A1068F8EE611AC2EE212AD2
:10504000C0F3080001EE900AF8EE611A40EE201A53
:1050500031EE810A22EE800A1068C0F34620401C1F
:1050600000EE900AF8EE600A80EE201ABCEEC10A4B
:1050700010EE100A5DF8044B7047186810F0200F0E
:1050800008D018685DF8044BC0F3C1002CFA00F09A
:10509000704707E05DF8044B604670473E485DF896
:1050A000044B7047196811F0200F1CD01968C1F328
:1050B000C1012CFA01F101EE901AF8EE612A01EE1D
:1050C000900A1068F8EE611A82EEA12AC0F3080077
:1050D00001EE900AF8EE611A40EE201A31EE810AD4
:1050E00022EE000AB8E701EE900ADFED2C2A1068E4
:1050F000F8EE611A82EEA12AC0F3080001EE900AD0
:10510000F8EE611A40EE201A31EE810A22EE000A12
:10511000A2E72BE000E013E001EE900A1068F8EE41
:10512000611AC2EE212AC0F3080001EE900AF8EEDF
:10513000611A40EE201A31EE810A22EE800A8BE7D6
:1051400001EE900ADFED162A1068F8EE611A82EE81
:10515000A12AC0F3080001EE900AF8EE611A40EEB1
:10516000201A31EE810A22EE000A75E75DF8044B41
:1051700000207047104402580090D00300440258A9
:10518000284402582C440258344402580000003984
:10519000304402580024744A40787D010024744C45
:1051A00020BCBE4B2DE9F05F0446002C11D02078C6
:1051B000DFF8F883FE4F10F0010FFE4D6BD0D8F8EA
:1051C000000000F038003968102823D0182803D0D8
:1051D00006E00120BDE8F09F01F00300022819D08D
:1051E0006068B0F5803F1ED010B3B0F5A02F28D076
:1051F000286820F480302860286820F48020286007
:10520000606878B3FDF77EFE0646286810F4003F1C
:1052100020D040E0286810F4003F3CD0606830BBEC
:105220000120BDE8F09F286840F480302860E7E75F
:10523000286820F480302860286820F480202860C6
:10524000DEE7286840F480202860286840F4803039
:105250002860D5E7FDF756FE801B642803D903209C
:10526000BDE8F09F04E0286810F4003FF2D012E09F
:10527000FDF748FE0646286810F4003F0BD0FDF706
:1052800041FE801B642802D90320BDE8F09F2868F6
:1052900010F4003FF3D1207841F2030AC64E10F01B
:1052A000020F4BD0D8F8000000F038003968A0B1E8
:1052B000182802D111F0030F0FD0E068002878D031
:1052C000296821F0190108432860FDF71BFE81467B
:1052D000286810F0040F41D04DE0286810F0040F4A
:1052E00001D0E06868B12868E16820F0190008433F
:1052F0002860FDF707FE8146286810F0040F03D0F0
:105300000FE00120BDE8F09FFDF7FCFDA0EB0900D8
:10531000022802D90320BDE8F09F286810F0040F8E
:10532000F2D0FDF7E9FD504510D82069402806D09D
:10533000316821F47C3141EA0030306051E030685E
:1053400020F47C3040F4003030604AE03068217C4A
:1053500020F0FE4040EA0160306042E0FDF7D2FDFF
:10536000A0EB0900022802D90320BDE8F09F2868BD
:1053700010F0040FF2D0FDF7BFFD504511D82069A1
:10538000402806D0316821F47C3141EA0030306099
:1053900027E0306820F47C3040F40030306020E0BA
:1053A00007E03068217C20F0FE4040EA0160306078
:1053B00017E0286820F001002860FDF7A3FD814672
:1053C000286810F0040F0CD0FDF79CFDA0EB09003D
:1053D000022802D90320BDE8F09F286810F0040FCE
:1053E000F2D1207810F0100F45D0D8F8000000F06E
:1053F00038003968DFF8C4B1082813D0182803D161
:1054000001F0030001280DD0E069A8B3286840F03E
:1054100080002860FDF776FD8146286810F4807FC3
:105420002BD037E0286810F4807F05D0E069802811
:1054300002D00120BDE8F09FFDF75EFD504510D879
:10544000206A202806D0316821F0F84141EA8060C6
:10545000306056E0306820F0F84040F08040306026
:105460004FE0DBF8000094F8201020F07C5040EA78
:105470000160CBF8000044E02CE0FDF743FDA0EB19
:105480000900022802D90320BDE8F09F286810F423
:10549000807FF2D0FDF730FD504510D8206A2028DB
:1054A00006D0316821F0F84141EA8060306028E0A0
:1054B000306820F0F84040F08040306021E0DBF8B8
:1054C000000094F8201020F07C5040EA0160CBF8F6
:1054D000000016E0286820F080002860FDF712FD2B
:1054E0000646286810F4807F0BD0FDF70BFD801B6B
:1054F000022802D90320BDE8F09F286810F4807FBD
:10550000F3D1207810F0080F3AD0DFF8B49060693A
:10551000D8B1D9F8000040F00100C9F80000FDF74B
:10552000F1FC0646D9F8000010F0020F28D1FDF773
:10553000E9FC801B022802D90320BDE8F09FD9F8BE
:10554000000010F0020FF2D01AE0D9F8000020F0AD
:105550000100C9F80000FDF7D5FC0646D9F80000A7
:1055600010F0020F0CD0FDF7CDFC801B022802D9F1
:105570000320BDE8F09FD9F8000010F0020FF2D12F
:10558000207810F0200F3DD0A06920B3286840F4A7
:1055900080502860FDF7B6FC0646286810F4005FCE
:1055A00030D1FDF7AFFC801B02280BE010440258FD
:1055B0002844025800440258044402580C4402583B
:1055C0007444025802D90320BDE8F09F286810F403
:1055D000005FE6D016E0286820F480502860FDF7D0
:1055E00091FC0646286810F4005F0BD0FDF78AFC9A
:1055F000801B022802D90320BDE8F09F286810F420
:10560000005FF3D1207810F0040F6CD0B14E3068F9
:1056100040F480703060FDF775FC8146306810F40E
:10562000807F0CD1FDF76EFCA0EB0900642802D945
:105630000320BDE8F09F306810F4807FF2D0A068AE
:10564000A54E012816D0D0B1052821D0306820F011
:1056500001003060306820F004003060A06841F242
:10566000883A60B3FDF74EFC8146306810F0020FB7
:1056700017D038E0306840F001003060EEE7306865
:1056800020F001003060306820F004003060E5E771
:10569000306840F004003060306840F00100306055
:1056A000DCE7FDF72FFCA0EB0900504502D90320F1
:1056B000BDE8F09F306810F0020FF2D013E0FDF764
:1056C00021FC8146306810F0020F0CD0FDF71AFC67
:1056D000A0EB0900504502D90320BDE8F09F3068D7
:1056E00010F0020FF2D1616AA1B3D8F80000DFF820
:1056F000EC9100F03800182809F10408A9F104061B
:105700007DD0022912D0286820F080702860FDF733
:10571000F9FB0446286810F0007F1BD0FDF7F2FB70
:10572000001B02286CD90320BDE8F09F286820F0F8
:1057300080702860FDF7E6FB8246286810F0007F45
:105740000DD0FDF7DFFBA0EB0A00022803D90320F0
:10575000BDE8F09FBBE0286810F0007FF1D1386809
:10576000E16A20F0F30020F4407040EA0110A16AE1
:1057700008433860208E4FF47E42616B401E491E04
:10578000C0F3080002EA41210843218FD201491EDB
:1057900002EA0141084394F83C10491E120202EA51
:1057A00001610843C9F80000306820F00100306052
:1057B000D8F80000A16C6FF3CF0040EAC100C8F830
:1057C00000003068216C20F00C0008433060306825
:1057D000616C20F0020008433060306840F4803093
:1057E0003060306840F400303060306840F4802031
:1057F0003060306840F001003060286801E01DE052
:1058000016E040F080702860FDF77CFB04462868B5
:1058100010F0007F5BD1FDF775FB001B022802D959
:105820000320BDE8F09F286810F0007FF3D04EE021
:10583000286810F0007F7FF471AF48E03A68D9F82B
:105840000000012921D0A36A02F0030199421CD172
:10585000E16AC2F30512914217D1226BC0F308012D
:10586000521E914211D1616BC0F34622491E9142F2
:105870000BD1A16BC0F30642491E914205D1E16BE9
:10588000C0F30660491E814202D00120BDE8F09FAE
:10589000D8F80000C0F3CC00A16C814217D030686A
:1058A00020F001003060FDF72DFB0546FDF72AFBD7
:1058B000A842FBD0D8F80000A16C6FF3CF0040EAFB
:1058C000C100C8F80000306840F0010030600020DE
:1058D000BDE8F09F00480258704402583044025816
:1058E0002DE9F0410446002594F89000012810D0DD
:1058F000012684F890602068016811F4003F33D0DD
:10590000016821F40031016094F89100122803D05D
:1059100014E00220BDE8F081D4F8800070B1FBF7FC
:1059200073FE58B1D4F88000406D802806D0012560
:10593000D4F8940040F08000C4F8940094F89100EA
:10594000222811D1D4F8840070B1FBF75DFE58B164
:10595000D4F88400406D802806D00125D4F8940046
:1059600040F08000C4F89400206800270761781E8A
:1059700021688861204603F0F1FE00B1012520680E
:10598000416841F00801416084F8916084F89070AA
:105990002846BDE8F081704770B5044694F8910040
:1059A000002825D0226850691169136810F0080F8B
:1059B00008D011F0080F05D0D4F88C102046BDE8AF
:1059C0007040084700EA010C1CF0010F4FF0010C79
:1059D00011D0C2F818C094F89100222809D00220F2
:1059E000D4F894100843C4F894002046FFF7D3FF7E
:1059F00070BD0120F4E710F0020F0BD011F0020F80
:105A000008D002209061D4F888000028F0D0BDE8CA
:105A1000704000476B4D10F0200F3BD011F0200F6D
:105A200038D020209061D4F8940040F00400C4F8ED
:105A3000940013F4003F26D0D4F8800070B10565BF
:105A4000D4F88000FBF794FF40B1D4F8940040F004
:105A50008000C4F894002046FFF79DFFD4F884002E
:105A60000028C5D00565D4F88400FBF781FF002825
:105A7000BED0D4F8940040F08000C4F894002046D2
:105A8000FFF789FF70BD2046FFF72AFF2046FFF78A
:105A900082FF70BD10F0400F3BD011F0400F38D0A6
:105AA00040209061D4F8940040F00800C4F89400BD
:105AB00013F4003F26D0D4F8800070B10565D4F807
:105AC0008000FBF755FF40B1D4F8940040F080000F
:105AD000C4F894002046FFF75EFFD4F88400002845
