:020000040800F2
:100000009807002079020008A32300089321000824
:10001000A1230008E5040008992900080000000059
:10002000000000000000000000000000A7230008FE
:10003000E704000800000000A5230008A923000829
:10004000930200089302000893020008930200083C
:10005000930200089302000893020008930200082C
:10006000930200089302000893020008930200081C
:10007000930200089302000893020008930200080C
:100080009302000800000000930200089302000899
:1000900093020008930200089302000893020008EC
:1000A00093020008930200089302000893020008DC
:1000B00093020008930200089302000893020008CC
:1000C00093020008930200089302000893020008BC
:1000D00093020008352900089302000893020008E3
:1000E000930200089302000893020008930200089C
:1000F0009302000893020008930200080000000029
:1001000000000000930200080000000093020008B5
:100110009302000800000000930200089302000808
:10012000930200089302000893020008930200085B
:100130009302000800000000000000009302000885
:100140009302000893020008000000000000000075
:10015000000000000000000000000000000000009F
:1001600000000000000000000000000093020008F2
:1001700093020008000000000000000000000000E2
:1001800000000000930200080000000000000000D2
:10019000000000000000000000000000000000005F
:1001A0000000000000000000930200089302000815
:1001B0009302000893020008930200080000000068
:1001C0000000000093020008000000000000000092
:1001D000930200089302000800F002F800F03CF8D7
:1001E0000AA090E8000C82448344AAF10107DA4592
:1001F00001D100F031F8AFF2090EBAE80F0013F0A8
:10020000010F18BFFB1A43F001031847702B0000C1
:10021000902B0000103A24BF78C878C1FAD8520752
:1002200024BF30C830C144BF04680C607047000070
:100230000023002400250026103A28BF78C1FBD8EF
:10024000520728BF30C148BF0B6070471FB502F08E
:100250006FFD1FBD10B510BD00F0CFF81146FFF7C0
:10026000F5FF02F0ABFB00F0EDF803B4FFF7F2FF8F
:1002700003BC00F0F5F80000094880470948004732
:10028000FEE7FEE7FEE7FEE7FEE7FEE7FEE7FEE746
:10029000FEE7FEE704480549054A064B70470000A3
:1002A00015240008D90100089801002098070020B3
:1002B000980300209803002053EA020C00F06980A4
:1002C0002DE9F04B4FF00006002B1FBFB3FA83F56A
:1002D00003FA05F424FA05F65E4012BF1643B2FA9B
:1002E00082F502FA05F4C5F120051EBF22FA05FCCD
:1002F00044EA0C04203556EA044C4FEA144418BF73
:10030000641C4FF000084FF00009904271EB030CA1
:1003100039D3002919BFB1FA81F701FA07F6B0FA0B
:1003200080F700FA07F6C7F120071EBF20FA07FC86
:1003300046EA0C062037B6FBF4FCA7EB0507103F96
:1003400007F01F0BCBF120060CFA0BFB2CFA06F67C
:1003500044BFB3460026202FA4BF5E464FF0000BDB
:100360005BEA060C08BF4FF0010B19EB0B09ABFB66
:10037000027C48EB0608C01B06FB02CC0BFB03CC3F
:1003800071EB0C01C1E70B46024641464846BDE809
:10039000F08B13B54FF000004FF00001AFF3008079
:1003A000BDE81C4070474FF0000200B5134694466C
:1003B0009646203922BFA0E80C50A0E80C50B1F1BD
:1003C0002001BFF4F7AF090728BFA0E80C5048BFD1
:1003D0000CC05DF804EB890028BF40F8042B08BF6F
:1003E000704748BF20F8022B11F0804F18BF00F86B
:1003F000012B7047704770477047754600F02CF826
:10040000AE4605006946534620F00700854618B001
:1004100020B5FFF73FFFBDE820404FF000064FF04A
:1004200000074FF000084FF0000B21F00701AC4629
:10043000ACE8C009ACE8C009ACE8C009ACE8C00948
:100440008D46704710B50446AFF300802046BDE8E6
:100450001040FFF70ABF0000004870473401002039
:1004600001491820ABBEFEE72600020070470000DD
:1004700070B504460068816811F0010F2DD18168C4
:10048000174A11421AD18168D5432940491C81601D
:1004900000F00CFE06461BE0816811F0010F03D14D
:1004A00081682940491C816000F000FE801B022801
:1004B0000ED920680068C043C00709D0E06D40F045
:1004C0001000E065206E40F001002066012070BD44
:1004D00020680168C943C907DED1002070BD000053
:1004E0003F000080FEE7704772B6FEE72DE9F04757
:1004F000044690F858009CB00E464FF000090128C1
:1005000015D0012084F8580000251795189520680B
:100510004FF0A04840450ED1284F0097384601F0D3
:1005200047FE8246206801F043FE60B10EE00220E3
:100530001CB0BDE8F087E06D40F02000E06584F875
:1005400058500120F4E7BAF1000F09D0E06D40F0F7
:100550002000E0654FF0010984F858504846E7E76D
:100560001748326840F61F71002A826822F4604200
:1005700016D094F8383042EA433273681A438260E6
:10058000D8F80820BB6802F0010203F001031A4307
:10059000E2D1B36832681A4383688B431A430BE095
:1005A0008260D8F80820BB6802F0010203F0010362
:1005B0001A43D1D182688A438260CDE7000100509E
:1005C000000300502DE9F84F00270446009790F8EB
:1005D0005800DFF8D8930D46B846012811D00126FF
:1005E00084F85860206801F0DFFD60B1E06D40F0F4
:1005F0002000E0655FF0010784F858803846BDE8C8
:10060000F88F0220FBE7D5E900210C23206803EADC
:1006100091131844036B01F01F014FF01F0C0CFAEB
:1006200001FCC2F3846223EA0C038A401343036390
:10063000206801F0B9FD8246206801F0B1FD5AEA58
:1006400000003CD1AA6829682068B2F1004F37D079
:1006500001F0B2FD2068416921F00041416120684C
:100660006969C268C2F3C102520091402A69042A32
:1006700031D000EB82002B68026EDFF834C303F048
:10068000F84302EA0C020B431A4342F000410166B0
:1006900020682A69A96900EB8200026E22F080724C
:1006A0000A430266297F22682869012910D00021A7
:1006B00002EB8000026E22F000720A4302667DE0C7
:1006C000002201F079FD2068416941F00041C5E751
:1006D0004FF00071ECE7002101F05CFD4003206861
:1006E0004FF0000172D001F055FD90FAA0F0B0FA81
:1006F00080F1286842036ED090FAA0F0B0FA80F042
:10070000814204D100221146206801F064FD0121DC
:10071000206801F03FFD400320684FF001015DD0EB
:1007200001F038FD90FAA0F0B0FA80F12868420399
:1007300059D090FAA0F0B0FA80F0814204D10022A2
:100740000121206801F047FD0221206801F022FD0F
:10075000400320684FF0020148D001F01BFD90FAE1
:10076000A0F0B0FA80F12868420344D090FAA0F0DB
:10077000B0FA80F0814204D100220221206801F009
:100780002AFD0321206801F005FD400320684FF099
:10079000030133D001F0FEFC90FAA0F0B0FA80F132
:1007A000286842032FD090FAA0F0B0FA80F081427E
:1007B00004D100220321206801F00DFD206881682A
:1007C00011F0010F22D0A8E000E004E001F0E2FC0B
:1007D000C0F384618DE7C0F3846091E701F0DAFC37
:1007E000C0F38461A2E7C0F38460A6E701F0D2FC05
:1007F000C0F38461B7E7C0F38460BBE701F0CAFCD3
:10080000C0F38461CCE7C0F38460D0E7EB6829686B
:100810004B4550F8B03FC1F3120101D10B4300E04A
:100820008B430360E868484577D1286841031CD0B2
:1008300090FAA0F1B1FA81F1491C01F01F010929D8
:100840004FEA403132D8002912D000BF90FAA0F10F
:10085000B1FA81F101F1010101F01F0106FA01F67F
:1008600009D100BFC0F3846109E0C0F38461E3E70C
:10087000C0F38461EEE790FAA0F1B1FA81F101F1E1
:10088000010101F01F0146EA816102D1C0F38460D9
:1008900003E090FAA0F0B0FA80F000F1010000F05F
:1008A0001F0000EB400041EA005132E000290ED069
:1008B00090FAA0F1B1FA81F101F1010101F01F01FB
:1008C00006FA01F606D100BFC0F3846106E0C0F36A
:1008D0008461F1E790FAA0F1B1FA81F101F101012F
:1008E00001F01F0146EA816102D1C0F3846003E098
:1008F00090FAA0F0B0FA80F000F1010000F01F00C3
:100900002C4A00EB400002EB005041EA000141F0AC
:100910000071AA68206801F04FFC27482A6802424B
:100920003FF46AAE25488168254B01F0E0719A4298
:1009300002D0244B9A421CD10B021AD42268B2F185
:10094000A04F7FF459AE826841F4000122F0E072BA
:100950000A4382601C481D490068B0FBF1F0401C4E
:1009600000EB4000800000E0401E00900028FBD11A
:1009700042E6174D174BAA4207D1CD0105D4226894
:100980009A42F5D041F0807109E0134DAA42EFD1AF
:100990004A02EDD422689A42EAD041F4800182688A
:1009A00022F0E0720A43826026E6000000007F40E9
:1009B00000F0FF03000020FE00000880000300504C
:1009C000000021C31000C09034000020400D03003F
:1009D000000052C700010050000084CB0068006C8A
:1009E00070470000F8B54FF0000504002E46009552
:1009F00002D0E06D10B107E00120F8BD204600F004
:100A0000EFF8266684F8586020688168C1F3407169
:100A100019B181686A4A1140816020688168C1F318
:100A2000007189B98168674A114041F08051816045
:100A3000654866490068B0FBF1F04000801C00E0AA
:100A4000401E00900028FBD120688168C1F300712E
:100A500041B9E16D41F01001E165216E41F0010104
:100A60002166012501F0A0FBE16DC90600D430B17B
:100A7000E06D40F01000E06501252846F8BDE06D0E
:100A800020F4807040F00200E0652068806810F07B
:100A9000010F11D14FF0A04080684D4900F00100D6
:100AA000896801F00101084306D14A4861688268FB
:100AB00022F47C120A438260E168E06B627F0843A3
:100AC000A16841EA4231084394F8241040EA014009
:100AD000012904D1218D404A02EB41410843E16ADA
:100AE00029B101F47871226B014342EA01002168C7
:100AF000CA683A4B1A400243CA6020680169626BB7
:100B000021F0406111430161206801F04DFB064670
:100B1000206801F045FB30432ED1207F94F8381037
:100B2000800340EA41022068C16844F2020399430D
:100B30001143C16020690028206801690AD041F48E
:100B400080310161206850F8C01F22696FF30D01E8
:100B5000114307E021F480310161206850F8C01F83
:100B60006FF30D01016094F8400001280CD020685B
:100B7000016921F001010161606901282068016BB0
:100B800021F00F0111D013E0D4E911010843D4E999
:100B900013121143084321680A6940F2FC739A4317
:100BA000104340F001000861E6E7226A521E11433B
:100BB0000163E06D20F0020040F00100E0655CE7B9
:100BC000C0FFFF5FC0FFFF7F34000020400D030027
:100BD00000010050000300500000FEFF0740F0FF3E
:100BE00010B598B00446142111A8FFF7DCFB44218E
:100BF0006846FFF7D8FB2068B0F1A04F26D14FF42C
:100C00000040009080030F90684600F04DFB08B153
:100C1000FFF76AFC0E48C16C41F40051C164C16C1D
:100C200001F400511691C16C41F00101C164C06C26
:100C300011A900F0010016900120119003201290DC
:100C4000002013904FF0904000F002F918B010BD52
:100C5000001002402DE9F04104463848806800F059
:100C60001F05206801F0A0FA18B102210846BDE86E
:100C7000F08194F8580001280CD0012084F8580025
:100C80002046FFF7F5FB01004FF0000304D084F885
:100C90005830EBE70220EAE7E06D40F6016290434E
:100CA00040F48070E065264A20684FF0A0469042EC
:100CB00001D1374600E00746874200D01DB9E76DF5
:100CC00027F48017E765E76DFF0404D5276E27F04A
:100CD0000607276600E023661C27076084F8583063
:100CE0002068904201D1334600E00346834215D08C
:100CF000A5B1052D12D0092D10D0E36D43F480135A
:100D0000E365904200D13046C0688001AED5E06D09
:100D100020F4005040F48050E065A7E7C2689201DB
:100D200005D5E26D22F4005242F48052E2658268F9
:100D3000044B1A40121D826098E700000003005027
:100D400000010050C0FFFF7F10B590F82530002152
:100D50000122022B03D00421C163012122E0036898
:100D60001C6824F00E041C60836C1C6824F48074DE
:100D70001C6003681C6824F001041C6090F8443077
:100D8000046C03F01F0302FA03F36360D0E9133429
:100D90005C60436D33B11C6824F480741C60D0E93E
:100DA00016345C6080F82520002280F82420084654
:100DB00010BD70B590F82520002401212346022A99
:100DC00007D00422C26380F8251080F82430012463
:100DD00029E00268156825F00E051560026815689F
:100DE00025F001051560826C156825F48075156085
:100DF00090F84420056C02F01F0201FA02F26A60CA
:100E0000D0E913255560426D32B1156825F480751F
:100E10001560D0E91625556080F8251080F824303B
:100E2000816B01B18847204670BD000070B5044653
:100E300000F03CF90546601C02D0044840680444B8
:100E400000F034F9401BA042FAD370BD2800002006
:100E50002DE9F04FDFF82092002301260324A9F1A9
:100E6000040B85B00F2709F1040AABF1040EFAE078
:100E700006FA03F52A407CD091F804C00CF0030C6C
:100E8000BCF1010F02D0BCF1020F26D1D0F808C08E
:100E9000CDF800C04FEA430C04FA0CF8CDF810C0AE
:100EA000DDF800C02CEA080CCDF800C0D1F80C80A9
:100EB000DDF810C008FA0CF8DDF800C048EA0C08AC
:100EC000C0F80880D0F804C02CEA050C0D79C5F3F1
:100ED00000159D4045EA0C0545600D79ED43AD07D1
:100EE0000ED0C5684FEA430804FA08FC25EA0C0551
:100EF000D1F808C00CFA08FC4CEA050CC0F80CC08C
:100F00000D7905F00305022D16D1DD0800EB850CE7
:100F1000CDF808C0DCF820805D074FEAD56C07FAF1
:100F20000CF528EA05080D6905FA0CF5DDF808C08E
:100F300045EA0805CCF8205005684FEA430CCDF887
:100F400008C004FA0CFC25EA0C0591F804C00CF06A
:100F50000308DDF808C008FA0CF848EA0508C0F8EC
:100F600000804D6815F4403F7CD0444DD5F860C0FA
:100F700000E077E04CF0010CC5F860C02D6E23F066
:100F8000030C05F0010500953D4D65440295AD68E3
:100F90004FEA837C4FEA1C7807FA08FC25EA0C0527
:100FA000B0F1904F06D0DFF8DCC0604505D14FF0BE
:100FB000010C20E04FF0000C1DE0DFF8CCC06045D4
:100FC00002D14FF0020C16E0DFF8C0C0604502D13C
:100FD0004FF0030C0FE0DFF8B8C0604502D14FF0CE
:100FE000040C08E0DFF8ACC0604502D14FF0050CFE
:100FF00001E04FF0060C0CFA08FC4CEA050C029DCF
:10100000C5F808C0D9F80050CC46D1F80480954303
:101010005FEAC82800D51543CCF80050DAF8005034
:10102000D446D1F8048095435FEA882800D515435B
:10103000CCF80050DBF80050DC46D1F80480954332
:101040005FEA883800D51543CCF80050DEF8005030
:10105000F446D1F8048095435FEAC83800D51543BB
:10106000CCF800505B1C0A6832FA03F57FF400AF3D
:1010700005B0BDE8F08F00000804014000100240F8
:10108000000001400004004800080048000C00482F
:1010900000100048001400480069084000D00120FA
:1010A00070470AB18161704781627047014880686A
:1010B00070470000280000200248816842681144FF
:1010C000816070472800002010B50024032000F044
:1010D00073F80F2000F008F808B1012401E000F0D7
:1010E00025F8204610BD000070B50E4E05460024C0
:1010F000706898B14FF47A71B1FBF0F00A49096851
:10110000B1FBF0F000F062FD40B9102D06D20022D4
:101110002946501E00F030F8356000E001242046DA
:1011200070BD000028000020340000200A4882B072
:10113000016E41F001010166016E01F001010091B3
:10114000816D41F080518165806D00F0805000908C
:1011500002B000F0A1B8000000100240002809DB36
:1011600000F01F02012191404009800000F1E020C1
:10117000C0F8001170470000F0B40E4B1B680C461D
:10118000C3F30223C3F10705042D00D90425191D5B
:10119000072901D2002300E0DB1E012606FA05F133
:1011A000491E214099409E40761E16403143F0BCB6
:1011B00001F0F3BB0CED00E0064900F007020868FF
:1011C0004FF6FF03184040EA0220034A104308602C
:1011D000704700000CED00E00000FA052B492C4B95
:1011E0000A6832214A432B4940B1B0F5007F0868B4
:1011F00029D020F4C06040F480602CE00868C0F37F
:101200004120022804D051F8800F20F4807022E0A1
:10121000D1F8800020F48070C1F88000086820F4C4
:10122000C06040F400700860B2FBF3F0401C00E0C6
:10123000401E4A69520501D50028F9D14869400588
:101240000AD503207047C0F34120022806D051F888
:10125000800F40F48070086000207047D1F8800053
:1012600040F48070C1F88000086820F4C06040F449
:1012700000700860B2FBF3F0401C00E0401E4A69B9
:101280005205DBD50028F9D1D8E700003400002052
:1012900040420F00007000400248816841F48041E4
:1012A00081607047007000402DE9F84304460068F3
:1012B00000269D4D00035ED5A86D0027C00008D410
:1012C000A86D40F08050A865A86D012700F08050FF
:1012D0000090DFF85892D9F8001041F48071C9F8F5
:1012E0000010FFF7E3FE804606E000BFFFF7DEFEDA
:1012F000A0EB080002282BD8D9F80000C005F5D5CE
:10130000D5F8900010F4407014D0216C814211D0B7
:10131000D5F89000D5F8901020F4407041F4803159
:10132000C5F89010D5F8901021F48031C5F89010D0
:10133000C5F89000C00711D0FFF7B8FE804641F213
:10134000883907E0FFF7B2FEA0EB0801494501D953
:1013500003260BE0D5F890008007F3D5D5F8900070
:10136000216C20F440700843C5F890001FB1A86DAF
:1013700020F08050A8652078C00707D0D5F88800F5
:10138000616820F003000843C5F8880020788007D2
:1013900007D5D5F88800A16820F00C000843C5F8EF
:1013A00088002078400707D5D5F88800E16820F04C
:1013B00030000843C5F888002078000707D5D5F825
:1013C0008800216920F0C0000843C5F88800207813
:1013D000800607D5D5F88800616920F4406008438D
:1013E000C5F888002078400607D5D5F88800A1699F
:1013F00020F440500843C5F888002078000607D53F
:10140000D5F88800E16920F440400843C5F8880019
:101410002088C00507D5D5F88800216A20F440301F
:101420000843C5F888002088800507D5D5F88800CE
:10143000616A20F440200843C5F8880020884005F0
:101440000FD5D5F88800A16A20F440100843C5F8EC
:101450008800A06AB0F5801F03D1E86840F48010CE
:10146000E860208800050FD5D5F88800E16A20F4EF
:1014700040000843C5F88800E06AB0F5800F03D14A
:10148000E86840F48010E8602088C0040FD5D5F8E3
:101490008800216B20F040700843C5F88800206B5D
:1014A000B0F1807F03D1E86840F48010E8602088C4
:1014B0004FF0006180040ED5D5F88800626B20F0F3
:1014C00040601043C5F88800606B884203D1E8682B
:1014D00040F48010E860208840040ED5D5F88800DC
:1014E000A26B20F040601043C5F88800A06B8842D2
:1014F00003D1E86840F48010E860208800040FD52C
:10150000D5F88800E16B20F040500843C5F888000A
:10151000E06BB0F1805F03D1E86840F48030E860B0
:101520003046BDE8F8830000001002400070004023
:101530002DE9F0470E4605004FF0000725D0DFF8F3
:10154000AC81D8F8000000F00F00B0420CD2D8F8FF
:10155000001021F00F013143C8F80010D8F8000046
:1015600000F00F00B04210D12968614CC80741F269
:10157000883A5AD06868DFF87C91032808D002289E
:1015800020682DD0400500282CDB0120BDE8F08725
:1015900020688001F9D5E06800F00302E068C0F33C
:1015A0000310401C032A19D0534A00BFB2FBF0F0CD
:1015B000E268C2F306225043E268C2F34162521C61
:1015C0005200B0FBF2F0484517D9A06810F0F00FB8
:1015D0000CD0880711D5A86840B10EE0474AE5E76E
:1015E0008003D0E700F0B6F8484506D9A06820F09F
:1015F000F00040F08000A0608027A068696820F0BB
:1016000003000843A060FFF751FD814606E000BFDC
:10161000FFF74CFDA0EB090151453AD8A068696875
:1016200000F00C00B0EB810FF2D12868810714D5CF
:10163000400703D5A06840F4E060A0602878000768
:1016400005D5A06820F4605040F4E060A060A06878
:10165000A96820F0F000084304E0802F03D1A068BF
:1016600020F0F000A060D8F80010404601F00F0113
:10167000B14216D9016821F00F0131430160FFF733
:1016800015FD074607E000BFFFF710FDC11B5145E0
:1016900001D903207AE7D8F8000000F00F00B0422B
:1016A000F2D12878400705D5A068E96820F4E06009
:1016B0000843A0602878000706D5A068296920F4AF
:1016C000605040EAC100A06000F044F8A1680C4AF4
:1016D000C1F30311515C01F01F01C84009490860C2
:1016E00009480068BDE8F047FFF7FEBC0020024053
:1016F0000010024000B4C4040024F40000127A0078
:10170000622D00083400002028000020054806490A
:1017100000688968054AC1F30221515C01F01F018C
:10172000C84070473400002000100240722D0008AD
:101730000548064900688968054AC1F3C221515C21
:1017400001F01F01C8407047340000200010024023
:10175000722D0008184910B58868C0F38102174837
:10176000012A0BD08A684310C2F38102022A06D0F4
:101770008A68C2F38102032A03D0002010BD1846F4
:1017800010BDCA6802F00304CA68C2F30312521CF7
:10179000032C02D0B0FBF2F001E0B3FBF2F0CA6818
:1017A000C968C2F306225043C1F34161491C490094
:1017B000B0FBF1F010BD0000001002400024F40066
:1017C0002DE9F84304007AD02078FA4DC00747D0BD
:1017D000A868E96800F00C0001F003010C2802D0B1
:1017E000082817D001E0032914D06068B0F5803FC5
:1017F00017D0B0F5A02F286817D020F480302860CB
:10180000286820F4802028606068E0B1FFF74EFC73
:10181000064614E02868800322D560680028D2D0EC
:101820001EE0286840F48030EDE740F48020286016
:10183000F7E700BFFFF73AFC801B642870D82868E0
:101840008003F7D50CE0FFF731FC064605E000BF4A
:10185000FFF72CFC801B6428F0D828688003F7D49D
:10186000207880074CD5A868E96800F00C0001F0EA
:1018700003010C2802D004280DD001E002290AD06F
:10188000E068002828682BD040F480702860FFF7BB
:101890000DFC064619E02868400502D5E0680028DE
:1018A00091D06868217C20F0FE4040EA01606860C9
:1018B000C1480068FFF718FC002800D120E076E15D
:1018C000FFF7F4FB801B0228B8D828684005F7D53D
:1018D0006868217C20F0FE4040EA016068600FE00B
:1018E00020F480702860FFF7E1FB064605E000BFAA
:1018F000FFF7DCFB801B0228A0D828684005F7D43E
:101900002078000729D560690028D5F8940013D005
:1019100040F00100C5F89400FFF7C8FB064606E05A
:1019200090E000BFFFF7C2FB801B022886D8D5F8E5
:1019300094008007F6D510E020F00100C5F894006F
:10194000FFF7B4FB064604E0FFF7B0FB801B02285C
:1019500078D8D5F894008007F6D42078400761D570
:10196000A86D0026C00008D4A86D40F08050A8657E
:10197000A86D012600F08050009090480168C905CC
:1019800011D40168804641F480710160FFF78EFB3D
:10199000074604E0FFF78AFBC01B022852D8D8F89C
:1019A0000000C005F6D5A068012815D00528D5F897
:1019B000900016D020F00100C5F89000D5F89000F6
:1019C00020F00400C5F89000A06841F28838B8B152
:1019D000FFF76CFB07460EE0D5F8900040F00100E1
:1019E000F0E740F00400C5F89000F5E7FFF75EFB74
:1019F000C11B414526D8D5F890008007F6D50CE0EC
:101A0000FFF754FB074604E0FFF750FBC11B4145BD
:101A100018D8D5F890008007F6D41EB1A86D20F034
:101A20008050A8652078800629D5A0690028D5F8BF
:101A3000980013D040F00100C5F89800FFF736FB7E
:101A4000064606E077E000BFFFF730FB801B022868
:101A500077D8D5F898008007F6D510E020F001007F
:101A6000C5F89800FFF722FB064604E0FFF71EFBCF
:101A7000801B022865D8D5F898008007F6D4E06965
:101A8000F0B3A968C1F38101032961D00228286855
:101A900020F0807028600BD0E86820F00300E86038
:101AA000E86847490840E860FFF700FB04464BE060
:101AB000FFF7FCFA064604E0FFF7F8FA801B02285D
:101AC0003FD828688001F7D4F4E908016FF00F02CD
:101AD00002EB01110843218A5204490802EB4151EB
:101AE000A26841EA02210843217D4FF07E42490865
:101AF00002EB41610843217B40EAC160E96800E0F4
:101B000062E0304A11400843E860286840F0807085
:101B10002860E86840F08070E860FFF7C7FA044684
:101B200005E000BFFFF7C2FA001B022809D82868A9
:101B30008001F7D548E004E0FFF7B8FA001B02285F
:101B400002D90320BDE8F88328688001F4D43BE083
:101B50000128F7D0E868226A00F00301914226D1FB
:101B6000616A00F0F0020901103991421FD1A26AA6
:101B700000F4FE41B1EB022F19D194F82C2000F0B3
:101B80007841B1EBC26F12D1218E00F4C002490836
:101B90004905A1F50011914209D194F8341000F0E3
:101BA000C06049084906A1F1007181420CD00120B2
:101BB000C8E700000010024028000020007000402C
:101BC000FFFFEEFE0C809F010020BBE710B5401E1A
:101BD000B0F1807F01D3012010BD4FF0E02460619F
:101BE0000F21601700F0D9FE0020A06107202061BE
:101BF000002010BD90F88010012918D0012180F834
:101C000080102421C0F8841050F8641B0A680B6807
:101C100023F001030B6022F000510022026050F813
:101C2000643C19602021016202771046704702204F
:101C300070477047704770B5044690F880000128DF
:101C40001DD0012084F880002420C4F8840020687E
:101C50000568026822F0010202602068826822F0B2
:101C600060620A438260204600F0DCFB2068056069
:101C70002020C4F88400002084F8800070BD022079
:101C800070BD70B5044690F8800001281DD0012079
:101C900084F880002420C4F8840020680568026865
:101CA00022F0010202602068826822F060420A434A
:101CB0008260204600F0B6FB206805602020C4F852
:101CC0008400002084F8800070BD022070BD704741
:101CD000704770472DE9F04103680446D8691968D8
:101CE0009A6840F60F0528424FF0000509D1860694
:101CF0007ED501F0200602F080573E4378D0216F58
:101D000027E1A94EA94F16400F40374370D0C707AF
:101D100009D0CF0507D501271F62D4F88C3043F0D6
:101D20000103C4F88C3083070AD5D30708D027688D
:101D300002233B62D4F88C3043F00403C4F88C30A7
:101D400043070AD5D30708D0276804233B62D4F899
:101D50008C3043F00203C4F88C3003070CD501F03B
:101D60002003334308D0266808233362D4F88C302C
:101D700043F00803C4F88C3003050BD54B0109D59B
:101D800026684FF400633362D4F88C3043F02003AC
:101D9000C4F88C30D4F88C30002B3AD0800609D5AA
:101DA00001F0200002F08051084303D0216F09B1F7
:101DB00020468847D4F88C0021688968490602D4F7
:101DC00010F0280F27D0204600F0ECFB2068806838
:101DD00040061BD52068083050E8001F21F0400164
:101DE00040E80012002AF5D1E06F78B1704900E0B8
:101DF00017E08163E06FFEF7DCFF002809D0E06F99
:101E0000816B00E02046BDE8F04108472046FFF71F
:101E100060FFBDE8F0812046FFF75BFFC4F88C50FF
:101E2000F7E7E76E2026012F7ED1C7067CD5CF06C7
:101E30007AD51020186220688068400642D5E16F8C
:101E4000086840680004000CE3D0B4F85C208242CB
:101E5000DFD9A4F85E000868006880062BD42068EB
:101E600050E8001F21F4807140E80012002AF6D1EA
:101E70002068083050E8001F21F0010140E80012FE
:101E8000002AF5D12068083050E8001F21F04001F9
:101E900040E80012002AF5D1C4F88860E5662168A0
:101EA00051E8000F20F0100041E80002002AF6D1AE
:101EB000E06FFEF749FFB4F85C00B4F85E10401A1A
:101EC00081B22CE0B4F85C00B4F85E10401A81B224
:101ED000B4F85E0000289CD000299AD0226852E80D
:101EE000000F20F4907042E80003002BF6D12E4B37
:101EF000DB432068083050E8002F1A4040E80027F4
:101F0000002FF6D1C4F88860E5662567226852E89C
:101F1000000F20F0100042E80003002BF6D120460D
:101F2000FFF787FE75E7FFE7C70209D5570207D518
:101F30004FF4801018622046BDE8F041FFF7C8BE9C
:101F400003060AD501F0800302F40002134304D013
:101F5000616F00297FF456AF5BE7420611D54A0650
:101F60000FD52046016851E8002F22F0400241E8D9
:101F70000023002BF6D1C0F88460456700F008F913
:101F800047E7020206D54A0004D52046BDE8F041E5
:101F9000FFF79DBEC001C5D50029C3DA2046BDE8C4
:101FA000F041FFF747BE00000100001020010004CF
:101FB0009125000810B5040003D0D4F8840010B1B6
:101FC00007E0012010BD002084F88000204600F0CA
:101FD00027F82420C4F884002068016821F001015A
:101FE0000160204600F008FB0128EBD0A06A10B188
:101FF000204600F039FA2068416821F490414160A0
:102000002068816821F02A0181602068016841F020
:10201000010101602046BDE8104000F089BA0000CF
:1020200070B598B00446142111A8FEF7BCF94421FC
:102030006846FEF7B8F924492068884241D101205A
:102040000024CDE900046846FFF72EF908B1FEF739
:102050004BFA1E48016E41F480410166016E01F4A5
:1020600080411691C16C41F00401C164C16C01F062
:1020700004011691C16C41F00101C164C06C0225DC
:1020800000F00100169007261020CDE91254CDE98A
:102090001446119011A90E48FEF7DAFE6802CDE948
:1020A0001254CDE91446119011A94FF09040FEF75B
:1020B000CFFE002201212520FFF75EF82520FFF743
:1020C0004DF818B070BD000000380140001002400B
:1020D000000800482DE9F8430446D0F884001F4664
:1020E00016460D46202851D1DDB1D6B194F88000B6
:1020F00001284BD0012084F880004FF00008C4F87C
:102100008C802120C4F884001834FEF7CFFFA68706
:102110008146E68754F8100C183CB0F5805F03D078
:1021200004E00120BDE8F883206920B12E46002597
:1021300084F8808010E00026FAE78021204600F035
:1021400095FBB8B9C6B116F8010B21688862B4F8DE
:102150005600401EA4F85600B4F856004B464FF007
:10216000000200970028E8D14FF04001204600F01F
:102170007DFB30B10320D5E735F8020BC0F3080032
:10218000E3E72020C4F884000020CBE70220C9E761
:102190007047FEE700EB8100006E00F0F8407047EA
:1021A0008068C0F3C00070478068C0F3800070474B
:1021B0008068C0F380007047042303EAD15310B550
:1021C00018444369C1F3045107248C40A3438A4057
:1021D0001343436110BD00EB8100016E21F000410B
:1021E000114301667047000030B58BB0002408949D
:1021F0000994202168460A94FEF7D5F81C484FF050
:10220000A041042501604FF40031C0E90114C4600D
:102210000461C0E90545047744770121016280F833
:102220002440C462046380F83840C46380F84040AE
:10223000FEF7D8FB08B1FEF757F908A90C48089437
:10224000FEF754F908B1FEF74FF90A48009006204E
:10225000CDE901047F200594CDE9030569460448D2
:10226000FEF7B0F9002801D0FEF73EF90BB030BD03
:102270003800002002003004F0B587B01421684611
:10228000FEF791F82A48C16C41F02001C164C16C8D
:1022900001F020010591C16C41F00101C164C16CE4
:1022A00001F001010591C16C41F00401C164C16CF0
:1022B00001F004010591C16C41F00201C164C06CE0
:1022C0004FF0904600F00200059000222021304699
:1022D000FEF7E7FE174F002228213846FEF7E1FE01
:1022E0000820002401258DE8310069463046FEF7BC
:1022F000AFFD2020CDE9000569463046CDE9024515
:10230000FEF7A6FD4FF42040CDE9000469463846AB
:102310000294FEF79DFD2820CDE900050220CDE9BD
:10232000024069463846FEF793FD07B0F0BD000055
:102330000010024000040048184810B5164901601A
:102340004FF4E1314160002181600C22C160C0E99D
:1023500004128161C161016241628162FFF72AFE5C
:1023600008B1FEF7C1F800210C48FFF78AFC08B15C
:10237000FEF7BAF800210948FFF75DFC08B1FEF747
:10238000B3F80648FFF736FC002803D0BDE810403C
:10239000FEF7AAB810BD000000380140A4000020DC
:1023A000FEE7FEE770477047FEF786BE10B594B0B3
:1023B00038216846FDF7F7FF14210EA8FDF7F3FF5B
:1023C0004FF40070FEF70AFF01210804CDE9001068
:1023D0000324CDE9084102201421CDE90A10079019
:1023E0000C900D906846FFF7EBF908B172B6FEE766
:1023F0000F20CDE90E0400201090119012900221C0
:102400000EA8FFF795F8002801D072B6FEE714B0C9
:1024100010BD00000248016841F47001016070477E
:1024200088ED00E030B5416EB9B1026891689268FC
:10243000C1F342610B4B520F9C5CE50003F10804B1
:10244000A25CB5FBF2F2A0F86A205A5C615CD20093
:10245000B2FBF1F1A0F8681030BD0121A0F86A10BC
:10246000F8E70000522D000890F82810C90706D0A0
:1024700001684A68C36A22F400321A434A6090F83D
:102480002810890706D501684A68036B22F4803258
:102490001A434A6090F82810490706D501684A682F
:1024A000436B22F480221A434A6090F828100907EF
:1024B00006D501684A68836B22F400421A434A60D9
:1024C00090F82810C90606D501688A68C36B22F403
:1024D00080521A438A6090F82810890606D5016850
:1024E0008A68036C22F400521A438A6090F828101C
:1024F000490611D501684A68436C22F480121A43D8
:102500004A60416CB1F5801F06D101684A68836C4E
:1025100022F4C0021A434A6090F82810090606D532
:1025200001684A68C06C22F4002202434A60704786
:10253000F8B500260446C0F88C60FEF7B7FD0546E6
:10254000206800686FF07E47000708D52B46002200
:102550004FF400112046009700F088F960B9206818
:10256000006840070AD52B4600224FF48001204620
:10257000009700F07BF908B10320F8BD2020C4F8D3
:102580008400C4F8880044F86C6F00202675F8BDFC
:1025900010B5806A0021A0F85E10A0F85610FFF771
:1025A00098FB10BD10B5026852E8001F21F490712D
:1025B00042E80013002BF6D10E4B0268083252E8B5
:1025C000001F194042E80014002CF6D1C16E012909
:1025D00008D1016851E8002F22F0100241E80023E1
:1025E000002BF6D12021C0F888100021C1660167B8
:1025F00010BD0000FEFFFFEF2DE9F0410446016829
:1026000080682269E3691043626900251A43104318
:10261000DFF82CC20A688B4B1A4002430A6020681C
:102620004168E26821F44051114341602168A0698A
:10263000614501D0226A10438A68834B1A400243E5
:102640008A602068C16A626A21F00F011143C16289
:102650007E4923687E488B420DD1D0F8880010F067
:10266000030006D0012855D0022842D003283FD1CC
:1026700052E001203DE077498B420BD1D0F8880031
:1026800010F00C0035D0042833D0082840D00C2896
:102690002ED141E070498B420BD1D0F8880010F068
:1026A000300026D0102835D0202831D030281FD136
:1026B00032E06A498B420BD1D0F8880010F0C0009C
:1026C00017D0402826D0802822D0C02810D123E05F
:1026D00063450DD1D0F8880010F4406009D0B0F502
:1026E000806F17D0B0F5006F12D0B0F5406F13D0E7
:1026F00010205B495B4F00264FF4004263453BD1FD
:1027000060B1022813D004280BD0082872D10DE044
:102710000220EEE70420ECE70820EAE7FEF7F6FFE8
:1027200001E0FFF717F8010001D17CE01146606A73
:1027300037F810206768B1FBF2F007EB47038342DC
:1027400070D8B0EB073F6DD8002308461946FDF757
:10275000B3FD090241EA10610202780810187141C4
:102760003A460023FDF7A8FD3F4AA0F5407191428B
:1027700058D82168C86056E0E3694FF6EF78934275
:102780002CD109284ED2DFE800F00508114D0D4D7F
:102790004D4D1000FEF7BAFF01E0FEF7C9FF010042
:1027A00004D140E0FEF7D6FFF9E71146606A37F83A
:1027B0001000B1FBF0F04100606801EB5001B1FB8B
:1027C000F0F0A0F1100141452CD84FF6F071014016
:1027D000C0F3420001432068C16024E0092821D2EF
:1027E000DFE800F0050912200E2020201100FEF77E
:1027F0008DFF02E016E0FEF79BFF010004D112E01E
:10280000FEF7A8FFF9E71146606A37F81000B1FB40
:10281000F0F1606801EB5001B1FBF0F0A0F11001A4
:1028200041450AD901250120A4F86A0024F8680F5F
:102830002846A660E660BDE8F08180B299E7000016
:1028400000800040F369FFCFFFF4FF110038014022
:10285000001002400044004000480040004C00408E
:102860000024F4003A2D0008FFFC0F002DE9F0478A
:102870009A4617460E4604464FF000094FF02008CE
:10288000089D4AE0681C48D0FEF710FCA0EB0A0047
:10289000A8422AD84DB32068016849073DD5C069D0
:1028A000C043000539D421684FF4006008622068F5
:1028B00050E8001F21F4D07140E80012002AF6D140
:1028C0002068083050E8001F21F0010140E80012A4
:1028D000002AF5D144F8848FC4F80480C4F8088035
:1028E00004F8049C0320BDE8F087216851E8000F3C
:1028F00020F4D07041E80002002AF6D120680830A8
:1029000050E8001F21F0010140E80012002AF5D133
:1029100044F8848FC4F80480E2E72068C06936EA8E
:10292000000004D00020B842ACD00020DBE701203A
:10293000F9E7000070B515480068800621D51348F6
:1029400008300068C5B2FEF7B1FB114CA169401A0E
:1029500004F11201C82808D9A12D02D0FF20E0718E
:102960000CE00020E0710D7008E0E079042805D249
:10297000401CC0B2E0710D5401202072FEF796FB9E
:10298000A061BDE870400348FFF7A4B91C380140BE
:1029900000000020A4000020FEE70907090E00281F
:1029A00004DB00F1E02080F80014704700F00F0015
:1029B00000F1E02080F8141D70470000FEF784FB52
:1029C000FFF7F4FCFFF758FCFFF70EFCFFF7B4FC31
:1029D00001222821D148FEF764FBD148016841F06B
:1029E000200101604FF49670FEF720FACD48FEF703
:1029F00031F9CA4C08264FF0904718344FF02008A0
:102A00004FF000094FF01B0A4FF47A7B1420FEF7B9
:102A10000DFA08213846FEF73FFB10B9C24D687821
:102A200028B108213846FEF737FB80B113E0266055
:102A3000C4F80080BC49A5F80C901031FE20487005
:102A400005230222B948FFF745FB012059E0B64DA6
:102A50006878012806D008213846FEF71DFB0128BA
:102A60002DD04FE0A8894FF6FF7188424AD2401C12
:102A700080B2A881297811B1FA280FD042E09628B7
:102A800040D1012220213846FEF70BFB2660A349E6
:102A90002831C1F800800120687133E0A249FC2090
:102AA0001031052348700222A048FFF713FB26606F
:102AB000C4F800800120A870A5F80E9028E09A4D77
:102AC000687801281ED12879401CC0B228710328DB
:102AD00018D9687918B10120287085F80590A8895F
:102AE000322808D29049FD20103105234870022277
:102AF0008E48FFF7EFFA4FF6FF70A881484685F839
:102B000004906870884DA87838B3E889584517D282
:102B1000854DE889401C80B2A0F54071E881E73915
:102B20000ED185F80290002220213846FEF7B9FA2E
:102B30002660C4F8008085F800904FF6FF70E881A9
:102B400079498879401CC0B288712660410771D0EC
:102B500000F0070004286ED084E028786A7850EAF4
:102B6000020102D001282CD03CE04FF400516B4808
:102B7000FEF792FA012804D06B49A12010310870A9
:102B800017E04FF400416548FEF786FA20B1664928
:102B9000A320103108700EE06349A22010310870A4
:102BA000A879401CC0B2A871402802D381383F28C0
:102BB00001D2266002E0594828300660C4F800803F
:102BC00010E07AB94FF400515448FEF765FA012835
:102BD00012D05549A1201031087026604F49283184
:102BE000C1F800805048E97810300078884239D028
:102BF0002878012820D029E04FF400414748FEF70B
:102C00004BFA20B14849A320103108700CE0464926
:102C1000A22010310870A879401CC0B2A8714028C9
:102C200002D381383F28C6D226603C482830C0F8FD
:102C30000080D7E70FE013E03B48697A10300523A6
:102C40004170014602223948FFF744FA36481030F5
:102C50000078E87006E031482830C0F8008001E0D4
:102C6000C4F80080304D287A30B30220FEF7DEF839
:102C700005F112000178A1291CD14078FC2802D06E
:102C800055280DD016E085F8029000222021384604
:102C9000FEF707FA2660C4F8008085F8009009E086
:102CA0002148697A103005234170014602221F48ED
:102CB000FFF710FA85F808901A48FDF78FFEE861D3
:102CC000296A01EB41010844801C80082862B0FB9E
:102CD000FAF0C0B26872642801D964206872A97AD7
:102CE000C0B2814216D0FEF7E1F9696A401A584530
:102CF00010D92878012808D10B49687A10310523AA
:102D0000487002220948FFF7E5F9FEF7CFF968623B
:102D1000687AA8720348FDF79DFF77E60004004833
:102D2000003801403800002000000020A4000020EE
:102D30004FF04070E1EE100A7047010002000400FD
:102D4000060008000A000C0010002000400080006F
:102D50000001010101030701000008040204080149
:102D6000010100000000000000000102030406074A
:102D70000809000000000102030400009C2D000867
:102D8000000000203800000014020008D42D0008C4
:102D9000380000206007000030020008000000FF3B
:102DA000000000000000FF00FFFFFFFFA100000087
:102DB0000000000000000000000000000000000013
:102DC00000000000100000000100000000000000F2
:042DD0000024F400E7
:04000005080001D915
:00000001FF
